Archive member included because of file (symbol)

C:\Users\Haris\AppData\Local\Temp\VMBuilds\Main_Siemens_Automation_824MSPe\haeger_haeger_samd_haeger_mcu2\Debug/core.a(cortex_handlers.c.o)
                              (Reset_Handler)
C:\Users\Haris\AppData\Local\Temp\VMBuilds\Main_Siemens_Automation_824MSPe\haeger_haeger_samd_haeger_mcu2\Debug/core.a(delay.c.o)
                              C:\Users\Haris\AppData\Local\Temp\VMBuilds\Main_Siemens_Automation_824MSPe\haeger_haeger_samd_haeger_mcu2\Debug\Main_Siemens_Automation_824MSPe.cpp.o (millis)
C:\Users\Haris\AppData\Local\Temp\VMBuilds\Main_Siemens_Automation_824MSPe\haeger_haeger_samd_haeger_mcu2\Debug/core.a(hooks.c.o)
                              C:\Users\Haris\AppData\Local\Temp\VMBuilds\Main_Siemens_Automation_824MSPe\haeger_haeger_samd_haeger_mcu2\Debug/core.a(delay.c.o) (yield)
C:\Users\Haris\AppData\Local\Temp\VMBuilds\Main_Siemens_Automation_824MSPe\haeger_haeger_samd_haeger_mcu2\Debug/core.a(startup.c.o)
                              C:\Users\Haris\AppData\Local\Temp\VMBuilds\Main_Siemens_Automation_824MSPe\haeger_haeger_samd_haeger_mcu2\Debug/core.a(cortex_handlers.c.o) (SystemInit)
C:\Users\Haris\AppData\Local\Temp\VMBuilds\Main_Siemens_Automation_824MSPe\haeger_haeger_samd_haeger_mcu2\Debug/core.a(wiring_analog.c.o)
                              C:\Users\Haris\AppData\Local\Temp\VMBuilds\Main_Siemens_Automation_824MSPe\haeger_haeger_samd_haeger_mcu2\Debug\Main_Siemens_Automation_824MSPe.cpp.o (analogReadResolution)
C:\Users\Haris\AppData\Local\Temp\VMBuilds\Main_Siemens_Automation_824MSPe\haeger_haeger_samd_haeger_mcu2\Debug/core.a(wiring_digital.c.o)
                              C:\Users\Haris\AppData\Local\Temp\VMBuilds\Main_Siemens_Automation_824MSPe\haeger_haeger_samd_haeger_mcu2\Debug\Main_Siemens_Automation_824MSPe.cpp.o (pinMode)
C:\Users\Haris\AppData\Local\Temp\VMBuilds\Main_Siemens_Automation_824MSPe\haeger_haeger_samd_haeger_mcu2\Debug/core.a(wiring_private.c.o)
                              C:\Users\Haris\AppData\Local\Temp\VMBuilds\Main_Siemens_Automation_824MSPe\haeger_haeger_samd_haeger_mcu2\Debug/core.a(wiring_analog.c.o) (pinPeripheral)
C:\Users\Haris\AppData\Local\Temp\VMBuilds\Main_Siemens_Automation_824MSPe\haeger_haeger_samd_haeger_mcu2\Debug/core.a(main.cpp.o)
                              c:/users/haris/appdata/local/arduino15/packages/arduino/tools/arm-none-eabi-gcc/4.8.3-2014q1/bin/../lib/gcc/arm-none-eabi/4.8.3/../../../../arm-none-eabi/lib/armv7e-m/fpu/crt0.o (main)
C:\Users\Haris\AppData\Local\Temp\VMBuilds\Main_Siemens_Automation_824MSPe\haeger_haeger_samd_haeger_mcu2\Debug/core.a(Reset.cpp.o)
                              C:\Users\Haris\AppData\Local\Temp\VMBuilds\Main_Siemens_Automation_824MSPe\haeger_haeger_samd_haeger_mcu2\Debug/core.a(delay.c.o) (tickReset)
C:\Users\Haris\AppData\Local\Temp\VMBuilds\Main_Siemens_Automation_824MSPe\haeger_haeger_samd_haeger_mcu2\Debug/core.a(SERCOM.cpp.o)
                              C:\Users\Haris\AppData\Local\Temp\VMBCore\visualmicro\ed00c25992609daaa7a7b547b702356d\variant\variant.cpp.o (SERCOM::SERCOM(Sercom*))
C:\Users\Haris\AppData\Local\Temp\VMBuilds\Main_Siemens_Automation_824MSPe\haeger_haeger_samd_haeger_mcu2\Debug/core.a(Uart.cpp.o)
                              C:\Users\Haris\AppData\Local\Temp\VMBCore\visualmicro\ed00c25992609daaa7a7b547b702356d\variant\variant.cpp.o (Uart::Uart(SERCOM*, unsigned char, unsigned char, SercomRXPad, SercomUartTXPad))
C:\Users\Haris\AppData\Local\Temp\VMBuilds\Main_Siemens_Automation_824MSPe\haeger_haeger_samd_haeger_mcu2\Debug/core.a(WMath.cpp.o)
                              C:\Users\Haris\AppData\Local\Temp\VMBuilds\Main_Siemens_Automation_824MSPe\haeger_haeger_samd_haeger_mcu2\Debug\Main_Siemens_Automation_824MSPe.cpp.o (makeWord(unsigned char, unsigned char))
C:\Users\Haris\AppData\Local\Temp\VMBuilds\Main_Siemens_Automation_824MSPe\haeger_haeger_samd_haeger_mcu2\Debug/core.a(CDC.cpp.o)
                              C:\Users\Haris\AppData\Local\Temp\VMBuilds\Main_Siemens_Automation_824MSPe\haeger_haeger_samd_haeger_mcu2\Debug\Main_Siemens_Automation_824MSPe.cpp.o (Serial_::begin(unsigned long))
C:\Users\Haris\AppData\Local\Temp\VMBuilds\Main_Siemens_Automation_824MSPe\haeger_haeger_samd_haeger_mcu2\Debug/core.a(USBCore.cpp.o)
                              C:\Users\Haris\AppData\Local\Temp\VMBuilds\Main_Siemens_Automation_824MSPe\haeger_haeger_samd_haeger_mcu2\Debug/core.a(main.cpp.o) (USBDeviceClass::init())
C:\Users\Haris\AppData\Local\Temp\VMBuilds\Main_Siemens_Automation_824MSPe\haeger_haeger_samd_haeger_mcu2\Debug/core.a(wiring.c.o)
                              C:\Users\Haris\AppData\Local\Temp\VMBuilds\Main_Siemens_Automation_824MSPe\haeger_haeger_samd_haeger_mcu2\Debug/core.a(main.cpp.o) (init)
C:\Users\Haris\AppData\Local\Temp\VMBuilds\Main_Siemens_Automation_824MSPe\haeger_haeger_samd_haeger_mcu2\Debug/core.a(abi.cpp.o)
                              C:\Users\Haris\AppData\Local\Temp\VMBuilds\Main_Siemens_Automation_824MSPe\haeger_haeger_samd_haeger_mcu2\Debug/core.a(Uart.cpp.o) (__cxa_pure_virtual)
C:\Users\Haris\AppData\Local\Temp\VMBuilds\Main_Siemens_Automation_824MSPe\haeger_haeger_samd_haeger_mcu2\Debug/core.a(new.cpp.o)
                              C:\Users\Haris\AppData\Local\Temp\VMBuilds\Main_Siemens_Automation_824MSPe\haeger_haeger_samd_haeger_mcu2\Debug/core.a(USBCore.cpp.o) (operator new(unsigned int))
C:\Users\Haris\AppData\Local\Temp\VMBuilds\Main_Siemens_Automation_824MSPe\haeger_haeger_samd_haeger_mcu2\Debug/core.a(Print.cpp.o)
                              C:\Users\Haris\AppData\Local\Temp\VMBuilds\Main_Siemens_Automation_824MSPe\haeger_haeger_samd_haeger_mcu2\Debug/core.a(Uart.cpp.o) (Print::write(unsigned char const*, unsigned int))
C:\Users\Haris\AppData\Local\Temp\VMBuilds\Main_Siemens_Automation_824MSPe\haeger_haeger_samd_haeger_mcu2\Debug/core.a(RingBuffer.cpp.o)
                              C:\Users\Haris\AppData\Local\Temp\VMBuilds\Main_Siemens_Automation_824MSPe\haeger_haeger_samd_haeger_mcu2\Debug/core.a(Uart.cpp.o) (RingBuffer::RingBuffer())
C:\Users\Haris\AppData\Local\Temp\VMBuilds\Main_Siemens_Automation_824MSPe\haeger_haeger_samd_haeger_mcu2\Debug/core.a(PluggableUSB.cpp.o)
                              C:\Users\Haris\AppData\Local\Temp\VMBuilds\Main_Siemens_Automation_824MSPe\haeger_haeger_samd_haeger_mcu2\Debug/core.a(USBCore.cpp.o) (PluggableUSB_::getInterface(unsigned char*))
C:\Users\Haris\AppData\Local\Temp\VMBuilds\Main_Siemens_Automation_824MSPe\haeger_haeger_samd_haeger_mcu2\Debug/core.a(SAMD21_USBDevice.cpp.o)
                              C:\Users\Haris\AppData\Local\Temp\VMBuilds\Main_Siemens_Automation_824MSPe\haeger_haeger_samd_haeger_mcu2\Debug/core.a(USBCore.cpp.o) (USBDevice_SAMD21G18x::reset())
c:/users/haris/appdata/local/arduino15/packages/arduino/tools/arm-none-eabi-gcc/4.8.3-2014q1/bin/../lib/gcc/arm-none-eabi/4.8.3/../../../../arm-none-eabi/lib/armv7e-m/fpu\libm.a(lib_a-s_fpclassify.o)
                              C:\Users\Haris\AppData\Local\Temp\VMBuilds\Main_Siemens_Automation_824MSPe\haeger_haeger_samd_haeger_mcu2\Debug/core.a(Print.cpp.o) (__fpclassifyd)
c:/users/haris/appdata/local/arduino15/packages/arduino/tools/arm-none-eabi-gcc/4.8.3-2014q1/bin/../lib/gcc/arm-none-eabi/4.8.3/armv7e-m/fpu\libgcc.a(_arm_addsubdf3.o)
                              C:\Users\Haris\AppData\Local\Temp\VMBuilds\Main_Siemens_Automation_824MSPe\haeger_haeger_samd_haeger_mcu2\Debug\ResponsiveAnalogRead\ResponsiveAnalogRead.cpp.o (__aeabi_dsub)
c:/users/haris/appdata/local/arduino15/packages/arduino/tools/arm-none-eabi-gcc/4.8.3-2014q1/bin/../lib/gcc/arm-none-eabi/4.8.3/armv7e-m/fpu\libgcc.a(_arm_muldivdf3.o)
                              C:\Users\Haris\AppData\Local\Temp\VMBuilds\Main_Siemens_Automation_824MSPe\haeger_haeger_samd_haeger_mcu2\Debug\ResponsiveAnalogRead\ResponsiveAnalogRead.cpp.o (__aeabi_dmul)
c:/users/haris/appdata/local/arduino15/packages/arduino/tools/arm-none-eabi-gcc/4.8.3-2014q1/bin/../lib/gcc/arm-none-eabi/4.8.3/armv7e-m/fpu\libgcc.a(_arm_cmpdf2.o)
                              C:\Users\Haris\AppData\Local\Temp\VMBuilds\Main_Siemens_Automation_824MSPe\haeger_haeger_samd_haeger_mcu2\Debug/core.a(Print.cpp.o) (__aeabi_dcmplt)
c:/users/haris/appdata/local/arduino15/packages/arduino/tools/arm-none-eabi-gcc/4.8.3-2014q1/bin/../lib/gcc/arm-none-eabi/4.8.3/armv7e-m/fpu\libgcc.a(_arm_fixunsdfsi.o)
                              C:\Users\Haris\AppData\Local\Temp\VMBuilds\Main_Siemens_Automation_824MSPe\haeger_haeger_samd_haeger_mcu2\Debug/core.a(Print.cpp.o) (__aeabi_d2uiz)
c:/users/haris/appdata/local/arduino15/packages/arduino/tools/arm-none-eabi-gcc/4.8.3-2014q1/bin/../lib/gcc/arm-none-eabi/4.8.3/armv7e-m/fpu\libgcc.a(_arm_truncdfsf2.o)
                              C:\Users\Haris\AppData\Local\Temp\VMBuilds\Main_Siemens_Automation_824MSPe\haeger_haeger_samd_haeger_mcu2\Debug\ResponsiveAnalogRead\ResponsiveAnalogRead.cpp.o (__aeabi_d2f)
c:/users/haris/appdata/local/arduino15/packages/arduino/tools/arm-none-eabi-gcc/4.8.3-2014q1/bin/../lib/gcc/arm-none-eabi/4.8.3/../../../../arm-none-eabi/lib/armv7e-m/fpu\libc_s.a(lib_a-exit.o)
                              c:/users/haris/appdata/local/arduino15/packages/arduino/tools/arm-none-eabi-gcc/4.8.3-2014q1/bin/../lib/gcc/arm-none-eabi/4.8.3/../../../../arm-none-eabi/lib/armv7e-m/fpu/crt0.o (exit)
c:/users/haris/appdata/local/arduino15/packages/arduino/tools/arm-none-eabi-gcc/4.8.3-2014q1/bin/../lib/gcc/arm-none-eabi/4.8.3/../../../../arm-none-eabi/lib/armv7e-m/fpu\libc_s.a(lib_a-impure.o)
                              c:/users/haris/appdata/local/arduino15/packages/arduino/tools/arm-none-eabi-gcc/4.8.3-2014q1/bin/../lib/gcc/arm-none-eabi/4.8.3/../../../../arm-none-eabi/lib/armv7e-m/fpu\libc_s.a(lib_a-exit.o) (_global_impure_ptr)
c:/users/haris/appdata/local/arduino15/packages/arduino/tools/arm-none-eabi-gcc/4.8.3-2014q1/bin/../lib/gcc/arm-none-eabi/4.8.3/../../../../arm-none-eabi/lib/armv7e-m/fpu\libc_s.a(lib_a-init.o)
                              c:/users/haris/appdata/local/arduino15/packages/arduino/tools/arm-none-eabi-gcc/4.8.3-2014q1/bin/../lib/gcc/arm-none-eabi/4.8.3/../../../../arm-none-eabi/lib/armv7e-m/fpu/crt0.o (__libc_init_array)
c:/users/haris/appdata/local/arduino15/packages/arduino/tools/arm-none-eabi-gcc/4.8.3-2014q1/bin/../lib/gcc/arm-none-eabi/4.8.3/../../../../arm-none-eabi/lib/armv7e-m/fpu\libc_s.a(lib_a-malloc.o)
                              C:\Users\Haris\AppData\Local\Temp\VMBuilds\Main_Siemens_Automation_824MSPe\haeger_haeger_samd_haeger_mcu2\Debug/core.a(USBCore.cpp.o) (malloc)
c:/users/haris/appdata/local/arduino15/packages/arduino/tools/arm-none-eabi-gcc/4.8.3-2014q1/bin/../lib/gcc/arm-none-eabi/4.8.3/../../../../arm-none-eabi/lib/armv7e-m/fpu\libc_s.a(lib_a-memcpy-stub.o)
                              C:\Users\Haris\AppData\Local\Temp\VMBuilds\Main_Siemens_Automation_824MSPe\haeger_haeger_samd_haeger_mcu2\Debug/core.a(USBCore.cpp.o) (memcpy)
c:/users/haris/appdata/local/arduino15/packages/arduino/tools/arm-none-eabi-gcc/4.8.3-2014q1/bin/../lib/gcc/arm-none-eabi/4.8.3/../../../../arm-none-eabi/lib/armv7e-m/fpu\libc_s.a(lib_a-memset.o)
                              c:/users/haris/appdata/local/arduino15/packages/arduino/tools/arm-none-eabi-gcc/4.8.3-2014q1/bin/../lib/gcc/arm-none-eabi/4.8.3/../../../../arm-none-eabi/lib/armv7e-m/fpu/crt0.o (memset)
c:/users/haris/appdata/local/arduino15/packages/arduino/tools/arm-none-eabi-gcc/4.8.3-2014q1/bin/../lib/gcc/arm-none-eabi/4.8.3/../../../../arm-none-eabi/lib/armv7e-m/fpu\libc_s.a(lib_a-nano-freer.o)
                              c:/users/haris/appdata/local/arduino15/packages/arduino/tools/arm-none-eabi-gcc/4.8.3-2014q1/bin/../lib/gcc/arm-none-eabi/4.8.3/../../../../arm-none-eabi/lib/armv7e-m/fpu\libc_s.a(lib_a-malloc.o) (_free_r)
c:/users/haris/appdata/local/arduino15/packages/arduino/tools/arm-none-eabi-gcc/4.8.3-2014q1/bin/../lib/gcc/arm-none-eabi/4.8.3/../../../../arm-none-eabi/lib/armv7e-m/fpu\libc_s.a(lib_a-nano-mallocr.o)
                              c:/users/haris/appdata/local/arduino15/packages/arduino/tools/arm-none-eabi-gcc/4.8.3-2014q1/bin/../lib/gcc/arm-none-eabi/4.8.3/../../../../arm-none-eabi/lib/armv7e-m/fpu\libc_s.a(lib_a-malloc.o) (_malloc_r)
c:/users/haris/appdata/local/arduino15/packages/arduino/tools/arm-none-eabi-gcc/4.8.3-2014q1/bin/../lib/gcc/arm-none-eabi/4.8.3/../../../../arm-none-eabi/lib/armv7e-m/fpu\libc_s.a(lib_a-rand.o)
                              C:\Users\Haris\AppData\Local\Temp\VMBuilds\Main_Siemens_Automation_824MSPe\haeger_haeger_samd_haeger_mcu2\Debug/core.a(WMath.cpp.o) (srand)
c:/users/haris/appdata/local/arduino15/packages/arduino/tools/arm-none-eabi-gcc/4.8.3-2014q1/bin/../lib/gcc/arm-none-eabi/4.8.3/../../../../arm-none-eabi/lib/armv7e-m/fpu\libc_s.a(lib_a-sbrkr.o)
                              c:/users/haris/appdata/local/arduino15/packages/arduino/tools/arm-none-eabi-gcc/4.8.3-2014q1/bin/../lib/gcc/arm-none-eabi/4.8.3/../../../../arm-none-eabi/lib/armv7e-m/fpu\libc_s.a(lib_a-nano-mallocr.o) (_sbrk_r)
c:/users/haris/appdata/local/arduino15/packages/arduino/tools/arm-none-eabi-gcc/4.8.3-2014q1/bin/../lib/gcc/arm-none-eabi/4.8.3/../../../../arm-none-eabi/lib/armv7e-m/fpu\libc_s.a(lib_a-strlen.o)
                              C:\Users\Haris\AppData\Local\Temp\VMBuilds\Main_Siemens_Automation_824MSPe\haeger_haeger_samd_haeger_mcu2\Debug/core.a(USBCore.cpp.o) (strlen)
c:/users/haris/appdata/local/arduino15/packages/arduino/tools/arm-none-eabi-gcc/4.8.3-2014q1/bin/../lib/gcc/arm-none-eabi/4.8.3/../../../../arm-none-eabi/lib/armv7e-m/fpu\libc_s.a(lib_a-reent.o)
                              c:/users/haris/appdata/local/arduino15/packages/arduino/tools/arm-none-eabi-gcc/4.8.3-2014q1/bin/../lib/gcc/arm-none-eabi/4.8.3/../../../../arm-none-eabi/lib/armv7e-m/fpu\libc_s.a(lib_a-sbrkr.o) (errno)
c:/users/haris/appdata/local/arduino15/packages/arduino/tools/arm-none-eabi-gcc/4.8.3-2014q1/bin/../lib/gcc/arm-none-eabi/4.8.3/../../../../arm-none-eabi/lib/armv7e-m/fpu\libnosys.a(sbrk.o)
                              c:/users/haris/appdata/local/arduino15/packages/arduino/tools/arm-none-eabi-gcc/4.8.3-2014q1/bin/../lib/gcc/arm-none-eabi/4.8.3/../../../../arm-none-eabi/lib/armv7e-m/fpu\libc_s.a(lib_a-sbrkr.o) (_sbrk)
c:/users/haris/appdata/local/arduino15/packages/arduino/tools/arm-none-eabi-gcc/4.8.3-2014q1/bin/../lib/gcc/arm-none-eabi/4.8.3/../../../../arm-none-eabi/lib/armv7e-m/fpu\libnosys.a(_exit.o)
                              c:/users/haris/appdata/local/arduino15/packages/arduino/tools/arm-none-eabi-gcc/4.8.3-2014q1/bin/../lib/gcc/arm-none-eabi/4.8.3/../../../../arm-none-eabi/lib/armv7e-m/fpu\libc_s.a(lib_a-exit.o) (_exit)

Allocating common symbols
Common symbol       size              file

errno               0x4               c:/users/haris/appdata/local/arduino15/packages/arduino/tools/arm-none-eabi-gcc/4.8.3-2014q1/bin/../lib/gcc/arm-none-eabi/4.8.3/../../../../arm-none-eabi/lib/armv7e-m/fpu\libc_s.a(lib_a-reent.o)

Discarded input sections

 .text          0x00000000        0x0 c:/users/haris/appdata/local/arduino15/packages/arduino/tools/arm-none-eabi-gcc/4.8.3-2014q1/bin/../lib/gcc/arm-none-eabi/4.8.3/armv7e-m/fpu/crti.o
 .data          0x00000000        0x0 c:/users/haris/appdata/local/arduino15/packages/arduino/tools/arm-none-eabi-gcc/4.8.3-2014q1/bin/../lib/gcc/arm-none-eabi/4.8.3/armv7e-m/fpu/crti.o
 .bss           0x00000000        0x0 c:/users/haris/appdata/local/arduino15/packages/arduino/tools/arm-none-eabi-gcc/4.8.3-2014q1/bin/../lib/gcc/arm-none-eabi/4.8.3/armv7e-m/fpu/crti.o
 .data          0x00000000        0x4 c:/users/haris/appdata/local/arduino15/packages/arduino/tools/arm-none-eabi-gcc/4.8.3-2014q1/bin/../lib/gcc/arm-none-eabi/4.8.3/armv7e-m/fpu/crtbegin.o
 .text          0x00000000       0x74 c:/users/haris/appdata/local/arduino15/packages/arduino/tools/arm-none-eabi-gcc/4.8.3-2014q1/bin/../lib/gcc/arm-none-eabi/4.8.3/../../../../arm-none-eabi/lib/armv7e-m/fpu/crt0.o
 .data          0x00000000        0x0 c:/users/haris/appdata/local/arduino15/packages/arduino/tools/arm-none-eabi-gcc/4.8.3-2014q1/bin/../lib/gcc/arm-none-eabi/4.8.3/../../../../arm-none-eabi/lib/armv7e-m/fpu/crt0.o
 .bss           0x00000000        0x0 c:/users/haris/appdata/local/arduino15/packages/arduino/tools/arm-none-eabi-gcc/4.8.3-2014q1/bin/../lib/gcc/arm-none-eabi/4.8.3/../../../../arm-none-eabi/lib/armv7e-m/fpu/crt0.o
 .ARM.extab     0x00000000        0x0 c:/users/haris/appdata/local/arduino15/packages/arduino/tools/arm-none-eabi-gcc/4.8.3-2014q1/bin/../lib/gcc/arm-none-eabi/4.8.3/../../../../arm-none-eabi/lib/armv7e-m/fpu/crt0.o
 .ARM.exidx     0x00000000        0x8 c:/users/haris/appdata/local/arduino15/packages/arduino/tools/arm-none-eabi-gcc/4.8.3-2014q1/bin/../lib/gcc/arm-none-eabi/4.8.3/../../../../arm-none-eabi/lib/armv7e-m/fpu/crt0.o
 .ARM.attributes
                0x00000000       0x20 c:/users/haris/appdata/local/arduino15/packages/arduino/tools/arm-none-eabi-gcc/4.8.3-2014q1/bin/../lib/gcc/arm-none-eabi/4.8.3/../../../../arm-none-eabi/lib/armv7e-m/fpu/crt0.o
 .group         0x00000000        0x8 C:\Users\Haris\AppData\Local\Temp\VMBuilds\Main_Siemens_Automation_824MSPe\haeger_haeger_samd_haeger_mcu2\Debug\Main_Siemens_Automation_824MSPe.cpp.o
 .group         0x00000000        0x8 C:\Users\Haris\AppData\Local\Temp\VMBuilds\Main_Siemens_Automation_824MSPe\haeger_haeger_samd_haeger_mcu2\Debug\Main_Siemens_Automation_824MSPe.cpp.o
 .group         0x00000000        0x8 C:\Users\Haris\AppData\Local\Temp\VMBuilds\Main_Siemens_Automation_824MSPe\haeger_haeger_samd_haeger_mcu2\Debug\Main_Siemens_Automation_824MSPe.cpp.o
 .group         0x00000000        0x8 C:\Users\Haris\AppData\Local\Temp\VMBuilds\Main_Siemens_Automation_824MSPe\haeger_haeger_samd_haeger_mcu2\Debug\Main_Siemens_Automation_824MSPe.cpp.o
 .group         0x00000000        0x8 C:\Users\Haris\AppData\Local\Temp\VMBuilds\Main_Siemens_Automation_824MSPe\haeger_haeger_samd_haeger_mcu2\Debug\Main_Siemens_Automation_824MSPe.cpp.o
 .group         0x00000000        0x8 C:\Users\Haris\AppData\Local\Temp\VMBuilds\Main_Siemens_Automation_824MSPe\haeger_haeger_samd_haeger_mcu2\Debug\Main_Siemens_Automation_824MSPe.cpp.o
 .group         0x00000000        0x8 C:\Users\Haris\AppData\Local\Temp\VMBuilds\Main_Siemens_Automation_824MSPe\haeger_haeger_samd_haeger_mcu2\Debug\Main_Siemens_Automation_824MSPe.cpp.o
Memory Configuration

Name             Origin             Length             Attributes
FLASH            0x00004000         0x0007c000         xr
RAM              0x20000000         0x00030000         xrw
*default*        0x00000000         0xffffffff

Linker script and memory map

LOAD c:/users/haris/appdata/local/arduino15/packages/arduino/tools/arm-none-eabi-gcc/4.8.3-2014q1/bin/../lib/gcc/arm-none-eabi/4.8.3/armv7e-m/fpu/crti.o
LOAD c:/users/haris/appdata/local/arduino15/packages/arduino/tools/arm-none-eabi-gcc/4.8.3-2014q1/bin/../lib/gcc/arm-none-eabi/4.8.3/armv7e-m/fpu/crtbegin.o
LOAD c:/users/haris/appdata/local/arduino15/packages/arduino/tools/arm-none-eabi-gcc/4.8.3-2014q1/bin/../lib/gcc/arm-none-eabi/4.8.3/../../../../arm-none-eabi/lib/armv7e-m/fpu/crt0.o
LOAD C:\Users\Haris\AppData\Local\Temp\VMBuilds\Main_Siemens_Automation_824MSPe\haeger_haeger_samd_haeger_mcu2\Debug\Main_Siemens_Automation_824MSPe.cpp.o
LOAD C:\Users\Haris\AppData\Local\Temp\VMBuilds\Main_Siemens_Automation_824MSPe\haeger_haeger_samd_haeger_mcu2\Debug\Alarm_Function.cpp.o
LOAD C:\Users\Haris\AppData\Local\Temp\VMBuilds\Main_Siemens_Automation_824MSPe\haeger_haeger_samd_haeger_mcu2\Debug\All_At_Position_Function.cpp.o
LOAD C:\Users\Haris\AppData\Local\Temp\VMBuilds\Main_Siemens_Automation_824MSPe\haeger_haeger_samd_haeger_mcu2\Debug\Conductive_Mode_Function.cpp.o
LOAD C:\Users\Haris\AppData\Local\Temp\VMBuilds\Main_Siemens_Automation_824MSPe\haeger_haeger_samd_haeger_mcu2\Debug\Dwell_Time_Function.cpp.o
LOAD C:\Users\Haris\AppData\Local\Temp\VMBuilds\Main_Siemens_Automation_824MSPe\haeger_haeger_samd_haeger_mcu2\Debug\Fastener_Detection_Function.cpp.o
LOAD C:\Users\Haris\AppData\Local\Temp\VMBuilds\Main_Siemens_Automation_824MSPe\haeger_haeger_samd_haeger_mcu2\Debug\Fastener_Length_Function.cpp.o
LOAD C:\Users\Haris\AppData\Local\Temp\VMBuilds\Main_Siemens_Automation_824MSPe\haeger_haeger_samd_haeger_mcu2\Debug\Feed_Fastener_Function.cpp.o
LOAD C:\Users\Haris\AppData\Local\Temp\VMBuilds\Main_Siemens_Automation_824MSPe\haeger_haeger_samd_haeger_mcu2\Debug\Footpedal_Function.cpp.o
LOAD C:\Users\Haris\AppData\Local\Temp\VMBuilds\Main_Siemens_Automation_824MSPe\haeger_haeger_samd_haeger_mcu2\Debug\Hydraulic_Cylinder_Function.cpp.o
LOAD C:\Users\Haris\AppData\Local\Temp\VMBuilds\Main_Siemens_Automation_824MSPe\haeger_haeger_samd_haeger_mcu2\Debug\Initialization_Function.cpp.o
LOAD C:\Users\Haris\AppData\Local\Temp\VMBuilds\Main_Siemens_Automation_824MSPe\haeger_haeger_samd_haeger_mcu2\Debug\Machine_State_Function.cpp.o
LOAD C:\Users\Haris\AppData\Local\Temp\VMBuilds\Main_Siemens_Automation_824MSPe\haeger_haeger_samd_haeger_mcu2\Debug\MAS_Blow_Off_Function.cpp.o
LOAD C:\Users\Haris\AppData\Local\Temp\VMBuilds\Main_Siemens_Automation_824MSPe\haeger_haeger_samd_haeger_mcu2\Debug\MAS_Function.cpp.o
LOAD C:\Users\Haris\AppData\Local\Temp\VMBuilds\Main_Siemens_Automation_824MSPe\haeger_haeger_samd_haeger_mcu2\Debug\MCU_Version_Function.cpp.o
LOAD C:\Users\Haris\AppData\Local\Temp\VMBuilds\Main_Siemens_Automation_824MSPe\haeger_haeger_samd_haeger_mcu2\Debug\Modbus_Communication_Function.cpp.o
LOAD C:\Users\Haris\AppData\Local\Temp\VMBuilds\Main_Siemens_Automation_824MSPe\haeger_haeger_samd_haeger_mcu2\Debug\Non_Conductive_Mode_Function.cpp.o
LOAD C:\Users\Haris\AppData\Local\Temp\VMBuilds\Main_Siemens_Automation_824MSPe\haeger_haeger_samd_haeger_mcu2\Debug\Press_Complete_Function.cpp.o
LOAD C:\Users\Haris\AppData\Local\Temp\VMBuilds\Main_Siemens_Automation_824MSPe\haeger_haeger_samd_haeger_mcu2\Debug\Robot_Communication_Function.cpp.o
LOAD C:\Users\Haris\AppData\Local\Temp\VMBuilds\Main_Siemens_Automation_824MSPe\haeger_haeger_samd_haeger_mcu2\Debug\Safety_Block_Function.cpp.o
LOAD C:\Users\Haris\AppData\Local\Temp\VMBuilds\Main_Siemens_Automation_824MSPe\haeger_haeger_samd_haeger_mcu2\Debug\Safety_Sensor_State_Function.cpp.o
LOAD C:\Users\Haris\AppData\Local\Temp\VMBuilds\Main_Siemens_Automation_824MSPe\haeger_haeger_samd_haeger_mcu2\Debug\Setup_Stroke_Fastener_Length_Function.cpp.o
LOAD C:\Users\Haris\AppData\Local\Temp\VMBuilds\Main_Siemens_Automation_824MSPe\haeger_haeger_samd_haeger_mcu2\Debug\Setup_Stroke_TPS_Function.cpp.o
LOAD C:\Users\Haris\AppData\Local\Temp\VMBuilds\Main_Siemens_Automation_824MSPe\haeger_haeger_samd_haeger_mcu2\Debug\Setup_Stroke_Vacuum_Detection_Function.cpp.o
LOAD C:\Users\Haris\AppData\Local\Temp\VMBuilds\Main_Siemens_Automation_824MSPe\haeger_haeger_samd_haeger_mcu2\Debug\Shuttle_Function.cpp.o
LOAD C:\Users\Haris\AppData\Local\Temp\VMBuilds\Main_Siemens_Automation_824MSPe\haeger_haeger_samd_haeger_mcu2\Debug\Timer_Function.cpp.o
LOAD C:\Users\Haris\AppData\Local\Temp\VMBuilds\Main_Siemens_Automation_824MSPe\haeger_haeger_samd_haeger_mcu2\Debug\Tooling_Protection_Sytem_Function.cpp.o
LOAD C:\Users\Haris\AppData\Local\Temp\VMBuilds\Main_Siemens_Automation_824MSPe\haeger_haeger_samd_haeger_mcu2\Debug\Toolingcontact_Function.cpp.o
LOAD C:\Users\Haris\AppData\Local\Temp\VMBuilds\Main_Siemens_Automation_824MSPe\haeger_haeger_samd_haeger_mcu2\Debug\Top_Of Stroke_Function.cpp.o
LOAD C:\Users\Haris\AppData\Local\Temp\VMBuilds\Main_Siemens_Automation_824MSPe\haeger_haeger_samd_haeger_mcu2\Debug\Up_Travel_Function.cpp.o
LOAD C:\Users\Haris\AppData\Local\Temp\VMBuilds\Main_Siemens_Automation_824MSPe\haeger_haeger_samd_haeger_mcu2\Debug\Vacuum_Generator_Function.cpp.o
LOAD C:\Users\Haris\AppData\Local\Temp\VMBuilds\Main_Siemens_Automation_824MSPe\haeger_haeger_samd_haeger_mcu2\Debug\ResponsiveAnalogRead\ResponsiveAnalogRead.cpp.o
LOAD C:\Users\Haris\AppData\Local\Temp\VMBCore\visualmicro\ed00c25992609daaa7a7b547b702356d\variant\variant.cpp.o
START GROUP
LOAD C:\Users\Haris\Documents\Arduino\hardware\haeger\samd\variants\haeger_mcu2\libarm_cortexM4lf_math.a
LOAD c:/users/haris/appdata/local/arduino15/packages/arduino/tools/arm-none-eabi-gcc/4.8.3-2014q1/bin/../lib/gcc/arm-none-eabi/4.8.3/../../../../arm-none-eabi/lib/armv7e-m/fpu\libm.a
LOAD C:\Users\Haris\AppData\Local\Temp\VMBuilds\Main_Siemens_Automation_824MSPe\haeger_haeger_samd_haeger_mcu2\Debug/core.a
END GROUP
START GROUP
LOAD c:/users/haris/appdata/local/arduino15/packages/arduino/tools/arm-none-eabi-gcc/4.8.3-2014q1/bin/../lib/gcc/arm-none-eabi/4.8.3/armv7e-m/fpu\libgcc.a
LOAD c:/users/haris/appdata/local/arduino15/packages/arduino/tools/arm-none-eabi-gcc/4.8.3-2014q1/bin/../lib/gcc/arm-none-eabi/4.8.3/../../../../arm-none-eabi/lib/armv7e-m/fpu\libc_s.a
END GROUP
START GROUP
LOAD c:/users/haris/appdata/local/arduino15/packages/arduino/tools/arm-none-eabi-gcc/4.8.3-2014q1/bin/../lib/gcc/arm-none-eabi/4.8.3/armv7e-m/fpu\libgcc.a
LOAD c:/users/haris/appdata/local/arduino15/packages/arduino/tools/arm-none-eabi-gcc/4.8.3-2014q1/bin/../lib/gcc/arm-none-eabi/4.8.3/../../../../arm-none-eabi/lib/armv7e-m/fpu\libc_s.a
LOAD c:/users/haris/appdata/local/arduino15/packages/arduino/tools/arm-none-eabi-gcc/4.8.3-2014q1/bin/../lib/gcc/arm-none-eabi/4.8.3/../../../../arm-none-eabi/lib/armv7e-m/fpu\libnosys.a
END GROUP
START GROUP
LOAD c:/users/haris/appdata/local/arduino15/packages/arduino/tools/arm-none-eabi-gcc/4.8.3-2014q1/bin/../lib/gcc/arm-none-eabi/4.8.3/armv7e-m/fpu\libgcc.a
LOAD c:/users/haris/appdata/local/arduino15/packages/arduino/tools/arm-none-eabi-gcc/4.8.3-2014q1/bin/../lib/gcc/arm-none-eabi/4.8.3/../../../../arm-none-eabi/lib/armv7e-m/fpu\libc_s.a
LOAD c:/users/haris/appdata/local/arduino15/packages/arduino/tools/arm-none-eabi-gcc/4.8.3-2014q1/bin/../lib/gcc/arm-none-eabi/4.8.3/../../../../arm-none-eabi/lib/armv7e-m/fpu\libnosys.a
END GROUP
LOAD c:/users/haris/appdata/local/arduino15/packages/arduino/tools/arm-none-eabi-gcc/4.8.3-2014q1/bin/../lib/gcc/arm-none-eabi/4.8.3/armv7e-m/fpu/crtend.o
LOAD c:/users/haris/appdata/local/arduino15/packages/arduino/tools/arm-none-eabi-gcc/4.8.3-2014q1/bin/../lib/gcc/arm-none-eabi/4.8.3/armv7e-m/fpu/crtn.o

.text           0x00004000     0x5c44
                0x00004000                __text_start__ = .
 *(.sketch_boot)
                0x00004000                . = ALIGN (0x4000)
 *(.isr_vector)
 .isr_vector    0x00004000      0x264 C:\Users\Haris\AppData\Local\Temp\VMBuilds\Main_Siemens_Automation_824MSPe\haeger_haeger_samd_haeger_mcu2\Debug/core.a(cortex_handlers.c.o)
                0x00004000                exception_table
 *(.text*)
 .text          0x00004264       0x54 c:/users/haris/appdata/local/arduino15/packages/arduino/tools/arm-none-eabi-gcc/4.8.3-2014q1/bin/../lib/gcc/arm-none-eabi/4.8.3/armv7e-m/fpu/crtbegin.o
 .text._ZNK10ModbusPort9drainReadEv
                0x000042b8       0x12 C:\Users\Haris\AppData\Local\Temp\VMBuilds\Main_Siemens_Automation_824MSPe\haeger_haeger_samd_haeger_mcu2\Debug\Main_Siemens_Automation_824MSPe.cpp.o
                0x000042b8                ModbusPort::drainRead() const
 .text._ZNK10ModbusPort5flushEv
                0x000042ca        0xa C:\Users\Haris\AppData\Local\Temp\VMBuilds\Main_Siemens_Automation_824MSPe\haeger_haeger_samd_haeger_mcu2\Debug\Main_Siemens_Automation_824MSPe.cpp.o
                0x000042ca                ModbusPort::flush() const
 .text._ZNK12ModbusSerialI7Serial_E9availableEv
                0x000042d4        0xc C:\Users\Haris\AppData\Local\Temp\VMBuilds\Main_Siemens_Automation_824MSPe\haeger_haeger_samd_haeger_mcu2\Debug\Main_Siemens_Automation_824MSPe.cpp.o
                0x000042d4                ModbusSerial<Serial_>::available() const
 .text._ZNK12ModbusSerialI7Serial_E4readEv
                0x000042e0        0xc C:\Users\Haris\AppData\Local\Temp\VMBuilds\Main_Siemens_Automation_824MSPe\haeger_haeger_samd_haeger_mcu2\Debug\Main_Siemens_Automation_824MSPe.cpp.o
                0x000042e0                ModbusSerial<Serial_>::read() const
 .text._ZNK12ModbusSerialI7Serial_E5writeEPKhj
                0x000042ec        0xc C:\Users\Haris\AppData\Local\Temp\VMBuilds\Main_Siemens_Automation_824MSPe\haeger_haeger_samd_haeger_mcu2\Debug\Main_Siemens_Automation_824MSPe.cpp.o
                0x000042ec                ModbusSerial<Serial_>::write(unsigned char const*, unsigned int) const
 .text._ZNK12ModbusSerialI7Serial_E10drainWriteEv
                0x000042f8        0xc C:\Users\Haris\AppData\Local\Temp\VMBuilds\Main_Siemens_Automation_824MSPe\haeger_haeger_samd_haeger_mcu2\Debug\Main_Siemens_Automation_824MSPe.cpp.o
                0x000042f8                ModbusSerial<Serial_>::drainWrite() const
 .text._ZNK12ModbusSerialI7Serial_E5beginEm
                0x00004304        0x6 C:\Users\Haris\AppData\Local\Temp\VMBuilds\Main_Siemens_Automation_824MSPe\haeger_haeger_samd_haeger_mcu2\Debug\Main_Siemens_Automation_824MSPe.cpp.o
                0x00004304                ModbusSerial<Serial_>::begin(unsigned long) const
 .text._ZNK12ModbusSerialI7Serial_E5beginEmt
                0x0000430a        0x8 C:\Users\Haris\AppData\Local\Temp\VMBuilds\Main_Siemens_Automation_824MSPe\haeger_haeger_samd_haeger_mcu2\Debug\Main_Siemens_Automation_824MSPe.cpp.o
                0x0000430a                ModbusSerial<Serial_>::begin(unsigned long, unsigned short) const
 .text._ZN6Modbus5beginEP10ModbusPortmt
                0x00004312       0x4a C:\Users\Haris\AppData\Local\Temp\VMBuilds\Main_Siemens_Automation_824MSPe\haeger_haeger_samd_haeger_mcu2\Debug\Main_Siemens_Automation_824MSPe.cpp.o
                0x00004312                Modbus::begin(ModbusPort*, unsigned long, unsigned short)
 .text._ZN6Modbus5beginEP10ModbusPortm
                0x0000435c        0x8 C:\Users\Haris\AppData\Local\Temp\VMBuilds\Main_Siemens_Automation_824MSPe\haeger_haeger_samd_haeger_mcu2\Debug\Main_Siemens_Automation_824MSPe.cpp.o
                0x0000435c                Modbus::begin(ModbusPort*, unsigned long)
 .text._ZN6Modbus11getRxBufferER8ERR_LIST
                0x00004364       0x5c C:\Users\Haris\AppData\Local\Temp\VMBuilds\Main_Siemens_Automation_824MSPe\haeger_haeger_samd_haeger_mcu2\Debug\Main_Siemens_Automation_824MSPe.cpp.o
                0x00004364                Modbus::getRxBuffer(ERR_LIST&)
 .text._ZN6Modbus7calcCRCEh
                0x000043c0       0x3c C:\Users\Haris\AppData\Local\Temp\VMBuilds\Main_Siemens_Automation_824MSPe\haeger_haeger_samd_haeger_mcu2\Debug\Main_Siemens_Automation_824MSPe.cpp.o
                0x000043c0                Modbus::calcCRC(unsigned char)
 .text._ZN6Modbus12sendTxBufferEv
                0x000043fc       0x90 C:\Users\Haris\AppData\Local\Temp\VMBuilds\Main_Siemens_Automation_824MSPe\haeger_haeger_samd_haeger_mcu2\Debug\Main_Siemens_Automation_824MSPe.cpp.o
                0x000043fc                Modbus::sendTxBuffer()
 .text._ZN6Modbus15validateRequestEv
                0x0000448c       0xe0 C:\Users\Haris\AppData\Local\Temp\VMBuilds\Main_Siemens_Automation_824MSPe\haeger_haeger_samd_haeger_mcu2\Debug\Main_Siemens_Automation_824MSPe.cpp.o
                0x0000448c                Modbus::validateRequest()
 .text._ZN6Modbus14buildExceptionEh
                0x0000456c       0x14 C:\Users\Haris\AppData\Local\Temp\VMBuilds\Main_Siemens_Automation_824MSPe\haeger_haeger_samd_haeger_mcu2\Debug\Main_Siemens_Automation_824MSPe.cpp.o
                0x0000456c                Modbus::buildException(unsigned char)
 .text._ZN6Modbus11process_FC1EPth
                0x00004580       0xa4 C:\Users\Haris\AppData\Local\Temp\VMBuilds\Main_Siemens_Automation_824MSPe\haeger_haeger_samd_haeger_mcu2\Debug\Main_Siemens_Automation_824MSPe.cpp.o
                0x00004580                Modbus::process_FC1(unsigned short*, unsigned char)
 .text._ZN6Modbus11process_FC3EPth
                0x00004624       0x6a C:\Users\Haris\AppData\Local\Temp\VMBuilds\Main_Siemens_Automation_824MSPe\haeger_haeger_samd_haeger_mcu2\Debug\Main_Siemens_Automation_824MSPe.cpp.o
                0x00004624                Modbus::process_FC3(unsigned short*, unsigned char)
 .text._ZN6Modbus11process_FC5EPth
                0x0000468e       0x42 C:\Users\Haris\AppData\Local\Temp\VMBuilds\Main_Siemens_Automation_824MSPe\haeger_haeger_samd_haeger_mcu2\Debug\Main_Siemens_Automation_824MSPe.cpp.o
                0x0000468e                Modbus::process_FC5(unsigned short*, unsigned char)
 .text._ZN6Modbus11process_FC6EPth
                0x000046d0       0x2c C:\Users\Haris\AppData\Local\Temp\VMBuilds\Main_Siemens_Automation_824MSPe\haeger_haeger_samd_haeger_mcu2\Debug\Main_Siemens_Automation_824MSPe.cpp.o
                0x000046d0                Modbus::process_FC6(unsigned short*, unsigned char)
 .text._ZN6Modbus12process_FC15EPth
                0x000046fc       0x7a C:\Users\Haris\AppData\Local\Temp\VMBuilds\Main_Siemens_Automation_824MSPe\haeger_haeger_samd_haeger_mcu2\Debug\Main_Siemens_Automation_824MSPe.cpp.o
                0x000046fc                Modbus::process_FC15(unsigned short*, unsigned char)
 .text._ZN6Modbus12process_FC16EPth
                0x00004776       0x4a C:\Users\Haris\AppData\Local\Temp\VMBuilds\Main_Siemens_Automation_824MSPe\haeger_haeger_samd_haeger_mcu2\Debug\Main_Siemens_Automation_824MSPe.cpp.o
                0x00004776                Modbus::process_FC16(unsigned short*, unsigned char)
 .text._ZN6Modbus4pollEPth
                0x000047c0      0x102 C:\Users\Haris\AppData\Local\Temp\VMBuilds\Main_Siemens_Automation_824MSPe\haeger_haeger_samd_haeger_mcu2\Debug\Main_Siemens_Automation_824MSPe.cpp.o
                0x000047c0                Modbus::poll(unsigned short*, unsigned char)
 *fill*         0x000048c2        0x2 
 .text.setup    0x000048c4       0xd4 C:\Users\Haris\AppData\Local\Temp\VMBuilds\Main_Siemens_Automation_824MSPe\haeger_haeger_samd_haeger_mcu2\Debug\Main_Siemens_Automation_824MSPe.cpp.o
                0x000048c4                setup
 .text._Z7Io_Pollv
                0x00004998      0x3d0 C:\Users\Haris\AppData\Local\Temp\VMBuilds\Main_Siemens_Automation_824MSPe\haeger_haeger_samd_haeger_mcu2\Debug\Main_Siemens_Automation_824MSPe.cpp.o
                0x00004998                Io_Poll()
 .text.loop     0x00004d68      0x108 C:\Users\Haris\AppData\Local\Temp\VMBuilds\Main_Siemens_Automation_824MSPe\haeger_haeger_samd_haeger_mcu2\Debug\Main_Siemens_Automation_824MSPe.cpp.o
                0x00004d68                loop
 .text.startup._GLOBAL__sub_I__ZN6ModbusC2Ev
                0x00004e70       0xb0 C:\Users\Haris\AppData\Local\Temp\VMBuilds\Main_Siemens_Automation_824MSPe\haeger_haeger_samd_haeger_mcu2\Debug\Main_Siemens_Automation_824MSPe.cpp.o
 .text._Z14Alarm_Functionv
                0x00004f20        0xc C:\Users\Haris\AppData\Local\Temp\VMBuilds\Main_Siemens_Automation_824MSPe\haeger_haeger_samd_haeger_mcu2\Debug\Alarm_Function.cpp.o
                0x00004f20                Alarm_Function()
 .text._Z24All_At_Position_Functionv
                0x00004f2c      0x10c C:\Users\Haris\AppData\Local\Temp\VMBuilds\Main_Siemens_Automation_824MSPe\haeger_haeger_samd_haeger_mcu2\Debug\All_At_Position_Function.cpp.o
                0x00004f2c                All_At_Position_Function()
 .text._Z24Conductive_Mode_Functionv
                0x00005038       0xe8 C:\Users\Haris\AppData\Local\Temp\VMBuilds\Main_Siemens_Automation_824MSPe\haeger_haeger_samd_haeger_mcu2\Debug\Conductive_Mode_Function.cpp.o
                0x00005038                Conductive_Mode_Function()
 .text._Z19Dwell_Time_Functionv
                0x00005120       0x78 C:\Users\Haris\AppData\Local\Temp\VMBuilds\Main_Siemens_Automation_824MSPe\haeger_haeger_samd_haeger_mcu2\Debug\Dwell_Time_Function.cpp.o
                0x00005120                Dwell_Time_Function()
 .text._Z27Fastener_Detection_Functionv
                0x00005198      0x1fc C:\Users\Haris\AppData\Local\Temp\VMBuilds\Main_Siemens_Automation_824MSPe\haeger_haeger_samd_haeger_mcu2\Debug\Fastener_Detection_Function.cpp.o
                0x00005198                Fastener_Detection_Function()
 .text._Z24Fastener_Length_Functionv
                0x00005394      0x1c4 C:\Users\Haris\AppData\Local\Temp\VMBuilds\Main_Siemens_Automation_824MSPe\haeger_haeger_samd_haeger_mcu2\Debug\Fastener_Length_Function.cpp.o
                0x00005394                Fastener_Length_Function()
 .text._Z22Feed_Fastener_Functionv
                0x00005558       0x94 C:\Users\Haris\AppData\Local\Temp\VMBuilds\Main_Siemens_Automation_824MSPe\haeger_haeger_samd_haeger_mcu2\Debug\Feed_Fastener_Function.cpp.o
                0x00005558                Feed_Fastener_Function()
 .text._Z18Footpedal_Functionv
                0x000055ec      0x160 C:\Users\Haris\AppData\Local\Temp\VMBuilds\Main_Siemens_Automation_824MSPe\haeger_haeger_samd_haeger_mcu2\Debug\Footpedal_Function.cpp.o
                0x000055ec                Footpedal_Function()
 .text._Z27Hydraulic_Cylinder_Functionv
                0x0000574c      0x22c C:\Users\Haris\AppData\Local\Temp\VMBuilds\Main_Siemens_Automation_824MSPe\haeger_haeger_samd_haeger_mcu2\Debug\Hydraulic_Cylinder_Function.cpp.o
                0x0000574c                Hydraulic_Cylinder_Function()
 .text._Z23Initialization_Functionv
                0x00005978       0x20 C:\Users\Haris\AppData\Local\Temp\VMBuilds\Main_Siemens_Automation_824MSPe\haeger_haeger_samd_haeger_mcu2\Debug\Initialization_Function.cpp.o
                0x00005978                Initialization_Function()
 .text._Z22Machine_State_Functionv
                0x00005998       0xac C:\Users\Haris\AppData\Local\Temp\VMBuilds\Main_Siemens_Automation_824MSPe\haeger_haeger_samd_haeger_mcu2\Debug\Machine_State_Function.cpp.o
                0x00005998                Machine_State_Function()
 .text._Z21MAS_Blow_Off_Functionv
                0x00005a44       0x88 C:\Users\Haris\AppData\Local\Temp\VMBuilds\Main_Siemens_Automation_824MSPe\haeger_haeger_samd_haeger_mcu2\Debug\MAS_Blow_Off_Function.cpp.o
                0x00005a44                MAS_Blow_Off_Function()
 .text._Z12MAS_Functionv
                0x00005acc       0xa8 C:\Users\Haris\AppData\Local\Temp\VMBuilds\Main_Siemens_Automation_824MSPe\haeger_haeger_samd_haeger_mcu2\Debug\MAS_Function.cpp.o
                0x00005acc                MAS_Function()
 .text._Z20MCU_Version_Functionv
                0x00005b74        0xc C:\Users\Haris\AppData\Local\Temp\VMBuilds\Main_Siemens_Automation_824MSPe\haeger_haeger_samd_haeger_mcu2\Debug\MCU_Version_Function.cpp.o
                0x00005b74                MCU_Version_Function()
 .text._Z29Modbus_Communication_Functionv
                0x00005b80       0x90 C:\Users\Haris\AppData\Local\Temp\VMBuilds\Main_Siemens_Automation_824MSPe\haeger_haeger_samd_haeger_mcu2\Debug\Modbus_Communication_Function.cpp.o
                0x00005b80                Modbus_Communication_Function()
 .text._Z28Non_Conductive_Mode_Functionv
                0x00005c10       0x78 C:\Users\Haris\AppData\Local\Temp\VMBuilds\Main_Siemens_Automation_824MSPe\haeger_haeger_samd_haeger_mcu2\Debug\Non_Conductive_Mode_Function.cpp.o
                0x00005c10                Non_Conductive_Mode_Function()
 .text._Z23Press_Complete_Functionv
                0x00005c88       0xa8 C:\Users\Haris\AppData\Local\Temp\VMBuilds\Main_Siemens_Automation_824MSPe\haeger_haeger_samd_haeger_mcu2\Debug\Press_Complete_Function.cpp.o
                0x00005c88                Press_Complete_Function()
 .text._Z28Robot_Communication_Functionv
                0x00005d30       0xb8 C:\Users\Haris\AppData\Local\Temp\VMBuilds\Main_Siemens_Automation_824MSPe\haeger_haeger_samd_haeger_mcu2\Debug\Robot_Communication_Function.cpp.o
                0x00005d30                Robot_Communication_Function()
 .text._Z28Safety_Sensor_State_Functionv
                0x00005de8       0xe4 C:\Users\Haris\AppData\Local\Temp\VMBuilds\Main_Siemens_Automation_824MSPe\haeger_haeger_samd_haeger_mcu2\Debug\Safety_Sensor_State_Function.cpp.o
                0x00005de8                Safety_Sensor_State_Function()
 .text._Z37Setup_Stroke_Fastener_Length_Functionv
                0x00005ecc       0x78 C:\Users\Haris\AppData\Local\Temp\VMBuilds\Main_Siemens_Automation_824MSPe\haeger_haeger_samd_haeger_mcu2\Debug\Setup_Stroke_Fastener_Length_Function.cpp.o
                0x00005ecc                Setup_Stroke_Fastener_Length_Function()
 .text._Z25Setup_Stroke_TPS_Functionv
                0x00005f44       0xd0 C:\Users\Haris\AppData\Local\Temp\VMBuilds\Main_Siemens_Automation_824MSPe\haeger_haeger_samd_haeger_mcu2\Debug\Setup_Stroke_TPS_Function.cpp.o
                0x00005f44                Setup_Stroke_TPS_Function()
 .text._Z38Setup_Stroke_Vacuum_Detection_Functionv
                0x00006014      0x1c4 C:\Users\Haris\AppData\Local\Temp\VMBuilds\Main_Siemens_Automation_824MSPe\haeger_haeger_samd_haeger_mcu2\Debug\Setup_Stroke_Vacuum_Detection_Function.cpp.o
                0x00006014                Setup_Stroke_Vacuum_Detection_Function()
 .text._Z16Shuttle_Functionv
                0x000061d8      0x254 C:\Users\Haris\AppData\Local\Temp\VMBuilds\Main_Siemens_Automation_824MSPe\haeger_haeger_samd_haeger_mcu2\Debug\Shuttle_Function.cpp.o
                0x000061d8                Shuttle_Function()
 .text._Z14Timer_Functionv
                0x0000642c       0x54 C:\Users\Haris\AppData\Local\Temp\VMBuilds\Main_Siemens_Automation_824MSPe\haeger_haeger_samd_haeger_mcu2\Debug\Timer_Function.cpp.o
                0x0000642c                Timer_Function()
 .text._Z34Tooling_Protection_System_Functionv
                0x00006480      0x100 C:\Users\Haris\AppData\Local\Temp\VMBuilds\Main_Siemens_Automation_824MSPe\haeger_haeger_samd_haeger_mcu2\Debug\Tooling_Protection_Sytem_Function.cpp.o
                0x00006480                Tooling_Protection_System_Function()
 .text._Z23Toolingcontact_Functionv
                0x00006580       0x1c C:\Users\Haris\AppData\Local\Temp\VMBuilds\Main_Siemens_Automation_824MSPe\haeger_haeger_samd_haeger_mcu2\Debug\Toolingcontact_Function.cpp.o
                0x00006580                Toolingcontact_Function()
 .text._Z12TOS_Functionv
                0x0000659c       0x14 C:\Users\Haris\AppData\Local\Temp\VMBuilds\Main_Siemens_Automation_824MSPe\haeger_haeger_samd_haeger_mcu2\Debug\Top_Of Stroke_Function.cpp.o
                0x0000659c                TOS_Function()
 .text._Z18Up_Travel_Functionv
                0x000065b0       0x74 C:\Users\Haris\AppData\Local\Temp\VMBuilds\Main_Siemens_Automation_824MSPe\haeger_haeger_samd_haeger_mcu2\Debug\Up_Travel_Function.cpp.o
                0x000065b0                Up_Travel_Function()
 .text._Z25Vacuum_Generator_Functionv
                0x00006624       0x7c C:\Users\Haris\AppData\Local\Temp\VMBuilds\Main_Siemens_Automation_824MSPe\haeger_haeger_samd_haeger_mcu2\Debug\Vacuum_Generator_Function.cpp.o
                0x00006624                Vacuum_Generator_Function()
 .text._ZN20ResponsiveAnalogRead9snapCurveEf
                0x000066a0       0x5c C:\Users\Haris\AppData\Local\Temp\VMBuilds\Main_Siemens_Automation_824MSPe\haeger_haeger_samd_haeger_mcu2\Debug\ResponsiveAnalogRead\ResponsiveAnalogRead.cpp.o
                0x000066a0                ResponsiveAnalogRead::snapCurve(float)
 *fill*         0x000066fc        0x4 
 .text._ZN20ResponsiveAnalogRead18getResponsiveValueEi
                0x00006700      0x148 C:\Users\Haris\AppData\Local\Temp\VMBuilds\Main_Siemens_Automation_824MSPe\haeger_haeger_samd_haeger_mcu2\Debug\ResponsiveAnalogRead\ResponsiveAnalogRead.cpp.o
                0x00006700                ResponsiveAnalogRead::getResponsiveValue(int)
 .text._ZN20ResponsiveAnalogRead6updateEi
                0x00006848       0x1c C:\Users\Haris\AppData\Local\Temp\VMBuilds\Main_Siemens_Automation_824MSPe\haeger_haeger_samd_haeger_mcu2\Debug\ResponsiveAnalogRead\ResponsiveAnalogRead.cpp.o
                0x00006848                ResponsiveAnalogRead::update(int)
 .text._ZN20ResponsiveAnalogRead6updateEv
                0x00006864       0x18 C:\Users\Haris\AppData\Local\Temp\VMBuilds\Main_Siemens_Automation_824MSPe\haeger_haeger_samd_haeger_mcu2\Debug\ResponsiveAnalogRead\ResponsiveAnalogRead.cpp.o
                0x00006864                ResponsiveAnalogRead::update()
 .text._ZN20ResponsiveAnalogRead17setSnapMultiplierEf
                0x0000687c       0x30 C:\Users\Haris\AppData\Local\Temp\VMBuilds\Main_Siemens_Automation_824MSPe\haeger_haeger_samd_haeger_mcu2\Debug\ResponsiveAnalogRead\ResponsiveAnalogRead.cpp.o
                0x0000687c                ResponsiveAnalogRead::setSnapMultiplier(float)
 .text._ZN20ResponsiveAnalogRead5beginEibf
                0x000068ac       0x36 C:\Users\Haris\AppData\Local\Temp\VMBuilds\Main_Siemens_Automation_824MSPe\haeger_haeger_samd_haeger_mcu2\Debug\ResponsiveAnalogRead\ResponsiveAnalogRead.cpp.o
                0x000068ac                ResponsiveAnalogRead::begin(int, bool, float)
 *fill*         0x000068e2        0x2 
 .text.SERCOM5_0_Handler
                0x000068e4        0xc C:\Users\Haris\AppData\Local\Temp\VMBCore\visualmicro\ed00c25992609daaa7a7b547b702356d\variant\variant.cpp.o
                0x000068e4                SERCOM5_0_Handler
 .text.SERCOM5_1_Handler
                0x000068f0        0xc C:\Users\Haris\AppData\Local\Temp\VMBCore\visualmicro\ed00c25992609daaa7a7b547b702356d\variant\variant.cpp.o
                0x000068f0                SERCOM5_1_Handler
 .text.SERCOM5_2_Handler
                0x000068fc        0xc C:\Users\Haris\AppData\Local\Temp\VMBCore\visualmicro\ed00c25992609daaa7a7b547b702356d\variant\variant.cpp.o
                0x000068fc                SERCOM5_2_Handler
 .text.SERCOM5_3_Handler
                0x00006908        0xc C:\Users\Haris\AppData\Local\Temp\VMBCore\visualmicro\ed00c25992609daaa7a7b547b702356d\variant\variant.cpp.o
                0x00006908                SERCOM5_3_Handler
 .text.startup._GLOBAL__sub_I_g_APinDescription
                0x00006914       0x80 C:\Users\Haris\AppData\Local\Temp\VMBCore\visualmicro\ed00c25992609daaa7a7b547b702356d\variant\variant.cpp.o
 .text.Dummy_Handler
                0x00006994        0x2 C:\Users\Haris\AppData\Local\Temp\VMBuilds\Main_Siemens_Automation_824MSPe\haeger_haeger_samd_haeger_mcu2\Debug/core.a(cortex_handlers.c.o)
                0x00006994                EIC_5_Handler
                0x00006994                SERCOM0_2_Handler
                0x00006994                DebugMon_Handler
                0x00006994                EIC_13_Handler
                0x00006994                EVSYS_0_Handler
                0x00006994                TCC1_3_Handler
                0x00006994                DAC_3_Handler
                0x00006994                TRNG_Handler
                0x00006994                HardFault_Handler
                0x00006994                PDEC_2_Handler
                0x00006994                EIC_4_Handler
                0x00006994                AC_Handler
                0x00006994                SERCOM3_1_Handler
                0x00006994                TCC2_3_Handler
                0x00006994                SERCOM3_2_Handler
                0x00006994                PendSV_Handler
                0x00006994                NMI_Handler
                0x00006994                TC7_Handler
                0x00006994                ADC1_1_Handler
                0x00006994                EVSYS_3_Handler
                0x00006994                PDEC_0_Handler
                0x00006994                QSPI_Handler
                0x00006994                TCC0_0_Handler
                0x00006994                EIC_3_Handler
                0x00006994                TAL_0_Handler
                0x00006994                DAC_2_Handler
                0x00006994                SERCOM0_0_Handler
                0x00006994                RTC_Handler
                0x00006994                UsageFault_Handler
                0x00006994                SERCOM4_0_Handler
                0x00006994                EIC_10_Handler
                0x00006994                SERCOM0_3_Handler
                0x00006994                EIC_11_Handler
                0x00006994                EIC_9_Handler
                0x00006994                OSC32KCTRL_Handler
                0x00006994                TCC2_1_Handler
                0x00006994                SUPC_1_Handler
                0x00006994                TCC0_5_Handler
                0x00006994                TCC0_6_Handler
                0x00006994                SERCOM6_2_Handler
                0x00006994                EVSYS_1_Handler
                0x00006994                TCC1_4_Handler
                0x00006994                TC6_Handler
                0x00006994                DMAC_0_Handler
                0x00006994                WDT_Handler
                0x00006994                EIC_8_Handler
                0x00006994                EIC_15_Handler
                0x00006994                SERCOM6_0_Handler
                0x00006994                TC4_Handler
                0x00006994                TC1_Handler
                0x00006994                OSCCTRL_4_Handler
                0x00006994                SERCOM4_3_Handler
                0x00006994                EIC_12_Handler
                0x00006994                DMAC_4_Handler
                0x00006994                TCC4_2_Handler
                0x00006994                PAC_Handler
                0x00006994                TCC1_0_Handler
                0x00006994                OSCCTRL_0_Handler
                0x00006994                EIC_0_Handler
                0x00006994                OSCCTRL_3_Handler
                0x00006994                SERCOM4_1_Handler
                0x00006994                TC3_Handler
                0x00006994                Dummy_Handler
                0x00006994                TCC3_0_Handler
                0x00006994                TCC2_2_Handler
                0x00006994                TCC1_1_Handler
                0x00006994                DMAC_2_Handler
                0x00006994                ADC0_0_Handler
                0x00006994                SERCOM0_1_Handler
                0x00006994                OSCCTRL_2_Handler
                0x00006994                ADC1_0_Handler
                0x00006994                TCC1_2_Handler
                0x00006994                SERCOM7_1_Handler
                0x00006994                PM_Handler
                0x00006994                SERCOM6_3_Handler
                0x00006994                SERCOM2_3_Handler
                0x00006994                DAC_4_Handler
                0x00006994                TCC3_2_Handler
                0x00006994                SERCOM7_0_Handler
                0x00006994                TCC0_2_Handler
                0x00006994                DMAC_1_Handler
                0x00006994                TCC4_0_Handler
                0x00006994                SERCOM7_3_Handler
                0x00006994                SDHC1_Handler
                0x00006994                SERCOM7_2_Handler
                0x00006994                TCC2_0_Handler
                0x00006994                PDEC_1_Handler
                0x00006994                MemManage_Handler
                0x00006994                TCC4_1_Handler
                0x00006994                SVC_Handler
                0x00006994                SERCOM6_1_Handler
                0x00006994                SDHC0_Handler
                0x00006994                SERCOM1_1_Handler
                0x00006994                I2S_Handler
                0x00006994                EIC_2_Handler
                0x00006994                PCC_Handler
                0x00006994                DAC_0_Handler
                0x00006994                TCC0_1_Handler
                0x00006994                SERCOM1_3_Handler
                0x00006994                EIC_6_Handler
                0x00006994                OSCCTRL_1_Handler
                0x00006994                SERCOM1_0_Handler
                0x00006994                PUKCC_Handler
                0x00006994                SERCOM2_1_Handler
                0x00006994                SERCOM1_2_Handler
                0x00006994                SERCOM3_0_Handler
                0x00006994                EIC_1_Handler
                0x00006994                SERCOM4_2_Handler
                0x00006994                EVSYS_4_Handler
                0x00006994                EIC_7_Handler
                0x00006994                NVMCTRL_1_Handler
                0x00006994                ADC0_1_Handler
                0x00006994                SERCOM3_3_Handler
                0x00006994                SERCOM2_2_Handler
                0x00006994                TCC3_1_Handler
                0x00006994                EIC_14_Handler
                0x00006994                DAC_1_Handler
                0x00006994                NVMCTRL_0_Handler
                0x00006994                TAL_1_Handler
                0x00006994                MCLK_Handler
                0x00006994                EVSYS_2_Handler
                0x00006994                SUPC_0_Handler
                0x00006994                BusFault_Handler
                0x00006994                FREQM_Handler
                0x00006994                TC0_Handler
                0x00006994                TCC0_3_Handler
                0x00006994                DMAC_3_Handler
                0x00006994                TCC0_4_Handler
                0x00006994                RAMECC_Handler
                0x00006994                TC5_Handler
                0x00006994                SERCOM2_0_Handler
                0x00006994                ICM_Handler
                0x00006994                AES_Handler
 *fill*         0x00006996        0x2 
 .text.USB_0_Handler
                0x00006998       0x10 C:\Users\Haris\AppData\Local\Temp\VMBuilds\Main_Siemens_Automation_824MSPe\haeger_haeger_samd_haeger_mcu2\Debug/core.a(cortex_handlers.c.o)
                0x00006998                USB_0_Handler
 .text.USB_1_Handler
                0x000069a8       0x10 C:\Users\Haris\AppData\Local\Temp\VMBuilds\Main_Siemens_Automation_824MSPe\haeger_haeger_samd_haeger_mcu2\Debug/core.a(cortex_handlers.c.o)
                0x000069a8                USB_1_Handler
 .text.USB_2_Handler
                0x000069b8       0x10 C:\Users\Haris\AppData\Local\Temp\VMBuilds\Main_Siemens_Automation_824MSPe\haeger_haeger_samd_haeger_mcu2\Debug/core.a(cortex_handlers.c.o)
                0x000069b8                USB_2_Handler
 .text.USB_3_Handler
                0x000069c8       0x10 C:\Users\Haris\AppData\Local\Temp\VMBuilds\Main_Siemens_Automation_824MSPe\haeger_haeger_samd_haeger_mcu2\Debug/core.a(cortex_handlers.c.o)
                0x000069c8                USB_3_Handler
 .text.Reset_Handler
                0x000069d8       0x74 C:\Users\Haris\AppData\Local\Temp\VMBuilds\Main_Siemens_Automation_824MSPe\haeger_haeger_samd_haeger_mcu2\Debug/core.a(cortex_handlers.c.o)
                0x000069d8                Reset_Handler
 .text.SysTick_Handler
                0x00006a4c       0x12 C:\Users\Haris\AppData\Local\Temp\VMBuilds\Main_Siemens_Automation_824MSPe\haeger_haeger_samd_haeger_mcu2\Debug/core.a(cortex_handlers.c.o)
                0x00006a4c                SysTick_Handler
 *fill*         0x00006a5e        0x2 
 .text.USB_SetHandler
                0x00006a60        0xc C:\Users\Haris\AppData\Local\Temp\VMBuilds\Main_Siemens_Automation_824MSPe\haeger_haeger_samd_haeger_mcu2\Debug/core.a(cortex_handlers.c.o)
                0x00006a60                USB_SetHandler
 .text.millis   0x00006a6c        0xc C:\Users\Haris\AppData\Local\Temp\VMBuilds\Main_Siemens_Automation_824MSPe\haeger_haeger_samd_haeger_mcu2\Debug/core.a(delay.c.o)
                0x00006a6c                millis
 .text.delay    0x00006a78       0x20 C:\Users\Haris\AppData\Local\Temp\VMBuilds\Main_Siemens_Automation_824MSPe\haeger_haeger_samd_haeger_mcu2\Debug/core.a(delay.c.o)
                0x00006a78                delay
 .text.SysTick_DefaultHandler
                0x00006a98       0x10 C:\Users\Haris\AppData\Local\Temp\VMBuilds\Main_Siemens_Automation_824MSPe\haeger_haeger_samd_haeger_mcu2\Debug/core.a(delay.c.o)
                0x00006a98                SysTick_DefaultHandler
 .text.__empty  0x00006aa8        0x2 C:\Users\Haris\AppData\Local\Temp\VMBuilds\Main_Siemens_Automation_824MSPe\haeger_haeger_samd_haeger_mcu2\Debug/core.a(hooks.c.o)
                0x00006aa8                yield
 .text.__false  0x00006aaa        0x4 C:\Users\Haris\AppData\Local\Temp\VMBuilds\Main_Siemens_Automation_824MSPe\haeger_haeger_samd_haeger_mcu2\Debug/core.a(hooks.c.o)
                0x00006aaa                sysTickHook
 *fill*         0x00006aae        0x2 
 .text.SystemInit
                0x00006ab0      0x174 C:\Users\Haris\AppData\Local\Temp\VMBuilds\Main_Siemens_Automation_824MSPe\haeger_haeger_samd_haeger_mcu2\Debug/core.a(startup.c.o)
                0x00006ab0                SystemInit
 .text.analogReadResolution
                0x00006c24       0x48 C:\Users\Haris\AppData\Local\Temp\VMBuilds\Main_Siemens_Automation_824MSPe\haeger_haeger_samd_haeger_mcu2\Debug/core.a(wiring_analog.c.o)
                0x00006c24                analogReadResolution
 .text.analogWriteResolution
                0x00006c6c        0xc C:\Users\Haris\AppData\Local\Temp\VMBuilds\Main_Siemens_Automation_824MSPe\haeger_haeger_samd_haeger_mcu2\Debug/core.a(wiring_analog.c.o)
                0x00006c6c                analogWriteResolution
 .text.analogReference
                0x00006c78       0x34 C:\Users\Haris\AppData\Local\Temp\VMBuilds\Main_Siemens_Automation_824MSPe\haeger_haeger_samd_haeger_mcu2\Debug/core.a(wiring_analog.c.o)
                0x00006c78                analogReference
 .text.analogRead
                0x00006cac      0x12c C:\Users\Haris\AppData\Local\Temp\VMBuilds\Main_Siemens_Automation_824MSPe\haeger_haeger_samd_haeger_mcu2\Debug/core.a(wiring_analog.c.o)
                0x00006cac                analogRead
 .text.analogWrite
                0x00006dd8      0x2d8 C:\Users\Haris\AppData\Local\Temp\VMBuilds\Main_Siemens_Automation_824MSPe\haeger_haeger_samd_haeger_mcu2\Debug/core.a(wiring_analog.c.o)
                0x00006dd8                analogWrite
 .text.pinMode  0x000070b0       0xb8 C:\Users\Haris\AppData\Local\Temp\VMBuilds\Main_Siemens_Automation_824MSPe\haeger_haeger_samd_haeger_mcu2\Debug/core.a(wiring_digital.c.o)
                0x000070b0                pinMode
 .text.digitalWrite
                0x00007168       0x5c C:\Users\Haris\AppData\Local\Temp\VMBuilds\Main_Siemens_Automation_824MSPe\haeger_haeger_samd_haeger_mcu2\Debug/core.a(wiring_digital.c.o)
                0x00007168                digitalWrite
 .text.digitalRead
                0x000071c4       0x30 C:\Users\Haris\AppData\Local\Temp\VMBuilds\Main_Siemens_Automation_824MSPe\haeger_haeger_samd_haeger_mcu2\Debug/core.a(wiring_digital.c.o)
                0x000071c4                digitalRead
 .text.pinPeripheral
                0x000071f4       0xac C:\Users\Haris\AppData\Local\Temp\VMBuilds\Main_Siemens_Automation_824MSPe\haeger_haeger_samd_haeger_mcu2\Debug/core.a(wiring_private.c.o)
                0x000071f4                pinPeripheral
 .text._Z11initVariantv
                0x000072a0        0x2 C:\Users\Haris\AppData\Local\Temp\VMBuilds\Main_Siemens_Automation_824MSPe\haeger_haeger_samd_haeger_mcu2\Debug/core.a(main.cpp.o)
                0x000072a0                initVariant()
 *fill*         0x000072a2        0x2 
 .text.startup.main
                0x000072a4       0x3c C:\Users\Haris\AppData\Local\Temp\VMBuilds\Main_Siemens_Automation_824MSPe\haeger_haeger_samd_haeger_mcu2\Debug/core.a(main.cpp.o)
                0x000072a4                main
 .text.initiateReset
                0x000072e0        0xc C:\Users\Haris\AppData\Local\Temp\VMBuilds\Main_Siemens_Automation_824MSPe\haeger_haeger_samd_haeger_mcu2\Debug/core.a(Reset.cpp.o)
                0x000072e0                initiateReset
 .text.cancelReset
                0x000072ec       0x10 C:\Users\Haris\AppData\Local\Temp\VMBuilds\Main_Siemens_Automation_824MSPe\haeger_haeger_samd_haeger_mcu2\Debug/core.a(Reset.cpp.o)
                0x000072ec                cancelReset
 .text.tickReset
                0x000072fc       0x48 C:\Users\Haris\AppData\Local\Temp\VMBuilds\Main_Siemens_Automation_824MSPe\haeger_haeger_samd_haeger_mcu2\Debug/core.a(Reset.cpp.o)
                0x000072fc                tickReset
 .text._ZN6SERCOMC2EP6Sercom
                0x00007344        0x4 C:\Users\Haris\AppData\Local\Temp\VMBuilds\Main_Siemens_Automation_824MSPe\haeger_haeger_samd_haeger_mcu2\Debug/core.a(SERCOM.cpp.o)
                0x00007344                SERCOM::SERCOM(Sercom*)
                0x00007344                SERCOM::SERCOM(Sercom*)
 .text._ZN6SERCOM9initFrameE18SercomUartCharSize15SercomDataOrder16SercomParityMode19SercomNumberStopBit
                0x00007348       0x34 C:\Users\Haris\AppData\Local\Temp\VMBuilds\Main_Siemens_Automation_824MSPe\haeger_haeger_samd_haeger_mcu2\Debug/core.a(SERCOM.cpp.o)
                0x00007348                SERCOM::initFrame(SercomUartCharSize, SercomDataOrder, SercomParityMode, SercomNumberStopBit)
 .text._ZN6SERCOM8initPadsE15SercomUartTXPad11SercomRXPad
                0x0000737c       0x24 C:\Users\Haris\AppData\Local\Temp\VMBuilds\Main_Siemens_Automation_824MSPe\haeger_haeger_samd_haeger_mcu2\Debug/core.a(SERCOM.cpp.o)
                0x0000737c                SERCOM::initPads(SercomUartTXPad, SercomRXPad)
 .text._ZN6SERCOM9resetUARTEv
                0x000073a0       0x1a C:\Users\Haris\AppData\Local\Temp\VMBuilds\Main_Siemens_Automation_824MSPe\haeger_haeger_samd_haeger_mcu2\Debug/core.a(SERCOM.cpp.o)
                0x000073a0                SERCOM::resetUART()
 .text._ZN6SERCOM10enableUARTEv
                0x000073ba       0x14 C:\Users\Haris\AppData\Local\Temp\VMBuilds\Main_Siemens_Automation_824MSPe\haeger_haeger_samd_haeger_mcu2\Debug/core.a(SERCOM.cpp.o)
                0x000073ba                SERCOM::enableUART()
 .text._ZN6SERCOM9flushUARTEv
                0x000073ce       0x14 C:\Users\Haris\AppData\Local\Temp\VMBuilds\Main_Siemens_Automation_824MSPe\haeger_haeger_samd_haeger_mcu2\Debug/core.a(SERCOM.cpp.o)
                0x000073ce                SERCOM::flushUART()
 .text._ZN6SERCOM15clearStatusUARTEv
                0x000073e2        0x8 C:\Users\Haris\AppData\Local\Temp\VMBuilds\Main_Siemens_Automation_824MSPe\haeger_haeger_samd_haeger_mcu2\Debug/core.a(SERCOM.cpp.o)
                0x000073e2                SERCOM::clearStatusUART()
 .text._ZN6SERCOM17availableDataUARTEv
                0x000073ea        0xa C:\Users\Haris\AppData\Local\Temp\VMBuilds\Main_Siemens_Automation_824MSPe\haeger_haeger_samd_haeger_mcu2\Debug/core.a(SERCOM.cpp.o)
                0x000073ea                SERCOM::availableDataUART()
 .text._ZN6SERCOM11isUARTErrorEv
                0x000073f4        0x8 C:\Users\Haris\AppData\Local\Temp\VMBuilds\Main_Siemens_Automation_824MSPe\haeger_haeger_samd_haeger_mcu2\Debug/core.a(SERCOM.cpp.o)
                0x000073f4                SERCOM::isUARTError()
 .text._ZN6SERCOM20acknowledgeUARTErrorEv
                0x000073fc        0xc C:\Users\Haris\AppData\Local\Temp\VMBuilds\Main_Siemens_Automation_824MSPe\haeger_haeger_samd_haeger_mcu2\Debug/core.a(SERCOM.cpp.o)
                0x000073fc                SERCOM::acknowledgeUARTError()
 .text._ZN6SERCOM12readDataUARTEv
                0x00007408        0x8 C:\Users\Haris\AppData\Local\Temp\VMBuilds\Main_Siemens_Automation_824MSPe\haeger_haeger_samd_haeger_mcu2\Debug/core.a(SERCOM.cpp.o)
                0x00007408                SERCOM::readDataUART()
 .text._ZN6SERCOM13writeDataUARTEh
                0x00007410        0xe C:\Users\Haris\AppData\Local\Temp\VMBuilds\Main_Siemens_Automation_824MSPe\haeger_haeger_samd_haeger_mcu2\Debug/core.a(SERCOM.cpp.o)
                0x00007410                SERCOM::writeDataUART(unsigned char)
 *fill*         0x0000741e        0x2 
 .text._ZN6SERCOM13initClockNVICEv
                0x00007420      0x1c8 C:\Users\Haris\AppData\Local\Temp\VMBuilds\Main_Siemens_Automation_824MSPe\haeger_haeger_samd_haeger_mcu2\Debug/core.a(SERCOM.cpp.o)
                0x00007420                SERCOM::initClockNVIC()
 .text._ZN6SERCOM8initUARTE14SercomUartMode20SercomUartSampleRatem
                0x000075e8       0x5c C:\Users\Haris\AppData\Local\Temp\VMBuilds\Main_Siemens_Automation_824MSPe\haeger_haeger_samd_haeger_mcu2\Debug/core.a(SERCOM.cpp.o)
                0x000075e8                SERCOM::initUART(SercomUartMode, SercomUartSampleRate, unsigned long)
 .text._ZN4UartcvbEv
                0x00007644        0x4 C:\Users\Haris\AppData\Local\Temp\VMBuilds\Main_Siemens_Automation_824MSPe\haeger_haeger_samd_haeger_mcu2\Debug/core.a(Uart.cpp.o)
                0x00007644                Uart::operator bool()
 .text._ZN4Uart5beginEm
                0x00007648        0xe C:\Users\Haris\AppData\Local\Temp\VMBuilds\Main_Siemens_Automation_824MSPe\haeger_haeger_samd_haeger_mcu2\Debug/core.a(Uart.cpp.o)
                0x00007648                Uart::begin(unsigned long)
 .text._ZN4Uart3endEv
                0x00007656       0x16 C:\Users\Haris\AppData\Local\Temp\VMBuilds\Main_Siemens_Automation_824MSPe\haeger_haeger_samd_haeger_mcu2\Debug/core.a(Uart.cpp.o)
                0x00007656                Uart::end()
 .text._ZN4Uart5flushEv
                0x0000766c        0x6 C:\Users\Haris\AppData\Local\Temp\VMBuilds\Main_Siemens_Automation_824MSPe\haeger_haeger_samd_haeger_mcu2\Debug/core.a(Uart.cpp.o)
                0x0000766c                Uart::flush()
 .text._ZN4Uart9availableEv
                0x00007672        0x6 C:\Users\Haris\AppData\Local\Temp\VMBuilds\Main_Siemens_Automation_824MSPe\haeger_haeger_samd_haeger_mcu2\Debug/core.a(Uart.cpp.o)
                0x00007672                Uart::available()
 .text._ZN4Uart4peekEv
                0x00007678        0x6 C:\Users\Haris\AppData\Local\Temp\VMBuilds\Main_Siemens_Automation_824MSPe\haeger_haeger_samd_haeger_mcu2\Debug/core.a(Uart.cpp.o)
                0x00007678                Uart::peek()
 .text._ZN4Uart4readEv
                0x0000767e        0x6 C:\Users\Haris\AppData\Local\Temp\VMBuilds\Main_Siemens_Automation_824MSPe\haeger_haeger_samd_haeger_mcu2\Debug/core.a(Uart.cpp.o)
                0x0000767e                Uart::read()
 .text._ZN4Uart5writeEh
                0x00007684        0xc C:\Users\Haris\AppData\Local\Temp\VMBuilds\Main_Siemens_Automation_824MSPe\haeger_haeger_samd_haeger_mcu2\Debug/core.a(Uart.cpp.o)
                0x00007684                Uart::write(unsigned char)
 .text._ZN4UartC2EP6SERCOMhh11SercomRXPad15SercomUartTXPad
                0x00007690       0x40 C:\Users\Haris\AppData\Local\Temp\VMBuilds\Main_Siemens_Automation_824MSPe\haeger_haeger_samd_haeger_mcu2\Debug/core.a(Uart.cpp.o)
                0x00007690                Uart::Uart(SERCOM*, unsigned char, unsigned char, SercomRXPad, SercomUartTXPad)
                0x00007690                Uart::Uart(SERCOM*, unsigned char, unsigned char, SercomRXPad, SercomUartTXPad)
 .text._ZN4Uart10IrqHandlerEv
                0x000076d0       0x36 C:\Users\Haris\AppData\Local\Temp\VMBuilds\Main_Siemens_Automation_824MSPe\haeger_haeger_samd_haeger_mcu2\Debug/core.a(Uart.cpp.o)
                0x000076d0                Uart::IrqHandler()
 .text._ZN4Uart16extractNbStopBitEt
                0x00007706        0xe C:\Users\Haris\AppData\Local\Temp\VMBuilds\Main_Siemens_Automation_824MSPe\haeger_haeger_samd_haeger_mcu2\Debug/core.a(Uart.cpp.o)
                0x00007706                Uart::extractNbStopBit(unsigned short)
 .text._ZN4Uart15extractCharSizeEt
                0x00007714       0x24 C:\Users\Haris\AppData\Local\Temp\VMBuilds\Main_Siemens_Automation_824MSPe\haeger_haeger_samd_haeger_mcu2\Debug/core.a(Uart.cpp.o)
                0x00007714                Uart::extractCharSize(unsigned short)
 .text._ZN4Uart13extractParityEt
                0x00007738       0x16 C:\Users\Haris\AppData\Local\Temp\VMBuilds\Main_Siemens_Automation_824MSPe\haeger_haeger_samd_haeger_mcu2\Debug/core.a(Uart.cpp.o)
                0x00007738                Uart::extractParity(unsigned short)
 *fill*         0x0000774e        0x2 
 .text._ZN4Uart5beginEmt
                0x00007750       0x84 C:\Users\Haris\AppData\Local\Temp\VMBuilds\Main_Siemens_Automation_824MSPe\haeger_haeger_samd_haeger_mcu2\Debug/core.a(Uart.cpp.o)
                0x00007750                Uart::begin(unsigned long, unsigned short)
 .text._Z8makeWordhh
                0x000077d4        0x6 C:\Users\Haris\AppData\Local\Temp\VMBuilds\Main_Siemens_Automation_824MSPe\haeger_haeger_samd_haeger_mcu2\Debug/core.a(WMath.cpp.o)
                0x000077d4                makeWord(unsigned char, unsigned char)
 .text._ZN7Serial_17availableForWriteEv
                0x000077da        0x4 C:\Users\Haris\AppData\Local\Temp\VMBuilds\Main_Siemens_Automation_824MSPe\haeger_haeger_samd_haeger_mcu2\Debug/core.a(CDC.cpp.o)
                0x000077da                Serial_::availableForWrite()
 .text._ZN7Serial_5writeEh
                0x000077de       0x16 C:\Users\Haris\AppData\Local\Temp\VMBuilds\Main_Siemens_Automation_824MSPe\haeger_haeger_samd_haeger_mcu2\Debug/core.a(CDC.cpp.o)
                0x000077de                Serial_::write(unsigned char)
 .text._ZN7Serial_9availableEv
                0x000077f4        0x8 C:\Users\Haris\AppData\Local\Temp\VMBuilds\Main_Siemens_Automation_824MSPe\haeger_haeger_samd_haeger_mcu2\Debug/core.a(CDC.cpp.o)
                0x000077f4                Serial_::available()
 .text._ZN7Serial_5flushEv
                0x000077fc        0x8 C:\Users\Haris\AppData\Local\Temp\VMBuilds\Main_Siemens_Automation_824MSPe\haeger_haeger_samd_haeger_mcu2\Debug/core.a(CDC.cpp.o)
                0x000077fc                Serial_::flush()
 .text._ZN7Serial_5writeEPKhj
                0x00007804       0x1a C:\Users\Haris\AppData\Local\Temp\VMBuilds\Main_Siemens_Automation_824MSPe\haeger_haeger_samd_haeger_mcu2\Debug/core.a(CDC.cpp.o)
                0x00007804                Serial_::write(unsigned char const*, unsigned int)
 *fill*         0x0000781e        0x2 
 .text._ZN7Serial_4peekEv
                0x00007820       0x1c C:\Users\Haris\AppData\Local\Temp\VMBuilds\Main_Siemens_Automation_824MSPe\haeger_haeger_samd_haeger_mcu2\Debug/core.a(CDC.cpp.o)
                0x00007820                Serial_::peek()
 .text._ZN7Serial_4readEv
                0x0000783c       0x20 C:\Users\Haris\AppData\Local\Temp\VMBuilds\Main_Siemens_Automation_824MSPe\haeger_haeger_samd_haeger_mcu2\Debug/core.a(CDC.cpp.o)
                0x0000783c                Serial_::read()
 .text._Z16CDC_GetInterfacePh
                0x0000785c       0x18 C:\Users\Haris\AppData\Local\Temp\VMBuilds\Main_Siemens_Automation_824MSPe\haeger_haeger_samd_haeger_mcu2\Debug/core.a(CDC.cpp.o)
                0x0000785c                CDC_GetInterface(unsigned char*)
 .text._Z9CDC_SetupR8USBSetup
                0x00007874       0x7c C:\Users\Haris\AppData\Local\Temp\VMBuilds\Main_Siemens_Automation_824MSPe\haeger_haeger_samd_haeger_mcu2\Debug/core.a(CDC.cpp.o)
                0x00007874                CDC_Setup(USBSetup&)
 .text._ZN7Serial_5beginEm
                0x000078f0        0x2 C:\Users\Haris\AppData\Local\Temp\VMBuilds\Main_Siemens_Automation_824MSPe\haeger_haeger_samd_haeger_mcu2\Debug/core.a(CDC.cpp.o)
                0x000078f0                Serial_::begin(unsigned long)
 .text._ZN7Serial_5beginEmh
                0x000078f2        0x2 C:\Users\Haris\AppData\Local\Temp\VMBuilds\Main_Siemens_Automation_824MSPe\haeger_haeger_samd_haeger_mcu2\Debug/core.a(CDC.cpp.o)
                0x000078f2                Serial_::begin(unsigned long, unsigned char)
 .text.startup._GLOBAL__sub_I__Z17_CDC_GetInterfacev
                0x000078f4       0x24 C:\Users\Haris\AppData\Local\Temp\VMBuilds\Main_Siemens_Automation_824MSPe\haeger_haeger_samd_haeger_mcu2\Debug/core.a(CDC.cpp.o)
 .text._ZN26DoubleBufferedEPOutHandler4initEv
                0x00007918        0x2 C:\Users\Haris\AppData\Local\Temp\VMBuilds\Main_Siemens_Automation_824MSPe\haeger_haeger_samd_haeger_mcu2\Debug/core.a(USBCore.cpp.o)
                0x00007918                DoubleBufferedEPOutHandler::init()
 *fill*         0x0000791a        0x2 
 .text._ZN14USBDeviceClass6initEPEmm.part.4
                0x0000791c       0xa4 C:\Users\Haris\AppData\Local\Temp\VMBuilds\Main_Siemens_Automation_824MSPe\haeger_haeger_samd_haeger_mcu2\Debug/core.a(USBCore.cpp.o)
 .text._ZN7__GuardC2Ev
                0x000079c0        0xe C:\Users\Haris\AppData\Local\Temp\VMBuilds\Main_Siemens_Automation_824MSPe\haeger_haeger_samd_haeger_mcu2\Debug/core.a(USBCore.cpp.o)
                0x000079c0                __Guard::__Guard()
                0x000079c0                __Guard::__Guard()
 .text._ZN7__GuardD2Ev
                0x000079ce        0xc C:\Users\Haris\AppData\Local\Temp\VMBuilds\Main_Siemens_Automation_824MSPe\haeger_haeger_samd_haeger_mcu2\Debug/core.a(USBCore.cpp.o)
                0x000079ce                __Guard::~__Guard()
                0x000079ce                __Guard::~__Guard()
 .text._ZNK26DoubleBufferedEPOutHandler9availableEv
                0x000079da       0x5e C:\Users\Haris\AppData\Local\Temp\VMBuilds\Main_Siemens_Automation_824MSPe\haeger_haeger_samd_haeger_mcu2\Debug/core.a(USBCore.cpp.o)
                0x000079da                DoubleBufferedEPOutHandler::available() const
 .text._ZN26DoubleBufferedEPOutHandler7releaseEv
                0x00007a38       0x4e C:\Users\Haris\AppData\Local\Temp\VMBuilds\Main_Siemens_Automation_824MSPe\haeger_haeger_samd_haeger_mcu2\Debug/core.a(USBCore.cpp.o)
                0x00007a38                DoubleBufferedEPOutHandler::release()
 .text._ZN26DoubleBufferedEPOutHandler4recvEPvm
                0x00007a86      0x114 C:\Users\Haris\AppData\Local\Temp\VMBuilds\Main_Siemens_Automation_824MSPe\haeger_haeger_samd_haeger_mcu2\Debug/core.a(USBCore.cpp.o)
                0x00007a86                DoubleBufferedEPOutHandler::recv(void*, unsigned long)
 .text._ZN26DoubleBufferedEPOutHandler14handleEndpointEv
                0x00007b9a       0xc6 C:\Users\Haris\AppData\Local\Temp\VMBuilds\Main_Siemens_Automation_824MSPe\haeger_haeger_samd_haeger_mcu2\Debug/core.a(USBCore.cpp.o)
                0x00007b9a                DoubleBufferedEPOutHandler::handleEndpoint()
 .text._ZN14USBDeviceClass14SendInterfacesEPm
                0x00007c60       0x30 C:\Users\Haris\AppData\Local\Temp\VMBuilds\Main_Siemens_Automation_824MSPe\haeger_haeger_samd_haeger_mcu2\Debug/core.a(USBCore.cpp.o)
                0x00007c60                USBDeviceClass::SendInterfaces(unsigned long*)
 .text._ZN14USBDeviceClass14handleEndpointEh
                0x00007c90       0x3c C:\Users\Haris\AppData\Local\Temp\VMBuilds\Main_Siemens_Automation_824MSPe\haeger_haeger_samd_haeger_mcu2\Debug/core.a(USBCore.cpp.o)
                0x00007c90                USBDeviceClass::handleEndpoint(unsigned char)
 .text._ZN14USBDeviceClass4initEv
                0x00007ccc      0x120 C:\Users\Haris\AppData\Local\Temp\VMBuilds\Main_Siemens_Automation_824MSPe\haeger_haeger_samd_haeger_mcu2\Debug/core.a(USBCore.cpp.o)
                0x00007ccc                USBDeviceClass::init()
 .text._ZN14USBDeviceClass6attachEv
                0x00007dec       0x30 C:\Users\Haris\AppData\Local\Temp\VMBuilds\Main_Siemens_Automation_824MSPe\haeger_haeger_samd_haeger_mcu2\Debug/core.a(USBCore.cpp.o)
                0x00007dec                USBDeviceClass::attach()
 .text._ZN14USBDeviceClass10setAddressEm
                0x00007e1c       0x40 C:\Users\Haris\AppData\Local\Temp\VMBuilds\Main_Siemens_Automation_824MSPe\haeger_haeger_samd_haeger_mcu2\Debug/core.a(USBCore.cpp.o)
                0x00007e1c                USBDeviceClass::setAddress(unsigned long)
 .text._ZN14USBDeviceClass25handleClassInterfaceSetupER8USBSetup
                0x00007e5c       0x3c C:\Users\Haris\AppData\Local\Temp\VMBuilds\Main_Siemens_Automation_824MSPe\haeger_haeger_samd_haeger_mcu2\Debug/core.a(USBCore.cpp.o)
                0x00007e5c                USBDeviceClass::handleClassInterfaceSetup(USBSetup&)
 .text._ZN14USBDeviceClass6initEPEmm
                0x00007e98       0xec C:\Users\Haris\AppData\Local\Temp\VMBuilds\Main_Siemens_Automation_824MSPe\haeger_haeger_samd_haeger_mcu2\Debug/core.a(USBCore.cpp.o)
                0x00007e98                USBDeviceClass::initEP(unsigned long, unsigned long)
 .text._ZN14USBDeviceClass13initEndpointsEv
                0x00007f84       0x24 C:\Users\Haris\AppData\Local\Temp\VMBuilds\Main_Siemens_Automation_824MSPe\haeger_haeger_samd_haeger_mcu2\Debug/core.a(USBCore.cpp.o)
                0x00007f84                USBDeviceClass::initEndpoints()
 .text._ZN14USBDeviceClass9availableEm
                0x00007fa8       0x2c C:\Users\Haris\AppData\Local\Temp\VMBuilds\Main_Siemens_Automation_824MSPe\haeger_haeger_samd_haeger_mcu2\Debug/core.a(USBCore.cpp.o)
                0x00007fa8                USBDeviceClass::available(unsigned long)
 .text._ZN14USBDeviceClass5flushEm
                0x00007fd4       0x28 C:\Users\Haris\AppData\Local\Temp\VMBuilds\Main_Siemens_Automation_824MSPe\haeger_haeger_samd_haeger_mcu2\Debug/core.a(USBCore.cpp.o)
                0x00007fd4                USBDeviceClass::flush(unsigned long)
 .text._ZN14USBDeviceClass14armRecvCtrlOUTEm
                0x00007ffc       0x58 C:\Users\Haris\AppData\Local\Temp\VMBuilds\Main_Siemens_Automation_824MSPe\haeger_haeger_samd_haeger_mcu2\Debug/core.a(USBCore.cpp.o)
                0x00007ffc                USBDeviceClass::armRecvCtrlOUT(unsigned long)
 .text._ZN14USBDeviceClass11recvControlEPvm
                0x00008054       0x3c C:\Users\Haris\AppData\Local\Temp\VMBuilds\Main_Siemens_Automation_824MSPe\haeger_haeger_samd_haeger_mcu2\Debug/core.a(USBCore.cpp.o)
                0x00008054                USBDeviceClass::recvControl(void*, unsigned long)
 .text._ZN14USBDeviceClass7armRecvEm
                0x00008090       0x34 C:\Users\Haris\AppData\Local\Temp\VMBuilds\Main_Siemens_Automation_824MSPe\haeger_haeger_samd_haeger_mcu2\Debug/core.a(USBCore.cpp.o)
                0x00008090                USBDeviceClass::armRecv(unsigned long)
 .text._ZN14USBDeviceClass4recvEmPvm
                0x000080c4       0xdc C:\Users\Haris\AppData\Local\Temp\VMBuilds\Main_Siemens_Automation_824MSPe\haeger_haeger_samd_haeger_mcu2\Debug/core.a(USBCore.cpp.o)
                0x000080c4                USBDeviceClass::recv(unsigned long, void*, unsigned long)
 .text._ZN14USBDeviceClass4recvEm
                0x000081a0       0x1e C:\Users\Haris\AppData\Local\Temp\VMBuilds\Main_Siemens_Automation_824MSPe\haeger_haeger_samd_haeger_mcu2\Debug/core.a(USBCore.cpp.o)
                0x000081a0                USBDeviceClass::recv(unsigned long)
 *fill*         0x000081be        0x2 
 .text._ZN14USBDeviceClass4sendEmPKvm
                0x000081c0      0x10c C:\Users\Haris\AppData\Local\Temp\VMBuilds\Main_Siemens_Automation_824MSPe\haeger_haeger_samd_haeger_mcu2\Debug/core.a(USBCore.cpp.o)
                0x000081c0                USBDeviceClass::send(unsigned long, void const*, unsigned long)
 .text._ZN14USBDeviceClass7armSendEmPKvm
                0x000082cc       0x3c C:\Users\Haris\AppData\Local\Temp\VMBuilds\Main_Siemens_Automation_824MSPe\haeger_haeger_samd_haeger_mcu2\Debug/core.a(USBCore.cpp.o)
                0x000082cc                USBDeviceClass::armSend(unsigned long, void const*, unsigned long)
 .text._ZN14USBDeviceClass11sendControlEPKvm
                0x00008308       0x58 C:\Users\Haris\AppData\Local\Temp\VMBuilds\Main_Siemens_Automation_824MSPe\haeger_haeger_samd_haeger_mcu2\Debug/core.a(USBCore.cpp.o)
                0x00008308                USBDeviceClass::sendControl(void const*, unsigned long)
 .text._ZN14USBDeviceClass20sendStringDescriptorEPKhh
                0x00008360       0x6c C:\Users\Haris\AppData\Local\Temp\VMBuilds\Main_Siemens_Automation_824MSPe\haeger_haeger_samd_haeger_mcu2\Debug/core.a(USBCore.cpp.o)
                0x00008360                USBDeviceClass::sendStringDescriptor(unsigned char const*, unsigned char)
 .text._ZN14USBDeviceClass12packMessagesEb.part.6
                0x000083cc       0x1c C:\Users\Haris\AppData\Local\Temp\VMBuilds\Main_Siemens_Automation_824MSPe\haeger_haeger_samd_haeger_mcu2\Debug/core.a(USBCore.cpp.o)
 .text._ZN14USBDeviceClass17sendConfigurationEm
                0x000083e8       0xa4 C:\Users\Haris\AppData\Local\Temp\VMBuilds\Main_Siemens_Automation_824MSPe\haeger_haeger_samd_haeger_mcu2\Debug/core.a(USBCore.cpp.o)
                0x000083e8                USBDeviceClass::sendConfiguration(unsigned long)
 .text._ZN14USBDeviceClass14sendDescriptorER8USBSetup
                0x0000848c       0xb4 C:\Users\Haris\AppData\Local\Temp\VMBuilds\Main_Siemens_Automation_824MSPe\haeger_haeger_samd_haeger_mcu2\Debug/core.a(USBCore.cpp.o)
                0x0000848c                USBDeviceClass::sendDescriptor(USBSetup&)
 .text._ZN14USBDeviceClass19handleStandardSetupER8USBSetup
                0x00008540      0x124 C:\Users\Haris\AppData\Local\Temp\VMBuilds\Main_Siemens_Automation_824MSPe\haeger_haeger_samd_haeger_mcu2\Debug/core.a(USBCore.cpp.o)
                0x00008540                USBDeviceClass::handleStandardSetup(USBSetup&)
 .text._ZN14USBDeviceClass10ISRHandlerEv
                0x00008664      0x154 C:\Users\Haris\AppData\Local\Temp\VMBuilds\Main_Siemens_Automation_824MSPe\haeger_haeger_samd_haeger_mcu2\Debug/core.a(USBCore.cpp.o)
                0x00008664                USBDeviceClass::ISRHandler()
 .text.UDD_Handler
                0x000087b8        0xc C:\Users\Haris\AppData\Local\Temp\VMBuilds\Main_Siemens_Automation_824MSPe\haeger_haeger_samd_haeger_mcu2\Debug/core.a(USBCore.cpp.o)
                0x000087b8                UDD_Handler
 .text.startup._GLOBAL__sub_I_usbd
                0x000087c4       0x10 C:\Users\Haris\AppData\Local\Temp\VMBuilds\Main_Siemens_Automation_824MSPe\haeger_haeger_samd_haeger_mcu2\Debug/core.a(USBCore.cpp.o)
 .text.init     0x000087d4      0x118 C:\Users\Haris\AppData\Local\Temp\VMBuilds\Main_Siemens_Automation_824MSPe\haeger_haeger_samd_haeger_mcu2\Debug/core.a(wiring.c.o)
                0x000087d4                init
 .text._Znwj    0x000088ec        0x4 C:\Users\Haris\AppData\Local\Temp\VMBuilds\Main_Siemens_Automation_824MSPe\haeger_haeger_samd_haeger_mcu2\Debug/core.a(new.cpp.o)
                0x000088ec                operator new(unsigned int)
 .text._ZN5Print5writeEPKhj
                0x000088f0       0x22 C:\Users\Haris\AppData\Local\Temp\VMBuilds\Main_Siemens_Automation_824MSPe\haeger_haeger_samd_haeger_mcu2\Debug/core.a(Print.cpp.o)
                0x000088f0                Print::write(unsigned char const*, unsigned int)
 .text._ZN10RingBufferC2Ev
                0x00008912       0x1a C:\Users\Haris\AppData\Local\Temp\VMBuilds\Main_Siemens_Automation_824MSPe\haeger_haeger_samd_haeger_mcu2\Debug/core.a(RingBuffer.cpp.o)
                0x00008912                RingBuffer::RingBuffer()
                0x00008912                RingBuffer::RingBuffer()
 .text._ZN10RingBuffer10store_charEh
                0x0000892c       0x22 C:\Users\Haris\AppData\Local\Temp\VMBuilds\Main_Siemens_Automation_824MSPe\haeger_haeger_samd_haeger_mcu2\Debug/core.a(RingBuffer.cpp.o)
                0x0000892c                RingBuffer::store_char(unsigned char)
 .text._ZN10RingBuffer5clearEv
                0x0000894e        0xc C:\Users\Haris\AppData\Local\Temp\VMBuilds\Main_Siemens_Automation_824MSPe\haeger_haeger_samd_haeger_mcu2\Debug/core.a(RingBuffer.cpp.o)
                0x0000894e                RingBuffer::clear()
 .text._ZN10RingBuffer9read_charEv
                0x0000895a       0x2a C:\Users\Haris\AppData\Local\Temp\VMBuilds\Main_Siemens_Automation_824MSPe\haeger_haeger_samd_haeger_mcu2\Debug/core.a(RingBuffer.cpp.o)
                0x0000895a                RingBuffer::read_char()
 .text._ZN10RingBuffer9availableEv
                0x00008984       0x10 C:\Users\Haris\AppData\Local\Temp\VMBuilds\Main_Siemens_Automation_824MSPe\haeger_haeger_samd_haeger_mcu2\Debug/core.a(RingBuffer.cpp.o)
                0x00008984                RingBuffer::available()
 .text._ZN10RingBuffer4peekEv
                0x00008994       0x14 C:\Users\Haris\AppData\Local\Temp\VMBuilds\Main_Siemens_Automation_824MSPe\haeger_haeger_samd_haeger_mcu2\Debug/core.a(RingBuffer.cpp.o)
                0x00008994                RingBuffer::peek()
 .text._ZN13PluggableUSB_12getInterfaceEPh
                0x000089a8       0x28 C:\Users\Haris\AppData\Local\Temp\VMBuilds\Main_Siemens_Automation_824MSPe\haeger_haeger_samd_haeger_mcu2\Debug/core.a(PluggableUSB.cpp.o)
                0x000089a8                PluggableUSB_::getInterface(unsigned char*)
 .text._ZN13PluggableUSB_13getDescriptorER8USBSetup
                0x000089d0       0x1c C:\Users\Haris\AppData\Local\Temp\VMBuilds\Main_Siemens_Automation_824MSPe\haeger_haeger_samd_haeger_mcu2\Debug/core.a(PluggableUSB.cpp.o)
                0x000089d0                PluggableUSB_::getDescriptor(USBSetup&)
 .text._ZN13PluggableUSB_12getShortNameEPc
                0x000089ec       0x1c C:\Users\Haris\AppData\Local\Temp\VMBuilds\Main_Siemens_Automation_824MSPe\haeger_haeger_samd_haeger_mcu2\Debug/core.a(PluggableUSB.cpp.o)
                0x000089ec                PluggableUSB_::getShortName(char*)
 .text._ZN13PluggableUSB_5setupER8USBSetup
                0x00008a08       0x20 C:\Users\Haris\AppData\Local\Temp\VMBuilds\Main_Siemens_Automation_824MSPe\haeger_haeger_samd_haeger_mcu2\Debug/core.a(PluggableUSB.cpp.o)
                0x00008a08                PluggableUSB_::setup(USBSetup&)
 .text._Z12PluggableUSBv
                0x00008a28       0x28 C:\Users\Haris\AppData\Local\Temp\VMBuilds\Main_Siemens_Automation_824MSPe\haeger_haeger_samd_haeger_mcu2\Debug/core.a(PluggableUSB.cpp.o)
                0x00008a28                PluggableUSB()
 .text._ZN20USBDevice_SAMD21G18x5resetEv
                0x00008a50       0x30 C:\Users\Haris\AppData\Local\Temp\VMBuilds\Main_Siemens_Automation_824MSPe\haeger_haeger_samd_haeger_mcu2\Debug/core.a(SAMD21_USBDevice.cpp.o)
                0x00008a50                USBDevice_SAMD21G18x::reset()
 .text._ZN20USBDevice_SAMD21G18x9calibrateEv
                0x00008a80       0x48 C:\Users\Haris\AppData\Local\Temp\VMBuilds\Main_Siemens_Automation_824MSPe\haeger_haeger_samd_haeger_mcu2\Debug/core.a(SAMD21_USBDevice.cpp.o)
                0x00008a80                USBDevice_SAMD21G18x::calibrate()
 .text          0x00008ac8      0x370 c:/users/haris/appdata/local/arduino15/packages/arduino/tools/arm-none-eabi-gcc/4.8.3-2014q1/bin/../lib/gcc/arm-none-eabi/4.8.3/armv7e-m/fpu\libgcc.a(_arm_addsubdf3.o)
                0x00008ac8                __aeabi_drsub
                0x00008ad0                __aeabi_dsub
                0x00008ad0                __subdf3
                0x00008ad4                __aeabi_dadd
                0x00008ad4                __adddf3
                0x00008d4c                __floatunsidf
                0x00008d4c                __aeabi_ui2d
                0x00008d6c                __floatsidf
                0x00008d6c                __aeabi_i2d
                0x00008d90                __aeabi_f2d
                0x00008d90                __extendsfdf2
                0x00008dcc                __floatundidf
                0x00008dcc                __aeabi_ul2d
                0x00008ddc                __floatdidf
                0x00008ddc                __aeabi_l2d
 .text          0x00008e38      0x424 c:/users/haris/appdata/local/arduino15/packages/arduino/tools/arm-none-eabi-gcc/4.8.3-2014q1/bin/../lib/gcc/arm-none-eabi/4.8.3/armv7e-m/fpu\libgcc.a(_arm_muldivdf3.o)
                0x00008e38                __aeabi_dmul
                0x00008e38                __muldf3
                0x0000908c                __divdf3
                0x0000908c                __aeabi_ddiv
 .text          0x0000925c       0xa0 c:/users/haris/appdata/local/arduino15/packages/arduino/tools/arm-none-eabi-gcc/4.8.3-2014q1/bin/../lib/gcc/arm-none-eabi/4.8.3/armv7e-m/fpu\libgcc.a(_arm_truncdfsf2.o)
                0x0000925c                __truncdfsf2
                0x0000925c                __aeabi_d2f
 .text.__libc_init_array
                0x000092fc       0x4c c:/users/haris/appdata/local/arduino15/packages/arduino/tools/arm-none-eabi-gcc/4.8.3-2014q1/bin/../lib/gcc/arm-none-eabi/4.8.3/../../../../arm-none-eabi/lib/armv7e-m/fpu\libc_s.a(lib_a-init.o)
                0x000092fc                __libc_init_array
 .text.malloc   0x00009348       0x10 c:/users/haris/appdata/local/arduino15/packages/arduino/tools/arm-none-eabi-gcc/4.8.3-2014q1/bin/../lib/gcc/arm-none-eabi/4.8.3/../../../../arm-none-eabi/lib/armv7e-m/fpu\libc_s.a(lib_a-malloc.o)
                0x00009348                malloc
 .text.memcpy   0x00009358       0x12 c:/users/haris/appdata/local/arduino15/packages/arduino/tools/arm-none-eabi-gcc/4.8.3-2014q1/bin/../lib/gcc/arm-none-eabi/4.8.3/../../../../arm-none-eabi/lib/armv7e-m/fpu\libc_s.a(lib_a-memcpy-stub.o)
                0x00009358                memcpy
 .text.memset   0x0000936a       0x10 c:/users/haris/appdata/local/arduino15/packages/arduino/tools/arm-none-eabi-gcc/4.8.3-2014q1/bin/../lib/gcc/arm-none-eabi/4.8.3/../../../../arm-none-eabi/lib/armv7e-m/fpu\libc_s.a(lib_a-memset.o)
                0x0000936a                memset
 *fill*         0x0000937a        0x2 
 .text._malloc_r
                0x0000937c       0xa8 c:/users/haris/appdata/local/arduino15/packages/arduino/tools/arm-none-eabi-gcc/4.8.3-2014q1/bin/../lib/gcc/arm-none-eabi/4.8.3/../../../../arm-none-eabi/lib/armv7e-m/fpu\libc_s.a(lib_a-nano-mallocr.o)
                0x0000937c                _malloc_r
 .text._sbrk_r  0x00009424       0x20 c:/users/haris/appdata/local/arduino15/packages/arduino/tools/arm-none-eabi-gcc/4.8.3-2014q1/bin/../lib/gcc/arm-none-eabi/4.8.3/../../../../arm-none-eabi/lib/armv7e-m/fpu\libc_s.a(lib_a-sbrkr.o)
                0x00009424                _sbrk_r
 .text.strlen   0x00009444       0x10 c:/users/haris/appdata/local/arduino15/packages/arduino/tools/arm-none-eabi-gcc/4.8.3-2014q1/bin/../lib/gcc/arm-none-eabi/4.8.3/../../../../arm-none-eabi/lib/armv7e-m/fpu\libc_s.a(lib_a-strlen.o)
                0x00009444                strlen
 .text._sbrk    0x00009454       0x34 c:/users/haris/appdata/local/arduino15/packages/arduino/tools/arm-none-eabi-gcc/4.8.3-2014q1/bin/../lib/gcc/arm-none-eabi/4.8.3/../../../../arm-none-eabi/lib/armv7e-m/fpu\libnosys.a(sbrk.o)
                0x00009454                _sbrk
 *(.init)
 .init          0x00009488        0x4 c:/users/haris/appdata/local/arduino15/packages/arduino/tools/arm-none-eabi-gcc/4.8.3-2014q1/bin/../lib/gcc/arm-none-eabi/4.8.3/armv7e-m/fpu/crti.o
                0x00009488                _init
 .init          0x0000948c        0x8 c:/users/haris/appdata/local/arduino15/packages/arduino/tools/arm-none-eabi-gcc/4.8.3-2014q1/bin/../lib/gcc/arm-none-eabi/4.8.3/armv7e-m/fpu/crtn.o
 *(.fini)
 .fini          0x00009494        0x4 c:/users/haris/appdata/local/arduino15/packages/arduino/tools/arm-none-eabi-gcc/4.8.3-2014q1/bin/../lib/gcc/arm-none-eabi/4.8.3/armv7e-m/fpu/crti.o
                0x00009494                _fini
 .fini          0x00009498        0x8 c:/users/haris/appdata/local/arduino15/packages/arduino/tools/arm-none-eabi-gcc/4.8.3-2014q1/bin/../lib/gcc/arm-none-eabi/4.8.3/armv7e-m/fpu/crtn.o
 *crtbegin.o(.ctors)
 *crtbegin?.o(.ctors)
 *(EXCLUDE_FILE(*crtend.o *crtend?.o) .ctors)
 *(SORT(.ctors.*))
 *(.ctors)
 *crtbegin.o(.dtors)
 *crtbegin?.o(.dtors)
 *(EXCLUDE_FILE(*crtend.o *crtend?.o) .dtors)
 *(SORT(.dtors.*))
 *(.dtors)
 *(.rodata*)
 .rodata._ZTV12ModbusSerialI7Serial_E
                0x000094a0       0x28 C:\Users\Haris\AppData\Local\Temp\VMBuilds\Main_Siemens_Automation_824MSPe\haeger_haeger_samd_haeger_mcu2\Debug\Main_Siemens_Automation_824MSPe.cpp.o
                0x000094a0                vtable for ModbusSerial<Serial_>
 .rodata._ZL12fctsupported
                0x000094c8        0x8 C:\Users\Haris\AppData\Local\Temp\VMBuilds\Main_Siemens_Automation_824MSPe\haeger_haeger_samd_haeger_mcu2\Debug\Main_Siemens_Automation_824MSPe.cpp.o
 .rodata.g_APinDescription
                0x000094d0      0x6a8 C:\Users\Haris\AppData\Local\Temp\VMBCore\visualmicro\ed00c25992609daaa7a7b547b702356d\variant\variant.cpp.o
                0x000094d0                g_APinDescription
 .rodata        0x00009b78       0x18 C:\Users\Haris\AppData\Local\Temp\VMBuilds\Main_Siemens_Automation_824MSPe\haeger_haeger_samd_haeger_mcu2\Debug/core.a(wiring_analog.c.o)
 .rodata._ZTV4Uart
                0x00009b90       0x30 C:\Users\Haris\AppData\Local\Temp\VMBuilds\Main_Siemens_Automation_824MSPe\haeger_haeger_samd_haeger_mcu2\Debug/core.a(Uart.cpp.o)
                0x00009b90                vtable for Uart
 .rodata._ZTV7Serial_
                0x00009bc0       0x28 C:\Users\Haris\AppData\Local\Temp\VMBuilds\Main_Siemens_Automation_824MSPe\haeger_haeger_samd_haeger_mcu2\Debug/core.a(CDC.cpp.o)
                0x00009bc0                vtable for Serial_
 .rodata._ZTV26DoubleBufferedEPOutHandler
                0x00009be8       0x18 C:\Users\Haris\AppData\Local\Temp\VMBuilds\Main_Siemens_Automation_824MSPe\haeger_haeger_samd_haeger_mcu2\Debug/core.a(USBCore.cpp.o)
                0x00009be8                vtable for DoubleBufferedEPOutHandler
 .rodata._ZL19STRING_MANUFACTURER
                0x00009c00        0x7 C:\Users\Haris\AppData\Local\Temp\VMBuilds\Main_Siemens_Automation_824MSPe\haeger_haeger_samd_haeger_mcu2\Debug/core.a(USBCore.cpp.o)
 *fill*         0x00009c07        0x1 
 .rodata._ZL15STRING_LANGUAGE
                0x00009c08        0x4 C:\Users\Haris\AppData\Local\Temp\VMBuilds\Main_Siemens_Automation_824MSPe\haeger_haeger_samd_haeger_mcu2\Debug/core.a(USBCore.cpp.o)
 .rodata._ZL21USB_DeviceDescriptorB
                0x00009c0c       0x12 C:\Users\Haris\AppData\Local\Temp\VMBuilds\Main_Siemens_Automation_824MSPe\haeger_haeger_samd_haeger_mcu2\Debug/core.a(USBCore.cpp.o)
 .rodata._ZL14STRING_PRODUCT
                0x00009c1e       0x1d C:\Users\Haris\AppData\Local\Temp\VMBuilds\Main_Siemens_Automation_824MSPe\haeger_haeger_samd_haeger_mcu2\Debug/core.a(USBCore.cpp.o)
 .rodata.str1.1
                0x00009c3b        0x2 c:/users/haris/appdata/local/arduino15/packages/arduino/tools/arm-none-eabi-gcc/4.8.3-2014q1/bin/../lib/gcc/arm-none-eabi/4.8.3/../../../../arm-none-eabi/lib/armv7e-m/fpu\libc_s.a(lib_a-impure.o)
 *(.eh_frame*)
 *fill*         0x00009c3d        0x3 
 .eh_frame      0x00009c40        0x0 c:/users/haris/appdata/local/arduino15/packages/arduino/tools/arm-none-eabi-gcc/4.8.3-2014q1/bin/../lib/gcc/arm-none-eabi/4.8.3/armv7e-m/fpu/crtbegin.o
 .eh_frame      0x00009c40        0x4 c:/users/haris/appdata/local/arduino15/packages/arduino/tools/arm-none-eabi-gcc/4.8.3-2014q1/bin/../lib/gcc/arm-none-eabi/4.8.3/armv7e-m/fpu/crtend.o

.glue_7         0x00009c44        0x0
 .glue_7        0x00000000        0x0 linker stubs

.glue_7t        0x00009c44        0x0
 .glue_7t       0x00000000        0x0 linker stubs

.vfp11_veneer   0x00009c44        0x0
 .vfp11_veneer  0x00000000        0x0 linker stubs

.v4_bx          0x00009c44        0x0
 .v4_bx         0x00000000        0x0 linker stubs

.iplt           0x00009c44        0x0
 .iplt          0x00000000        0x0 c:/users/haris/appdata/local/arduino15/packages/arduino/tools/arm-none-eabi-gcc/4.8.3-2014q1/bin/../lib/gcc/arm-none-eabi/4.8.3/armv7e-m/fpu/crtbegin.o

.rel.dyn        0x00009c44        0x0
 .rel.iplt      0x00000000        0x0 c:/users/haris/appdata/local/arduino15/packages/arduino/tools/arm-none-eabi-gcc/4.8.3-2014q1/bin/../lib/gcc/arm-none-eabi/4.8.3/armv7e-m/fpu/crtbegin.o

.ARM.extab
 *(.ARM.extab* .gnu.linkonce.armextab.*)
                0x00009c44                __exidx_start = .

.ARM.exidx
 *(.ARM.exidx* .gnu.linkonce.armexidx.*)
                0x00009c44                __exidx_end = .
                0x00009c44                __etext = .

.data           0x20000000      0x170 load address 0x00009c44
                0x20000000                __data_start__ = .
 *(vtable)
 *(.data*)
 .data.FD_Delay_Time
                0x20000000        0x4 C:\Users\Haris\AppData\Local\Temp\VMBuilds\Main_Siemens_Automation_824MSPe\haeger_haeger_samd_haeger_mcu2\Debug\Fastener_Detection_Function.cpp.o
                0x20000000                FD_Delay_Time
 .data.FL_Delay_Time
                0x20000004        0x4 C:\Users\Haris\AppData\Local\Temp\VMBuilds\Main_Siemens_Automation_824MSPe\haeger_haeger_samd_haeger_mcu2\Debug\Fastener_Length_Function.cpp.o
                0x20000004                FL_Delay_Time
 .data.TPS_Lock_Reset_Time
                0x20000008        0x4 C:\Users\Haris\AppData\Local\Temp\VMBuilds\Main_Siemens_Automation_824MSPe\haeger_haeger_samd_haeger_mcu2\Debug\Hydraulic_Cylinder_Function.cpp.o
                0x20000008                TPS_Lock_Reset_Time
 .data.Modbus_Swap_Bit_Time
                0x2000000c        0x4 C:\Users\Haris\AppData\Local\Temp\VMBuilds\Main_Siemens_Automation_824MSPe\haeger_haeger_samd_haeger_mcu2\Debug\Modbus_Communication_Function.cpp.o
                0x2000000c                Modbus_Swap_Bit_Time
 .data.INTERVAL_1
                0x20000010        0x4 C:\Users\Haris\AppData\Local\Temp\VMBuilds\Main_Siemens_Automation_824MSPe\haeger_haeger_samd_haeger_mcu2\Debug\Press_Complete_Function.cpp.o
                0x20000010                INTERVAL_1
 .data.Force_Ref_Value
                0x20000014        0x4 C:\Users\Haris\AppData\Local\Temp\VMBuilds\Main_Siemens_Automation_824MSPe\haeger_haeger_samd_haeger_mcu2\Debug\Press_Complete_Function.cpp.o
                0x20000014                Force_Ref_Value
 .data.Shuttle_Retract_Time
                0x20000018        0x4 C:\Users\Haris\AppData\Local\Temp\VMBuilds\Main_Siemens_Automation_824MSPe\haeger_haeger_samd_haeger_mcu2\Debug\Shuttle_Function.cpp.o
                0x20000018                Shuttle_Retract_Time
 .data.Shuttle_Extend_Time
                0x2000001c        0x4 C:\Users\Haris\AppData\Local\Temp\VMBuilds\Main_Siemens_Automation_824MSPe\haeger_haeger_samd_haeger_mcu2\Debug\Shuttle_Function.cpp.o
                0x2000001c                Shuttle_Extend_Time
 .data.intervalTimer1
                0x20000020        0x4 C:\Users\Haris\AppData\Local\Temp\VMBuilds\Main_Siemens_Automation_824MSPe\haeger_haeger_samd_haeger_mcu2\Debug\Timer_Function.cpp.o
                0x20000020                intervalTimer1
 .data.g_apTCInstances
                0x20000024       0x34 C:\Users\Haris\AppData\Local\Temp\VMBCore\visualmicro\ed00c25992609daaa7a7b547b702356d\variant\variant.cpp.o
                0x20000024                g_apTCInstances
 .data._ADCResolution
                0x20000058        0x4 C:\Users\Haris\AppData\Local\Temp\VMBuilds\Main_Siemens_Automation_824MSPe\haeger_haeger_samd_haeger_mcu2\Debug/core.a(wiring_analog.c.o)
 .data._writeResolution
                0x2000005c        0x4 C:\Users\Haris\AppData\Local\Temp\VMBuilds\Main_Siemens_Automation_824MSPe\haeger_haeger_samd_haeger_mcu2\Debug/core.a(wiring_analog.c.o)
 .data._readResolution
                0x20000060        0x4 C:\Users\Haris\AppData\Local\Temp\VMBuilds\Main_Siemens_Automation_824MSPe\haeger_haeger_samd_haeger_mcu2\Debug/core.a(wiring_analog.c.o)
 .data._ZL5ticks
                0x20000064        0x4 C:\Users\Haris\AppData\Local\Temp\VMBuilds\Main_Siemens_Automation_824MSPe\haeger_haeger_samd_haeger_mcu2\Debug/core.a(Reset.cpp.o)
 .data._ZL12_usbLineInfo
                0x20000068        0x8 C:\Users\Haris\AppData\Local\Temp\VMBuilds\Main_Siemens_Automation_824MSPe\haeger_haeger_samd_haeger_mcu2\Debug/core.a(CDC.cpp.o)
 .data._ZL10breakValue
                0x20000070        0x4 C:\Users\Haris\AppData\Local\Temp\VMBuilds\Main_Siemens_Automation_824MSPe\haeger_haeger_samd_haeger_mcu2\Debug/core.a(CDC.cpp.o)
 .data._ZL13_cdcInterface
                0x20000074       0x42 C:\Users\Haris\AppData\Local\Temp\VMBuilds\Main_Siemens_Automation_824MSPe\haeger_haeger_samd_haeger_mcu2\Debug/core.a(CDC.cpp.o)
 *fill*         0x200000b6        0x2 
 .data._serialPeek
                0x200000b8        0x4 C:\Users\Haris\AppData\Local\Temp\VMBuilds\Main_Siemens_Automation_824MSPe\haeger_haeger_samd_haeger_mcu2\Debug/core.a(CDC.cpp.o)
                0x200000b8                _serialPeek
 .data.EndPoints
                0x200000bc       0x28 C:\Users\Haris\AppData\Local\Temp\VMBuilds\Main_Siemens_Automation_824MSPe\haeger_haeger_samd_haeger_mcu2\Debug/core.a(USBCore.cpp.o)
                0x200000bc                EndPoints
 .data.SystemCoreClock
                0x200000e4        0x4 C:\Users\Haris\AppData\Local\Temp\VMBuilds\Main_Siemens_Automation_824MSPe\haeger_haeger_samd_haeger_mcu2\Debug/core.a(wiring.c.o)
                0x200000e4                SystemCoreClock
 .data.impure_data
                0x200000e8       0x60 c:/users/haris/appdata/local/arduino15/packages/arduino/tools/arm-none-eabi-gcc/4.8.3-2014q1/bin/../lib/gcc/arm-none-eabi/4.8.3/../../../../arm-none-eabi/lib/armv7e-m/fpu\libc_s.a(lib_a-impure.o)
 .data._impure_ptr
                0x20000148        0x4 c:/users/haris/appdata/local/arduino15/packages/arduino/tools/arm-none-eabi-gcc/4.8.3-2014q1/bin/../lib/gcc/arm-none-eabi/4.8.3/../../../../arm-none-eabi/lib/armv7e-m/fpu\libc_s.a(lib_a-impure.o)
                0x20000148                _impure_ptr
                0x2000014c                . = ALIGN (0x4)
                0x2000014c                PROVIDE (__preinit_array_start, .)
 *(.preinit_array)
                0x2000014c                PROVIDE (__preinit_array_end, .)
                0x2000014c                . = ALIGN (0x4)
                0x2000014c                PROVIDE (__init_array_start, .)
 *(SORT(.init_array.*))
 *(.init_array)
 .init_array    0x2000014c        0x4 c:/users/haris/appdata/local/arduino15/packages/arduino/tools/arm-none-eabi-gcc/4.8.3-2014q1/bin/../lib/gcc/arm-none-eabi/4.8.3/armv7e-m/fpu/crtbegin.o
 .init_array    0x20000150        0x4 C:\Users\Haris\AppData\Local\Temp\VMBuilds\Main_Siemens_Automation_824MSPe\haeger_haeger_samd_haeger_mcu2\Debug\Main_Siemens_Automation_824MSPe.cpp.o
 .init_array    0x20000154        0x4 C:\Users\Haris\AppData\Local\Temp\VMBCore\visualmicro\ed00c25992609daaa7a7b547b702356d\variant\variant.cpp.o
 .init_array    0x20000158        0x4 C:\Users\Haris\AppData\Local\Temp\VMBuilds\Main_Siemens_Automation_824MSPe\haeger_haeger_samd_haeger_mcu2\Debug/core.a(CDC.cpp.o)
 .init_array    0x2000015c        0x4 C:\Users\Haris\AppData\Local\Temp\VMBuilds\Main_Siemens_Automation_824MSPe\haeger_haeger_samd_haeger_mcu2\Debug/core.a(USBCore.cpp.o)
                0x20000160                PROVIDE (__init_array_end, .)
                0x20000160                . = ALIGN (0x4)
                0x20000160                PROVIDE (__fini_array_start, .)
 *(SORT(.fini_array.*))
 *(.fini_array)
 .fini_array    0x20000160        0x4 c:/users/haris/appdata/local/arduino15/packages/arduino/tools/arm-none-eabi-gcc/4.8.3-2014q1/bin/../lib/gcc/arm-none-eabi/4.8.3/armv7e-m/fpu/crtbegin.o
                0x20000164                PROVIDE (__fini_array_end, .)
 *(.jcr*)
 .jcr           0x20000164        0x0 c:/users/haris/appdata/local/arduino15/packages/arduino/tools/arm-none-eabi-gcc/4.8.3-2014q1/bin/../lib/gcc/arm-none-eabi/4.8.3/armv7e-m/fpu/crtbegin.o
 .jcr           0x20000164        0x4 c:/users/haris/appdata/local/arduino15/packages/arduino/tools/arm-none-eabi-gcc/4.8.3-2014q1/bin/../lib/gcc/arm-none-eabi/4.8.3/armv7e-m/fpu/crtend.o
                0x20000170                . = ALIGN (0x10)
 *fill*         0x20000168        0x8 
                0x20000170                __data_end__ = .

.igot.plt       0x20000170        0x0 load address 0x00009db4
 .igot.plt      0x00000000        0x0 c:/users/haris/appdata/local/arduino15/packages/arduino/tools/arm-none-eabi-gcc/4.8.3-2014q1/bin/../lib/gcc/arm-none-eabi/4.8.3/armv7e-m/fpu/crtbegin.o

.bss            0x20000170      0xb4c load address 0x00009db4
                0x20000170                . = ALIGN (0x4)
                0x20000170                __bss_start__ = .
 *(.bss*)
 .bss           0x20000170       0x1c c:/users/haris/appdata/local/arduino15/packages/arduino/tools/arm-none-eabi-gcc/4.8.3-2014q1/bin/../lib/gcc/arm-none-eabi/4.8.3/armv7e-m/fpu/crtbegin.o
 .bss.All_At_Position_MCU2
                0x2000018c        0x1 C:\Users\Haris\AppData\Local\Temp\VMBuilds\Main_Siemens_Automation_824MSPe\haeger_haeger_samd_haeger_mcu2\Debug\Main_Siemens_Automation_824MSPe.cpp.o
                0x2000018c                All_At_Position_MCU2
 .bss.Vacuum_Detection_Measurement_Active
                0x2000018d        0x1 C:\Users\Haris\AppData\Local\Temp\VMBuilds\Main_Siemens_Automation_824MSPe\haeger_haeger_samd_haeger_mcu2\Debug\Main_Siemens_Automation_824MSPe.cpp.o
                0x2000018d                Vacuum_Detection_Measurement_Active
 *fill*         0x2000018e        0x2 
 .bss.TOS_Position_HMI
                0x20000190        0x4 C:\Users\Haris\AppData\Local\Temp\VMBuilds\Main_Siemens_Automation_824MSPe\haeger_haeger_samd_haeger_mcu2\Debug\Main_Siemens_Automation_824MSPe.cpp.o
                0x20000190                TOS_Position_HMI
 .bss.MAS_Vibration_Active
                0x20000194        0x1 C:\Users\Haris\AppData\Local\Temp\VMBuilds\Main_Siemens_Automation_824MSPe\haeger_haeger_samd_haeger_mcu2\Debug\Main_Siemens_Automation_824MSPe.cpp.o
                0x20000194                MAS_Vibration_Active
 *fill*         0x20000195        0x3 
 .bss.VAC       0x20000198       0x38 C:\Users\Haris\AppData\Local\Temp\VMBuilds\Main_Siemens_Automation_824MSPe\haeger_haeger_samd_haeger_mcu2\Debug\Main_Siemens_Automation_824MSPe.cpp.o
                0x20000198                VAC
 .bss.MCU_Lower_Tool_Pin_Up_Output
                0x200001d0        0x1 C:\Users\Haris\AppData\Local\Temp\VMBuilds\Main_Siemens_Automation_824MSPe\haeger_haeger_samd_haeger_mcu2\Debug\Main_Siemens_Automation_824MSPe.cpp.o
                0x200001d0                MCU_Lower_Tool_Pin_Up_Output
 .bss.Timer1_Q  0x200001d1        0x1 C:\Users\Haris\AppData\Local\Temp\VMBuilds\Main_Siemens_Automation_824MSPe\haeger_haeger_samd_haeger_mcu2\Debug\Main_Siemens_Automation_824MSPe.cpp.o
                0x200001d1                Timer1_Q
 .bss.Non_Conductive_Stop2
                0x200001d2        0x1 C:\Users\Haris\AppData\Local\Temp\VMBuilds\Main_Siemens_Automation_824MSPe\haeger_haeger_samd_haeger_mcu2\Debug\Main_Siemens_Automation_824MSPe.cpp.o
                0x200001d2                Non_Conductive_Stop2
 .bss.Vac_Without_Fastener_Down_Hold
                0x200001d3        0x1 C:\Users\Haris\AppData\Local\Temp\VMBuilds\Main_Siemens_Automation_824MSPe\haeger_haeger_samd_haeger_mcu2\Debug\Main_Siemens_Automation_824MSPe.cpp.o
                0x200001d3                Vac_Without_Fastener_Down_Hold
 .bss.EMG_Error_Reset_Local
                0x200001d4        0x1 C:\Users\Haris\AppData\Local\Temp\VMBuilds\Main_Siemens_Automation_824MSPe\haeger_haeger_samd_haeger_mcu2\Debug\Main_Siemens_Automation_824MSPe.cpp.o
                0x200001d4                EMG_Error_Reset_Local
 *fill*         0x200001d5        0x3 
 .bss.CET       0x200001d8       0x38 C:\Users\Haris\AppData\Local\Temp\VMBuilds\Main_Siemens_Automation_824MSPe\haeger_haeger_samd_haeger_mcu2\Debug\Main_Siemens_Automation_824MSPe.cpp.o
                0x200001d8                CET
 .bss.FL_Setup_Stroke_Reset
                0x20000210        0x1 C:\Users\Haris\AppData\Local\Temp\VMBuilds\Main_Siemens_Automation_824MSPe\haeger_haeger_samd_haeger_mcu2\Debug\Main_Siemens_Automation_824MSPe.cpp.o
                0x20000210                FL_Setup_Stroke_Reset
 *fill*         0x20000211        0x3 
 .bss.Write_Coil_40
                0x20000214        0x4 C:\Users\Haris\AppData\Local\Temp\VMBuilds\Main_Siemens_Automation_824MSPe\haeger_haeger_samd_haeger_mcu2\Debug\Main_Siemens_Automation_824MSPe.cpp.o
                0x20000214                Write_Coil_40
 .bss.Up_Travel_HMI
                0x20000218        0x4 C:\Users\Haris\AppData\Local\Temp\VMBuilds\Main_Siemens_Automation_824MSPe\haeger_haeger_samd_haeger_mcu2\Debug\Main_Siemens_Automation_824MSPe.cpp.o
                0x20000218                Up_Travel_HMI
 .bss.TPS_Calibrated_Upper_Value_HMI
                0x2000021c        0x4 C:\Users\Haris\AppData\Local\Temp\VMBuilds\Main_Siemens_Automation_824MSPe\haeger_haeger_samd_haeger_mcu2\Debug\Main_Siemens_Automation_824MSPe.cpp.o
                0x2000021c                TPS_Calibrated_Upper_Value_HMI
 .bss.Fastener_Detection_Error
                0x20000220        0x1 C:\Users\Haris\AppData\Local\Temp\VMBuilds\Main_Siemens_Automation_824MSPe\haeger_haeger_samd_haeger_mcu2\Debug\Main_Siemens_Automation_824MSPe.cpp.o
                0x20000220                Fastener_Detection_Error
 .bss.Fastener_Length_HMI
                0x20000221        0x1 C:\Users\Haris\AppData\Local\Temp\VMBuilds\Main_Siemens_Automation_824MSPe\haeger_haeger_samd_haeger_mcu2\Debug\Main_Siemens_Automation_824MSPe.cpp.o
                0x20000221                Fastener_Length_HMI
 *fill*         0x20000222        0x2 
 .bss.Write_Coil_48
                0x20000224        0x4 C:\Users\Haris\AppData\Local\Temp\VMBuilds\Main_Siemens_Automation_824MSPe\haeger_haeger_samd_haeger_mcu2\Debug\Main_Siemens_Automation_824MSPe.cpp.o
                0x20000224                Write_Coil_48
 .bss.Write_Coil_49
                0x20000228        0x1 C:\Users\Haris\AppData\Local\Temp\VMBuilds\Main_Siemens_Automation_824MSPe\haeger_haeger_samd_haeger_mcu2\Debug\Main_Siemens_Automation_824MSPe.cpp.o
                0x20000228                Write_Coil_49
 *fill*         0x20000229        0x3 
 .bss.MAS_Vibration_Percentage_HMI
                0x2000022c        0x4 C:\Users\Haris\AppData\Local\Temp\VMBuilds\Main_Siemens_Automation_824MSPe\haeger_haeger_samd_haeger_mcu2\Debug\Main_Siemens_Automation_824MSPe.cpp.o
                0x2000022c                MAS_Vibration_Percentage_HMI
 .bss.MAS_Blow_Off_Active
                0x20000230        0x1 C:\Users\Haris\AppData\Local\Temp\VMBuilds\Main_Siemens_Automation_824MSPe\haeger_haeger_samd_haeger_mcu2\Debug\Main_Siemens_Automation_824MSPe.cpp.o
                0x20000230                MAS_Blow_Off_Active
 .bss.EMG_Error_Reset_MCU2
                0x20000231        0x1 C:\Users\Haris\AppData\Local\Temp\VMBuilds\Main_Siemens_Automation_824MSPe\haeger_haeger_samd_haeger_mcu2\Debug\Main_Siemens_Automation_824MSPe.cpp.o
                0x20000231                EMG_Error_Reset_MCU2
 .bss.Non_Conductive_Stop1
                0x20000232        0x1 C:\Users\Haris\AppData\Local\Temp\VMBuilds\Main_Siemens_Automation_824MSPe\haeger_haeger_samd_haeger_mcu2\Debug\Main_Siemens_Automation_824MSPe.cpp.o
                0x20000232                Non_Conductive_Stop1
 .bss.FD_Retry_Set
                0x20000233        0x1 C:\Users\Haris\AppData\Local\Temp\VMBuilds\Main_Siemens_Automation_824MSPe\haeger_haeger_samd_haeger_mcu2\Debug\Main_Siemens_Automation_824MSPe.cpp.o
                0x20000233                FD_Retry_Set
 .bss.MAS_Vibration_Time_HMI
                0x20000234        0x4 C:\Users\Haris\AppData\Local\Temp\VMBuilds\Main_Siemens_Automation_824MSPe\haeger_haeger_samd_haeger_mcu2\Debug\Main_Siemens_Automation_824MSPe.cpp.o
                0x20000234                MAS_Vibration_Time_HMI
 .bss.Up_Travel_Cylinder_Stop
                0x20000238        0x1 C:\Users\Haris\AppData\Local\Temp\VMBuilds\Main_Siemens_Automation_824MSPe\haeger_haeger_samd_haeger_mcu2\Debug\Main_Siemens_Automation_824MSPe.cpp.o
                0x20000238                Up_Travel_Cylinder_Stop
 .bss.Fastener_Length_Error
                0x20000239        0x1 C:\Users\Haris\AppData\Local\Temp\VMBuilds\Main_Siemens_Automation_824MSPe\haeger_haeger_samd_haeger_mcu2\Debug\Main_Siemens_Automation_824MSPe.cpp.o
                0x20000239                Fastener_Length_Error
 .bss.Safety_Sensor_Error
                0x2000023a        0x1 C:\Users\Haris\AppData\Local\Temp\VMBuilds\Main_Siemens_Automation_824MSPe\haeger_haeger_samd_haeger_mcu2\Debug\Main_Siemens_Automation_824MSPe.cpp.o
                0x2000023a                Safety_Sensor_Error
 .bss.Error_Message
                0x2000023b        0x1 C:\Users\Haris\AppData\Local\Temp\VMBuilds\Main_Siemens_Automation_824MSPe\haeger_haeger_samd_haeger_mcu2\Debug\Main_Siemens_Automation_824MSPe.cpp.o
                0x2000023b                Error_Message
 .bss.Fastener_Detection_HMI
                0x2000023c        0x1 C:\Users\Haris\AppData\Local\Temp\VMBuilds\Main_Siemens_Automation_824MSPe\haeger_haeger_samd_haeger_mcu2\Debug\Main_Siemens_Automation_824MSPe.cpp.o
                0x2000023c                Fastener_Detection_HMI
 .bss.Toolingcontact_Switched_State
                0x2000023d        0x1 C:\Users\Haris\AppData\Local\Temp\VMBuilds\Main_Siemens_Automation_824MSPe\haeger_haeger_samd_haeger_mcu2\Debug\Main_Siemens_Automation_824MSPe.cpp.o
                0x2000023d                Toolingcontact_Switched_State
 *fill*         0x2000023e        0x2 
 .bss.Read_Coil_34
                0x20000240        0x4 C:\Users\Haris\AppData\Local\Temp\VMBuilds\Main_Siemens_Automation_824MSPe\haeger_haeger_samd_haeger_mcu2\Debug\Main_Siemens_Automation_824MSPe.cpp.o
                0x20000240                Read_Coil_34
 .bss.Read_Coil_38
                0x20000244        0x4 C:\Users\Haris\AppData\Local\Temp\VMBuilds\Main_Siemens_Automation_824MSPe\haeger_haeger_samd_haeger_mcu2\Debug\Main_Siemens_Automation_824MSPe.cpp.o
                0x20000244                Read_Coil_38
 .bss.Read_Coil_49
                0x20000248        0x1 C:\Users\Haris\AppData\Local\Temp\VMBuilds\Main_Siemens_Automation_824MSPe\haeger_haeger_samd_haeger_mcu2\Debug\Main_Siemens_Automation_824MSPe.cpp.o
                0x20000248                Read_Coil_49
 *fill*         0x20000249        0x3 
 .bss.TPS_Calibrated_Lower_Value_HMI
                0x2000024c        0x4 C:\Users\Haris\AppData\Local\Temp\VMBuilds\Main_Siemens_Automation_824MSPe\haeger_haeger_samd_haeger_mcu2\Debug\Main_Siemens_Automation_824MSPe.cpp.o
                0x2000024c                TPS_Calibrated_Lower_Value_HMI
 .bss.TPS_Error
                0x20000250        0x1 C:\Users\Haris\AppData\Local\Temp\VMBuilds\Main_Siemens_Automation_824MSPe\haeger_haeger_samd_haeger_mcu2\Debug\Main_Siemens_Automation_824MSPe.cpp.o
                0x20000250                TPS_Error
 *fill*         0x20000251        0x3 
 .bss.Fastener_Detection_Shuttle_Offset_Pos_HMI
                0x20000254        0x4 C:\Users\Haris\AppData\Local\Temp\VMBuilds\Main_Siemens_Automation_824MSPe\haeger_haeger_samd_haeger_mcu2\Debug\Main_Siemens_Automation_824MSPe.cpp.o
                0x20000254                Fastener_Detection_Shuttle_Offset_Pos_HMI
 .bss.MCU2_Version_Number
                0x20000258        0x4 C:\Users\Haris\AppData\Local\Temp\VMBuilds\Main_Siemens_Automation_824MSPe\haeger_haeger_samd_haeger_mcu2\Debug\Main_Siemens_Automation_824MSPe.cpp.o
                0x20000258                MCU2_Version_Number
 .bss.MAS_Blow_Off_Time_HMI
                0x2000025c        0x4 C:\Users\Haris\AppData\Local\Temp\VMBuilds\Main_Siemens_Automation_824MSPe\haeger_haeger_samd_haeger_mcu2\Debug\Main_Siemens_Automation_824MSPe.cpp.o
                0x2000025c                MAS_Blow_Off_Time_HMI
 .bss.Error_Number_HMI
                0x20000260        0x4 C:\Users\Haris\AppData\Local\Temp\VMBuilds\Main_Siemens_Automation_824MSPe\haeger_haeger_samd_haeger_mcu2\Debug\Main_Siemens_Automation_824MSPe.cpp.o
                0x20000260                Error_Number_HMI
 .bss.EMG_System_Active_HMI
                0x20000264        0x1 C:\Users\Haris\AppData\Local\Temp\VMBuilds\Main_Siemens_Automation_824MSPe\haeger_haeger_samd_haeger_mcu2\Debug\Main_Siemens_Automation_824MSPe.cpp.o
                0x20000264                EMG_System_Active_HMI
 *fill*         0x20000265        0x3 
 .bss.Dwell_Time_HMI
                0x20000268        0x4 C:\Users\Haris\AppData\Local\Temp\VMBuilds\Main_Siemens_Automation_824MSPe\haeger_haeger_samd_haeger_mcu2\Debug\Main_Siemens_Automation_824MSPe.cpp.o
                0x20000268                Dwell_Time_HMI
 .bss.Read_Coil_73
                0x2000026c        0x4 C:\Users\Haris\AppData\Local\Temp\VMBuilds\Main_Siemens_Automation_824MSPe\haeger_haeger_samd_haeger_mcu2\Debug\Main_Siemens_Automation_824MSPe.cpp.o
                0x2000026c                Read_Coil_73
 .bss.Shuttle_Extend_Error
                0x20000270        0x1 C:\Users\Haris\AppData\Local\Temp\VMBuilds\Main_Siemens_Automation_824MSPe\haeger_haeger_samd_haeger_mcu2\Debug\Main_Siemens_Automation_824MSPe.cpp.o
                0x20000270                Shuttle_Extend_Error
 .bss.Hyd_Cyl_Up_Release_Active
                0x20000271        0x1 C:\Users\Haris\AppData\Local\Temp\VMBuilds\Main_Siemens_Automation_824MSPe\haeger_haeger_samd_haeger_mcu2\Debug\Main_Siemens_Automation_824MSPe.cpp.o
                0x20000271                Hyd_Cyl_Up_Release_Active
 .bss.Machine_Run_State
                0x20000272        0x1 C:\Users\Haris\AppData\Local\Temp\VMBuilds\Main_Siemens_Automation_824MSPe\haeger_haeger_samd_haeger_mcu2\Debug\Main_Siemens_Automation_824MSPe.cpp.o
                0x20000272                Machine_Run_State
 *fill*         0x20000273        0x1 
 .bss.TPS_Offset_Value_HMI
                0x20000274        0x4 C:\Users\Haris\AppData\Local\Temp\VMBuilds\Main_Siemens_Automation_824MSPe\haeger_haeger_samd_haeger_mcu2\Debug\Main_Siemens_Automation_824MSPe.cpp.o
                0x20000274                TPS_Offset_Value_HMI
 .bss.Analog_PRESSURESWITCH
                0x20000278        0x4 C:\Users\Haris\AppData\Local\Temp\VMBuilds\Main_Siemens_Automation_824MSPe\haeger_haeger_samd_haeger_mcu2\Debug\Main_Siemens_Automation_824MSPe.cpp.o
                0x20000278                Analog_PRESSURESWITCH
 .bss.Fastener_Detection_Sensitivity_HMI
                0x2000027c        0x4 C:\Users\Haris\AppData\Local\Temp\VMBuilds\Main_Siemens_Automation_824MSPe\haeger_haeger_samd_haeger_mcu2\Debug\Main_Siemens_Automation_824MSPe.cpp.o
                0x2000027c                Fastener_Detection_Sensitivity_HMI
 .bss.Vac_With_Fastener_Down_Hold
                0x20000280        0x1 C:\Users\Haris\AppData\Local\Temp\VMBuilds\Main_Siemens_Automation_824MSPe\haeger_haeger_samd_haeger_mcu2\Debug\Main_Siemens_Automation_824MSPe.cpp.o
                0x20000280                Vac_With_Fastener_Down_Hold
 .bss.All_At_Position
                0x20000281        0x1 C:\Users\Haris\AppData\Local\Temp\VMBuilds\Main_Siemens_Automation_824MSPe\haeger_haeger_samd_haeger_mcu2\Debug\Main_Siemens_Automation_824MSPe.cpp.o
                0x20000281                All_At_Position
 .bss.MAS_Vibrate_Mode_HMI
                0x20000282        0x1 C:\Users\Haris\AppData\Local\Temp\VMBuilds\Main_Siemens_Automation_824MSPe\haeger_haeger_samd_haeger_mcu2\Debug\Main_Siemens_Automation_824MSPe.cpp.o
                0x20000282                MAS_Vibrate_Mode_HMI
 .bss.Robot_Shuttle_Lock
                0x20000283        0x1 C:\Users\Haris\AppData\Local\Temp\VMBuilds\Main_Siemens_Automation_824MSPe\haeger_haeger_samd_haeger_mcu2\Debug\Main_Siemens_Automation_824MSPe.cpp.o
                0x20000283                Robot_Shuttle_Lock
 .bss.Machine_State_Robot_Mode_Active
                0x20000284        0x1 C:\Users\Haris\AppData\Local\Temp\VMBuilds\Main_Siemens_Automation_824MSPe\haeger_haeger_samd_haeger_mcu2\Debug\Main_Siemens_Automation_824MSPe.cpp.o
                0x20000284                Machine_State_Robot_Mode_Active
 .bss.EMG_System_Active_MCU2
                0x20000285        0x1 C:\Users\Haris\AppData\Local\Temp\VMBuilds\Main_Siemens_Automation_824MSPe\haeger_haeger_samd_haeger_mcu2\Debug\Main_Siemens_Automation_824MSPe.cpp.o
                0x20000285                EMG_System_Active_MCU2
 .bss.Robot_Mode_Active_MCU2
                0x20000286        0x1 C:\Users\Haris\AppData\Local\Temp\VMBuilds\Main_Siemens_Automation_824MSPe\haeger_haeger_samd_haeger_mcu2\Debug\Main_Siemens_Automation_824MSPe.cpp.o
                0x20000286                Robot_Mode_Active_MCU2
 .bss.Machine_Init_State
                0x20000287        0x1 C:\Users\Haris\AppData\Local\Temp\VMBuilds\Main_Siemens_Automation_824MSPe\haeger_haeger_samd_haeger_mcu2\Debug\Main_Siemens_Automation_824MSPe.cpp.o
                0x20000287                Machine_Init_State
 .bss.MAS_Delay_Time_HMI
                0x20000288        0x4 C:\Users\Haris\AppData\Local\Temp\VMBuilds\Main_Siemens_Automation_824MSPe\haeger_haeger_samd_haeger_mcu2\Debug\Main_Siemens_Automation_824MSPe.cpp.o
                0x20000288                MAS_Delay_Time_HMI
 .bss.Analog_VAC
                0x2000028c        0x4 C:\Users\Haris\AppData\Local\Temp\VMBuilds\Main_Siemens_Automation_824MSPe\haeger_haeger_samd_haeger_mcu2\Debug\Main_Siemens_Automation_824MSPe.cpp.o
                0x2000028c                Analog_VAC
 .bss.TPS_Set_HMI
                0x20000290        0x1 C:\Users\Haris\AppData\Local\Temp\VMBuilds\Main_Siemens_Automation_824MSPe\haeger_haeger_samd_haeger_mcu2\Debug\Main_Siemens_Automation_824MSPe.cpp.o
                0x20000290                TPS_Set_HMI
 .bss.Dwell_Time_Active
                0x20000291        0x1 C:\Users\Haris\AppData\Local\Temp\VMBuilds\Main_Siemens_Automation_824MSPe\haeger_haeger_samd_haeger_mcu2\Debug\Main_Siemens_Automation_824MSPe.cpp.o
                0x20000291                Dwell_Time_Active
 .bss.Error_Set_HMI
                0x20000292        0x1 C:\Users\Haris\AppData\Local\Temp\VMBuilds\Main_Siemens_Automation_824MSPe\haeger_haeger_samd_haeger_mcu2\Debug\Main_Siemens_Automation_824MSPe.cpp.o
                0x20000292                Error_Set_HMI
 *fill*         0x20000293        0x1 
 .bss.Read_Coil_40
                0x20000294        0x4 C:\Users\Haris\AppData\Local\Temp\VMBuilds\Main_Siemens_Automation_824MSPe\haeger_haeger_samd_haeger_mcu2\Debug\Main_Siemens_Automation_824MSPe.cpp.o
                0x20000294                Read_Coil_40
 .bss.Tooling_Mode_HMI
                0x20000298        0x4 C:\Users\Haris\AppData\Local\Temp\VMBuilds\Main_Siemens_Automation_824MSPe\haeger_haeger_samd_haeger_mcu2\Debug\Main_Siemens_Automation_824MSPe.cpp.o
                0x20000298                Tooling_Mode_HMI
 .bss.Read_Coil_48
                0x2000029c        0x4 C:\Users\Haris\AppData\Local\Temp\VMBuilds\Main_Siemens_Automation_824MSPe\haeger_haeger_samd_haeger_mcu2\Debug\Main_Siemens_Automation_824MSPe.cpp.o
                0x2000029c                Read_Coil_48
 .bss.Robot_Error_Reset_Input
                0x200002a0        0x1 C:\Users\Haris\AppData\Local\Temp\VMBuilds\Main_Siemens_Automation_824MSPe\haeger_haeger_samd_haeger_mcu2\Debug\Main_Siemens_Automation_824MSPe.cpp.o
                0x200002a0                Robot_Error_Reset_Input
 .bss.Lower_Tool_Pin_Up_Sensor
                0x200002a1        0x1 C:\Users\Haris\AppData\Local\Temp\VMBuilds\Main_Siemens_Automation_824MSPe\haeger_haeger_samd_haeger_mcu2\Debug\Main_Siemens_Automation_824MSPe.cpp.o
                0x200002a1                Lower_Tool_Pin_Up_Sensor
 .bss.Lower_Tool_Pin_Down_Sensor
                0x200002a2        0x1 C:\Users\Haris\AppData\Local\Temp\VMBuilds\Main_Siemens_Automation_824MSPe\haeger_haeger_samd_haeger_mcu2\Debug\Main_Siemens_Automation_824MSPe.cpp.o
                0x200002a2                Lower_Tool_Pin_Down_Sensor
 .bss.Shuttle_Retract_Error
                0x200002a3        0x1 C:\Users\Haris\AppData\Local\Temp\VMBuilds\Main_Siemens_Automation_824MSPe\haeger_haeger_samd_haeger_mcu2\Debug\Main_Siemens_Automation_824MSPe.cpp.o
                0x200002a3                Shuttle_Retract_Error
 .bss.Lower_Tool_Pin_Up_Sensor_MCU2
                0x200002a4        0x1 C:\Users\Haris\AppData\Local\Temp\VMBuilds\Main_Siemens_Automation_824MSPe\haeger_haeger_samd_haeger_mcu2\Debug\Main_Siemens_Automation_824MSPe.cpp.o
                0x200002a4                Lower_Tool_Pin_Up_Sensor_MCU2
 *fill*         0x200002a5        0x3 
 .bss.device    0x200002a8       0x64 C:\Users\Haris\AppData\Local\Temp\VMBuilds\Main_Siemens_Automation_824MSPe\haeger_haeger_samd_haeger_mcu2\Debug\Main_Siemens_Automation_824MSPe.cpp.o
                0x200002a8                device
 .bss.Robot_Error_Reset_MCU2
                0x2000030c        0x1 C:\Users\Haris\AppData\Local\Temp\VMBuilds\Main_Siemens_Automation_824MSPe\haeger_haeger_samd_haeger_mcu2\Debug\Main_Siemens_Automation_824MSPe.cpp.o
                0x2000030c                Robot_Error_Reset_MCU2
 *fill*         0x2000030d        0x3 
 .bss.Fastener_Detection_Retry_HMI
                0x20000310        0x4 C:\Users\Haris\AppData\Local\Temp\VMBuilds\Main_Siemens_Automation_824MSPe\haeger_haeger_samd_haeger_mcu2\Debug\Main_Siemens_Automation_824MSPe.cpp.o
                0x20000310                Fastener_Detection_Retry_HMI
 .bss.mySerial  0x20000314        0x8 C:\Users\Haris\AppData\Local\Temp\VMBuilds\Main_Siemens_Automation_824MSPe\haeger_haeger_samd_haeger_mcu2\Debug\Main_Siemens_Automation_824MSPe.cpp.o
                0x20000314                mySerial
 .bss.Fastener_Length_Sensitifity_HMI
                0x2000031c        0x4 C:\Users\Haris\AppData\Local\Temp\VMBuilds\Main_Siemens_Automation_824MSPe\haeger_haeger_samd_haeger_mcu2\Debug\Main_Siemens_Automation_824MSPe.cpp.o
                0x2000031c                Fastener_Length_Sensitifity_HMI
 .bss.Robot_Press_Active_MCU2
                0x20000320        0x1 C:\Users\Haris\AppData\Local\Temp\VMBuilds\Main_Siemens_Automation_824MSPe\haeger_haeger_samd_haeger_mcu2\Debug\Main_Siemens_Automation_824MSPe.cpp.o
                0x20000320                Robot_Press_Active_MCU2
 *fill*         0x20000321        0x3 
 .bss.Fastener_Detection_Zone
                0x20000324        0x4 C:\Users\Haris\AppData\Local\Temp\VMBuilds\Main_Siemens_Automation_824MSPe\haeger_haeger_samd_haeger_mcu2\Debug\Main_Siemens_Automation_824MSPe.cpp.o
                0x20000324                Fastener_Detection_Zone
 .bss.Setup_Stroke_HMI
                0x20000328        0x1 C:\Users\Haris\AppData\Local\Temp\VMBuilds\Main_Siemens_Automation_824MSPe\haeger_haeger_samd_haeger_mcu2\Debug\Main_Siemens_Automation_824MSPe.cpp.o
                0x20000328                Setup_Stroke_HMI
 *fill*         0x20000329        0x3 
 .bss.Fastener_Detection_Baseline_HMI
                0x2000032c        0x4 C:\Users\Haris\AppData\Local\Temp\VMBuilds\Main_Siemens_Automation_824MSPe\haeger_haeger_samd_haeger_mcu2\Debug\Main_Siemens_Automation_824MSPe.cpp.o
                0x2000032c                Fastener_Detection_Baseline_HMI
 .bss.PRESSUREWITCH
                0x20000330       0x38 C:\Users\Haris\AppData\Local\Temp\VMBuilds\Main_Siemens_Automation_824MSPe\haeger_haeger_samd_haeger_mcu2\Debug\Main_Siemens_Automation_824MSPe.cpp.o
                0x20000330                PRESSUREWITCH
 .bss.Safety_Sensor_Switched_State
                0x20000368        0x1 C:\Users\Haris\AppData\Local\Temp\VMBuilds\Main_Siemens_Automation_824MSPe\haeger_haeger_samd_haeger_mcu2\Debug\Main_Siemens_Automation_824MSPe.cpp.o
                0x20000368                Safety_Sensor_Switched_State
 .bss.Hyd_Cyl_Down_Release_Active
                0x20000369        0x1 C:\Users\Haris\AppData\Local\Temp\VMBuilds\Main_Siemens_Automation_824MSPe\haeger_haeger_samd_haeger_mcu2\Debug\Main_Siemens_Automation_824MSPe.cpp.o
                0x20000369                Hyd_Cyl_Down_Release_Active
 .bss.Press_Complete
                0x2000036a        0x1 C:\Users\Haris\AppData\Local\Temp\VMBuilds\Main_Siemens_Automation_824MSPe\haeger_haeger_samd_haeger_mcu2\Debug\Main_Siemens_Automation_824MSPe.cpp.o
                0x2000036a                Press_Complete
 *fill*         0x2000036b        0x1 
 .bss.Vacuum_Mode_HMI
                0x2000036c        0x4 C:\Users\Haris\AppData\Local\Temp\VMBuilds\Main_Siemens_Automation_824MSPe\haeger_haeger_samd_haeger_mcu2\Debug\Main_Siemens_Automation_824MSPe.cpp.o
                0x2000036c                Vacuum_Mode_HMI
 .bss.Hyd_Cyl_Dow_Release_Active_1
                0x20000370        0x1 C:\Users\Haris\AppData\Local\Temp\VMBuilds\Main_Siemens_Automation_824MSPe\haeger_haeger_samd_haeger_mcu2\Debug\Main_Siemens_Automation_824MSPe.cpp.o
                0x20000370                Hyd_Cyl_Dow_Release_Active_1
 .bss.MCU_Lower_Tool_Pin_Down_Output
                0x20000371        0x1 C:\Users\Haris\AppData\Local\Temp\VMBuilds\Main_Siemens_Automation_824MSPe\haeger_haeger_samd_haeger_mcu2\Debug\Main_Siemens_Automation_824MSPe.cpp.o
                0x20000371                MCU_Lower_Tool_Pin_Down_Output
 *fill*         0x20000372        0x2 
 .bss.tempus    0x20000374        0x4 C:\Users\Haris\AppData\Local\Temp\VMBuilds\Main_Siemens_Automation_824MSPe\haeger_haeger_samd_haeger_mcu2\Debug\Main_Siemens_Automation_824MSPe.cpp.o
                0x20000374                tempus
 .bss.Robot_Press_Signal_Active
                0x20000378        0x1 C:\Users\Haris\AppData\Local\Temp\VMBuilds\Main_Siemens_Automation_824MSPe\haeger_haeger_samd_haeger_mcu2\Debug\Main_Siemens_Automation_824MSPe.cpp.o
                0x20000378                Robot_Press_Signal_Active
 .bss.Press_Complete_Active
                0x20000379        0x1 C:\Users\Haris\AppData\Local\Temp\VMBuilds\Main_Siemens_Automation_824MSPe\haeger_haeger_samd_haeger_mcu2\Debug\Main_Siemens_Automation_824MSPe.cpp.o
                0x20000379                Press_Complete_Active
 *fill*         0x2000037a        0x2 
 .bss.TOS       0x2000037c        0x4 C:\Users\Haris\AppData\Local\Temp\VMBuilds\Main_Siemens_Automation_824MSPe\haeger_haeger_samd_haeger_mcu2\Debug\Main_Siemens_Automation_824MSPe.cpp.o
                0x2000037c                TOS
 .bss.MAS_Feed_HMI
                0x20000380        0x1 C:\Users\Haris\AppData\Local\Temp\VMBuilds\Main_Siemens_Automation_824MSPe\haeger_haeger_samd_haeger_mcu2\Debug\Main_Siemens_Automation_824MSPe.cpp.o
                0x20000380                MAS_Feed_HMI
 *fill*         0x20000381        0x3 
 .bss.MAS_Eject_Time_HMI
                0x20000384        0x4 C:\Users\Haris\AppData\Local\Temp\VMBuilds\Main_Siemens_Automation_824MSPe\haeger_haeger_samd_haeger_mcu2\Debug\Main_Siemens_Automation_824MSPe.cpp.o
                0x20000384                MAS_Eject_Time_HMI
 .bss.MAS_Feed_Fastener_Active
                0x20000388        0x1 C:\Users\Haris\AppData\Local\Temp\VMBuilds\Main_Siemens_Automation_824MSPe\haeger_haeger_samd_haeger_mcu2\Debug\Main_Siemens_Automation_824MSPe.cpp.o
                0x20000388                MAS_Feed_Fastener_Active
 *fill*         0x20000389        0x3 
 .bss.Error_Screen_Active_HMI
                0x2000038c        0x4 C:\Users\Haris\AppData\Local\Temp\VMBuilds\Main_Siemens_Automation_824MSPe\haeger_haeger_samd_haeger_mcu2\Debug\Main_Siemens_Automation_824MSPe.cpp.o
                0x2000038c                Error_Screen_Active_HMI
 .bss.Analog_CET
                0x20000390        0x4 C:\Users\Haris\AppData\Local\Temp\VMBuilds\Main_Siemens_Automation_824MSPe\haeger_haeger_samd_haeger_mcu2\Debug\Main_Siemens_Automation_824MSPe.cpp.o
                0x20000390                Analog_CET
 .bss.Fastener_Length_Calibrated_Value_HMI
                0x20000394        0x4 C:\Users\Haris\AppData\Local\Temp\VMBuilds\Main_Siemens_Automation_824MSPe\haeger_haeger_samd_haeger_mcu2\Debug\Main_Siemens_Automation_824MSPe.cpp.o
                0x20000394                Fastener_Length_Calibrated_Value_HMI
 .bss.state     0x20000398        0x1 C:\Users\Haris\AppData\Local\Temp\VMBuilds\Main_Siemens_Automation_824MSPe\haeger_haeger_samd_haeger_mcu2\Debug\Main_Siemens_Automation_824MSPe.cpp.o
                0x20000398                state
 *fill*         0x20000399        0x3 
 .bss.Write_Coil_34
                0x2000039c        0x4 C:\Users\Haris\AppData\Local\Temp\VMBuilds\Main_Siemens_Automation_824MSPe\haeger_haeger_samd_haeger_mcu2\Debug\Main_Siemens_Automation_824MSPe.cpp.o
                0x2000039c                Write_Coil_34
 .bss.Machine_Idle_State
                0x200003a0        0x1 C:\Users\Haris\AppData\Local\Temp\VMBuilds\Main_Siemens_Automation_824MSPe\haeger_haeger_samd_haeger_mcu2\Debug\Main_Siemens_Automation_824MSPe.cpp.o
                0x200003a0                Machine_Idle_State
 *fill*         0x200003a1        0x3 
 .bss.Write_Coil_38
                0x200003a4        0x4 C:\Users\Haris\AppData\Local\Temp\VMBuilds\Main_Siemens_Automation_824MSPe\haeger_haeger_samd_haeger_mcu2\Debug\Main_Siemens_Automation_824MSPe.cpp.o
                0x200003a4                Write_Coil_38
 .bss.Robot_Shuttle_Lock_MCU2
                0x200003a8        0x1 C:\Users\Haris\AppData\Local\Temp\VMBuilds\Main_Siemens_Automation_824MSPe\haeger_haeger_samd_haeger_mcu2\Debug\Main_Siemens_Automation_824MSPe.cpp.o
                0x200003a8                Robot_Shuttle_Lock_MCU2
 .bss.SSSF_Safety_Sensor_Error
                0x200003a9        0x1 C:\Users\Haris\AppData\Local\Temp\VMBuilds\Main_Siemens_Automation_824MSPe\haeger_haeger_samd_haeger_mcu2\Debug\Main_Siemens_Automation_824MSPe.cpp.o
                0x200003a9                SSSF_Safety_Sensor_Error
 .bss.FLD_Measurment_Active
                0x200003aa        0x1 C:\Users\Haris\AppData\Local\Temp\VMBuilds\Main_Siemens_Automation_824MSPe\haeger_haeger_samd_haeger_mcu2\Debug\Main_Siemens_Automation_824MSPe.cpp.o
                0x200003aa                FLD_Measurment_Active
 *fill*         0x200003ab        0x1 
 .bss.Write_Coil_73
                0x200003ac        0x4 C:\Users\Haris\AppData\Local\Temp\VMBuilds\Main_Siemens_Automation_824MSPe\haeger_haeger_samd_haeger_mcu2\Debug\Main_Siemens_Automation_824MSPe.cpp.o
                0x200003ac                Write_Coil_73
 .bss.Timer1_Start
                0x200003b0        0x1 C:\Users\Haris\AppData\Local\Temp\VMBuilds\Main_Siemens_Automation_824MSPe\haeger_haeger_samd_haeger_mcu2\Debug\Main_Siemens_Automation_824MSPe.cpp.o
                0x200003b0                Timer1_Start
 .bss.ConductiveM_HMI
                0x200003b1        0x1 C:\Users\Haris\AppData\Local\Temp\VMBuilds\Main_Siemens_Automation_824MSPe\haeger_haeger_samd_haeger_mcu2\Debug\Main_Siemens_Automation_824MSPe.cpp.o
                0x200003b1                ConductiveM_HMI
 .bss.Lower_Tool_Pin_Down_Sensor_MCU2
                0x200003b2        0x1 C:\Users\Haris\AppData\Local\Temp\VMBuilds\Main_Siemens_Automation_824MSPe\haeger_haeger_samd_haeger_mcu2\Debug\Main_Siemens_Automation_824MSPe.cpp.o
                0x200003b2                Lower_Tool_Pin_Down_Sensor_MCU2
 *fill*         0x200003b3        0x1 
 .bss.Fastener_Detection_Shuttle_Calibration_Pos_HMI
                0x200003b4        0x4 C:\Users\Haris\AppData\Local\Temp\VMBuilds\Main_Siemens_Automation_824MSPe\haeger_haeger_samd_haeger_mcu2\Debug\Main_Siemens_Automation_824MSPe.cpp.o
                0x200003b4                Fastener_Detection_Shuttle_Calibration_Pos_HMI
 .bss.au16data  0x200003b8       0xf6 C:\Users\Haris\AppData\Local\Temp\VMBuilds\Main_Siemens_Automation_824MSPe\haeger_haeger_samd_haeger_mcu2\Debug\Main_Siemens_Automation_824MSPe.cpp.o
                0x200003b8                au16data
 .bss.Run_Setup_Mode_HMI
                0x200004ae        0x1 C:\Users\Haris\AppData\Local\Temp\VMBuilds\Main_Siemens_Automation_824MSPe\haeger_haeger_samd_haeger_mcu2\Debug\Main_Siemens_Automation_824MSPe.cpp.o
                0x200004ae                Run_Setup_Mode_HMI
 .bss.Shuttle_Extend_Check
                0x200004af        0x1 C:\Users\Haris\AppData\Local\Temp\VMBuilds\Main_Siemens_Automation_824MSPe\haeger_haeger_samd_haeger_mcu2\Debug\All_At_Position_Function.cpp.o
                0x200004af                Shuttle_Extend_Check
 .bss.Fastener_Detection_Error_Lock1
                0x200004b0        0x1 C:\Users\Haris\AppData\Local\Temp\VMBuilds\Main_Siemens_Automation_824MSPe\haeger_haeger_samd_haeger_mcu2\Debug\All_At_Position_Function.cpp.o
                0x200004b0                Fastener_Detection_Error_Lock1
 .bss.Fastener_Detection_Error_Lock2
                0x200004b1        0x1 C:\Users\Haris\AppData\Local\Temp\VMBuilds\Main_Siemens_Automation_824MSPe\haeger_haeger_samd_haeger_mcu2\Debug\All_At_Position_Function.cpp.o
                0x200004b1                Fastener_Detection_Error_Lock2
 .bss.Deactivate_All_At_Position
                0x200004b2        0x1 C:\Users\Haris\AppData\Local\Temp\VMBuilds\Main_Siemens_Automation_824MSPe\haeger_haeger_samd_haeger_mcu2\Debug\All_At_Position_Function.cpp.o
                0x200004b2                Deactivate_All_At_Position
 *fill*         0x200004b3        0x1 
 .bss.CetValue_All_At_Position_Function
                0x200004b4        0x4 C:\Users\Haris\AppData\Local\Temp\VMBuilds\Main_Siemens_Automation_824MSPe\haeger_haeger_samd_haeger_mcu2\Debug\All_At_Position_Function.cpp.o
                0x200004b4                CetValue_All_At_Position_Function
 .bss.Read_SS_Coil_Active
                0x200004b8        0x1 C:\Users\Haris\AppData\Local\Temp\VMBuilds\Main_Siemens_Automation_824MSPe\haeger_haeger_samd_haeger_mcu2\Debug\Conductive_Mode_Function.cpp.o
                0x200004b8                Read_SS_Coil_Active
 *fill*         0x200004b9        0x3 
 .bss.INTERVAL_7
                0x200004bc        0x4 C:\Users\Haris\AppData\Local\Temp\VMBuilds\Main_Siemens_Automation_824MSPe\haeger_haeger_samd_haeger_mcu2\Debug\Dwell_Time_Function.cpp.o
                0x200004bc                INTERVAL_7
 .bss.Timer_7   0x200004c0        0x4 C:\Users\Haris\AppData\Local\Temp\VMBuilds\Main_Siemens_Automation_824MSPe\haeger_haeger_samd_haeger_mcu2\Debug\Dwell_Time_Function.cpp.o
                0x200004c0                Timer_7
 .bss.TimedOut_7
                0x200004c4        0x1 C:\Users\Haris\AppData\Local\Temp\VMBuilds\Main_Siemens_Automation_824MSPe\haeger_haeger_samd_haeger_mcu2\Debug\Dwell_Time_Function.cpp.o
                0x200004c4                TimedOut_7
 .bss.FD_Delay  0x200004c5        0x1 C:\Users\Haris\AppData\Local\Temp\VMBuilds\Main_Siemens_Automation_824MSPe\haeger_haeger_samd_haeger_mcu2\Debug\Fastener_Detection_Function.cpp.o
                0x200004c5                FD_Delay
 *fill*         0x200004c6        0x2 
 .bss.VacValue_Fastener_Detection_Function
                0x200004c8        0x4 C:\Users\Haris\AppData\Local\Temp\VMBuilds\Main_Siemens_Automation_824MSPe\haeger_haeger_samd_haeger_mcu2\Debug\Fastener_Detection_Function.cpp.o
                0x200004c8                VacValue_Fastener_Detection_Function
 .bss.FDCount   0x200004cc        0x4 C:\Users\Haris\AppData\Local\Temp\VMBuilds\Main_Siemens_Automation_824MSPe\haeger_haeger_samd_haeger_mcu2\Debug\Fastener_Detection_Function.cpp.o
                0x200004cc                FDCount
 .bss.INTERVAL_10
                0x200004d0        0x4 C:\Users\Haris\AppData\Local\Temp\VMBuilds\Main_Siemens_Automation_824MSPe\haeger_haeger_samd_haeger_mcu2\Debug\Fastener_Detection_Function.cpp.o
                0x200004d0                INTERVAL_10
 .bss.CetValue_Fastener_Detection_Function
                0x200004d4        0x4 C:\Users\Haris\AppData\Local\Temp\VMBuilds\Main_Siemens_Automation_824MSPe\haeger_haeger_samd_haeger_mcu2\Debug\Fastener_Detection_Function.cpp.o
                0x200004d4                CetValue_Fastener_Detection_Function
 .bss.Read_FD_Coil_Active
                0x200004d8        0x1 C:\Users\Haris\AppData\Local\Temp\VMBuilds\Main_Siemens_Automation_824MSPe\haeger_haeger_samd_haeger_mcu2\Debug\Fastener_Detection_Function.cpp.o
                0x200004d8                Read_FD_Coil_Active
 *fill*         0x200004d9        0x3 
 .bss.Timer_10  0x200004dc        0x4 C:\Users\Haris\AppData\Local\Temp\VMBuilds\Main_Siemens_Automation_824MSPe\haeger_haeger_samd_haeger_mcu2\Debug\Fastener_Detection_Function.cpp.o
                0x200004dc                Timer_10
 .bss.TimedOut_10
                0x200004e0        0x1 C:\Users\Haris\AppData\Local\Temp\VMBuilds\Main_Siemens_Automation_824MSPe\haeger_haeger_samd_haeger_mcu2\Debug\Fastener_Detection_Function.cpp.o
                0x200004e0                TimedOut_10
 .bss.FDCount_Disable
                0x200004e1        0x1 C:\Users\Haris\AppData\Local\Temp\VMBuilds\Main_Siemens_Automation_824MSPe\haeger_haeger_samd_haeger_mcu2\Debug\Fastener_Detection_Function.cpp.o
                0x200004e1                FDCount_Disable
 *fill*         0x200004e2        0x2 
 .bss.CetValue_Fastener_Length_Function
                0x200004e4        0x4 C:\Users\Haris\AppData\Local\Temp\VMBuilds\Main_Siemens_Automation_824MSPe\haeger_haeger_samd_haeger_mcu2\Debug\Fastener_Length_Function.cpp.o
                0x200004e4                CetValue_Fastener_Length_Function
 .bss.INTERVAL_11
                0x200004e8        0x4 C:\Users\Haris\AppData\Local\Temp\VMBuilds\Main_Siemens_Automation_824MSPe\haeger_haeger_samd_haeger_mcu2\Debug\Fastener_Length_Function.cpp.o
                0x200004e8                INTERVAL_11
 .bss.FL_Delay  0x200004ec        0x1 C:\Users\Haris\AppData\Local\Temp\VMBuilds\Main_Siemens_Automation_824MSPe\haeger_haeger_samd_haeger_mcu2\Debug\Fastener_Length_Function.cpp.o
                0x200004ec                FL_Delay
 .bss.Read_FLD_Coil_Active
                0x200004ed        0x1 C:\Users\Haris\AppData\Local\Temp\VMBuilds\Main_Siemens_Automation_824MSPe\haeger_haeger_samd_haeger_mcu2\Debug\Fastener_Length_Function.cpp.o
                0x200004ed                Read_FLD_Coil_Active
 *fill*         0x200004ee        0x2 
 .bss.Timer_11  0x200004f0        0x4 C:\Users\Haris\AppData\Local\Temp\VMBuilds\Main_Siemens_Automation_824MSPe\haeger_haeger_samd_haeger_mcu2\Debug\Fastener_Length_Function.cpp.o
                0x200004f0                Timer_11
 .bss.TimedOut_11
                0x200004f4        0x1 C:\Users\Haris\AppData\Local\Temp\VMBuilds\Main_Siemens_Automation_824MSPe\haeger_haeger_samd_haeger_mcu2\Debug\Fastener_Length_Function.cpp.o
                0x200004f4                TimedOut_11
 *fill*         0x200004f5        0x3 
 .bss.INTERVAL_3
                0x200004f8        0x4 C:\Users\Haris\AppData\Local\Temp\VMBuilds\Main_Siemens_Automation_824MSPe\haeger_haeger_samd_haeger_mcu2\Debug\Feed_Fastener_Function.cpp.o
                0x200004f8                INTERVAL_3
 .bss.Timer_3   0x200004fc        0x4 C:\Users\Haris\AppData\Local\Temp\VMBuilds\Main_Siemens_Automation_824MSPe\haeger_haeger_samd_haeger_mcu2\Debug\Feed_Fastener_Function.cpp.o
                0x200004fc                Timer_3
 .bss.TimedOut_3
                0x20000500        0x1 C:\Users\Haris\AppData\Local\Temp\VMBuilds\Main_Siemens_Automation_824MSPe\haeger_haeger_samd_haeger_mcu2\Debug\Feed_Fastener_Function.cpp.o
                0x20000500                TimedOut_3
 .bss.Local_Up_Active
                0x20000501        0x1 C:\Users\Haris\AppData\Local\Temp\VMBuilds\Main_Siemens_Automation_824MSPe\haeger_haeger_samd_haeger_mcu2\Debug\Footpedal_Function.cpp.o
                0x20000501                Local_Up_Active
 .bss.Down_Pedal_Release
                0x20000502        0x1 C:\Users\Haris\AppData\Local\Temp\VMBuilds\Main_Siemens_Automation_824MSPe\haeger_haeger_samd_haeger_mcu2\Debug\Footpedal_Function.cpp.o
                0x20000502                Down_Pedal_Release
 .bss.TimedOut_9
                0x20000503        0x1 C:\Users\Haris\AppData\Local\Temp\VMBuilds\Main_Siemens_Automation_824MSPe\haeger_haeger_samd_haeger_mcu2\Debug\Hydraulic_Cylinder_Function.cpp.o
                0x20000503                TimedOut_9
 .bss.INTERVAL_9
                0x20000504        0x4 C:\Users\Haris\AppData\Local\Temp\VMBuilds\Main_Siemens_Automation_824MSPe\haeger_haeger_samd_haeger_mcu2\Debug\Hydraulic_Cylinder_Function.cpp.o
                0x20000504                INTERVAL_9
 .bss.Shuttle_Selection_Up_Travel
                0x20000508        0x1 C:\Users\Haris\AppData\Local\Temp\VMBuilds\Main_Siemens_Automation_824MSPe\haeger_haeger_samd_haeger_mcu2\Debug\Hydraulic_Cylinder_Function.cpp.o
                0x20000508                Shuttle_Selection_Up_Travel
 .bss.TPS_Lock_Reset
                0x20000509        0x1 C:\Users\Haris\AppData\Local\Temp\VMBuilds\Main_Siemens_Automation_824MSPe\haeger_haeger_samd_haeger_mcu2\Debug\Hydraulic_Cylinder_Function.cpp.o
                0x20000509                TPS_Lock_Reset
 .bss.TPS_Cylinder_Lock
                0x2000050a        0x1 C:\Users\Haris\AppData\Local\Temp\VMBuilds\Main_Siemens_Automation_824MSPe\haeger_haeger_samd_haeger_mcu2\Debug\Hydraulic_Cylinder_Function.cpp.o
                0x2000050a                TPS_Cylinder_Lock
 *fill*         0x2000050b        0x1 
 .bss.Timer_9   0x2000050c        0x4 C:\Users\Haris\AppData\Local\Temp\VMBuilds\Main_Siemens_Automation_824MSPe\haeger_haeger_samd_haeger_mcu2\Debug\Hydraulic_Cylinder_Function.cpp.o
                0x2000050c                Timer_9
 .bss.Tool_Mode_Lock
                0x20000510        0x1 C:\Users\Haris\AppData\Local\Temp\VMBuilds\Main_Siemens_Automation_824MSPe\haeger_haeger_samd_haeger_mcu2\Debug\Hydraulic_Cylinder_Function.cpp.o
                0x20000510                Tool_Mode_Lock
 *fill*         0x20000511        0x3 
 .bss.CetValue_Hydraulic_Cylinder_Function
                0x20000514        0x4 C:\Users\Haris\AppData\Local\Temp\VMBuilds\Main_Siemens_Automation_824MSPe\haeger_haeger_samd_haeger_mcu2\Debug\Hydraulic_Cylinder_Function.cpp.o
                0x20000514                CetValue_Hydraulic_Cylinder_Function
 .bss.MCU1_Start_Bit
                0x20000518        0x1 C:\Users\Haris\AppData\Local\Temp\VMBuilds\Main_Siemens_Automation_824MSPe\haeger_haeger_samd_haeger_mcu2\Debug\Initialization_Function.cpp.o
                0x20000518                MCU1_Start_Bit
 *fill*         0x20000519        0x3 
 .bss.INTERVAL_4
                0x2000051c        0x4 C:\Users\Haris\AppData\Local\Temp\VMBuilds\Main_Siemens_Automation_824MSPe\haeger_haeger_samd_haeger_mcu2\Debug\MAS_Blow_Off_Function.cpp.o
                0x2000051c                INTERVAL_4
 .bss.Timer_4   0x20000520        0x4 C:\Users\Haris\AppData\Local\Temp\VMBuilds\Main_Siemens_Automation_824MSPe\haeger_haeger_samd_haeger_mcu2\Debug\MAS_Blow_Off_Function.cpp.o
                0x20000520                Timer_4
 .bss.TimedOut_4
                0x20000524        0x1 C:\Users\Haris\AppData\Local\Temp\VMBuilds\Main_Siemens_Automation_824MSPe\haeger_haeger_samd_haeger_mcu2\Debug\MAS_Blow_Off_Function.cpp.o
                0x20000524                TimedOut_4
 *fill*         0x20000525        0x3 
 .bss.MAS1_Amplifier_Value
                0x20000528        0x4 C:\Users\Haris\AppData\Local\Temp\VMBuilds\Main_Siemens_Automation_824MSPe\haeger_haeger_samd_haeger_mcu2\Debug\MAS_Function.cpp.o
                0x20000528                MAS1_Amplifier_Value
 .bss.Timer_2   0x2000052c        0x4 C:\Users\Haris\AppData\Local\Temp\VMBuilds\Main_Siemens_Automation_824MSPe\haeger_haeger_samd_haeger_mcu2\Debug\MAS_Function.cpp.o
                0x2000052c                Timer_2
 .bss.TimedOut_2
                0x20000530        0x1 C:\Users\Haris\AppData\Local\Temp\VMBuilds\Main_Siemens_Automation_824MSPe\haeger_haeger_samd_haeger_mcu2\Debug\MAS_Function.cpp.o
                0x20000530                TimedOut_2
 *fill*         0x20000531        0x3 
 .bss.INTERVAL_2
                0x20000534        0x4 C:\Users\Haris\AppData\Local\Temp\VMBuilds\Main_Siemens_Automation_824MSPe\haeger_haeger_samd_haeger_mcu2\Debug\MAS_Function.cpp.o
                0x20000534                INTERVAL_2
 .bss.INTERVAL_8
                0x20000538        0x4 C:\Users\Haris\AppData\Local\Temp\VMBuilds\Main_Siemens_Automation_824MSPe\haeger_haeger_samd_haeger_mcu2\Debug\Modbus_Communication_Function.cpp.o
                0x20000538                INTERVAL_8
 .bss.Timer_8   0x2000053c        0x4 C:\Users\Haris\AppData\Local\Temp\VMBuilds\Main_Siemens_Automation_824MSPe\haeger_haeger_samd_haeger_mcu2\Debug\Modbus_Communication_Function.cpp.o
                0x2000053c                Timer_8
 .bss.Swap_Bit  0x20000540        0x1 C:\Users\Haris\AppData\Local\Temp\VMBuilds\Main_Siemens_Automation_824MSPe\haeger_haeger_samd_haeger_mcu2\Debug\Modbus_Communication_Function.cpp.o
                0x20000540                Swap_Bit
 .bss.TimedOut_8
                0x20000541        0x1 C:\Users\Haris\AppData\Local\Temp\VMBuilds\Main_Siemens_Automation_824MSPe\haeger_haeger_samd_haeger_mcu2\Debug\Modbus_Communication_Function.cpp.o
                0x20000541                TimedOut_8
 .bss.Ref_Press_Reached
                0x20000542        0x1 C:\Users\Haris\AppData\Local\Temp\VMBuilds\Main_Siemens_Automation_824MSPe\haeger_haeger_samd_haeger_mcu2\Debug\Press_Complete_Function.cpp.o
                0x20000542                Ref_Press_Reached
 *fill*         0x20000543        0x1 
 .bss.Timer_1   0x20000544        0x4 C:\Users\Haris\AppData\Local\Temp\VMBuilds\Main_Siemens_Automation_824MSPe\haeger_haeger_samd_haeger_mcu2\Debug\Press_Complete_Function.cpp.o
                0x20000544                Timer_1
 .bss.Pressure_Switch_AI
                0x20000548        0x4 C:\Users\Haris\AppData\Local\Temp\VMBuilds\Main_Siemens_Automation_824MSPe\haeger_haeger_samd_haeger_mcu2\Debug\Press_Complete_Function.cpp.o
                0x20000548                Pressure_Switch_AI
 .bss.TimedOut_1
                0x2000054c        0x1 C:\Users\Haris\AppData\Local\Temp\VMBuilds\Main_Siemens_Automation_824MSPe\haeger_haeger_samd_haeger_mcu2\Debug\Press_Complete_Function.cpp.o
                0x2000054c                TimedOut_1
 *fill*         0x2000054d        0x3 
 .bss.CetValue_Safety_Sensor_State_Function
                0x20000550        0x4 C:\Users\Haris\AppData\Local\Temp\VMBuilds\Main_Siemens_Automation_824MSPe\haeger_haeger_samd_haeger_mcu2\Debug\Safety_Sensor_State_Function.cpp.o
                0x20000550                CetValue_Safety_Sensor_State_Function
 .bss.Startup_SS_Check
                0x20000554        0x1 C:\Users\Haris\AppData\Local\Temp\VMBuilds\Main_Siemens_Automation_824MSPe\haeger_haeger_samd_haeger_mcu2\Debug\Safety_Sensor_State_Function.cpp.o
                0x20000554                Startup_SS_Check
 *fill*         0x20000555        0x3 
 .bss.Init_FLD_Values
                0x20000558        0x4 C:\Users\Haris\AppData\Local\Temp\VMBuilds\Main_Siemens_Automation_824MSPe\haeger_haeger_samd_haeger_mcu2\Debug\Setup_Stroke_Fastener_Length_Function.cpp.o
                0x20000558                Init_FLD_Values
 .bss.Stop_Read_FLD_Value
                0x2000055c        0x1 C:\Users\Haris\AppData\Local\Temp\VMBuilds\Main_Siemens_Automation_824MSPe\haeger_haeger_samd_haeger_mcu2\Debug\Setup_Stroke_Fastener_Length_Function.cpp.o
                0x2000055c                Stop_Read_FLD_Value
 .bss.Stop_Read_TPS_U_Value
                0x2000055d        0x1 C:\Users\Haris\AppData\Local\Temp\VMBuilds\Main_Siemens_Automation_824MSPe\haeger_haeger_samd_haeger_mcu2\Debug\Setup_Stroke_TPS_Function.cpp.o
                0x2000055d                Stop_Read_TPS_U_Value
 .bss.Init_TPS_Values
                0x2000055e        0x1 C:\Users\Haris\AppData\Local\Temp\VMBuilds\Main_Siemens_Automation_824MSPe\haeger_haeger_samd_haeger_mcu2\Debug\Setup_Stroke_TPS_Function.cpp.o
                0x2000055e                Init_TPS_Values
 *fill*         0x2000055f        0x1 
 .bss.VacCountWithFast
                0x20000560        0x4 C:\Users\Haris\AppData\Local\Temp\VMBuilds\Main_Siemens_Automation_824MSPe\haeger_haeger_samd_haeger_mcu2\Debug\Setup_Stroke_Vacuum_Detection_Function.cpp.o
                0x20000560                VacCountWithFast
 .bss.VacResultWithoutFast
                0x20000564        0x4 C:\Users\Haris\AppData\Local\Temp\VMBuilds\Main_Siemens_Automation_824MSPe\haeger_haeger_samd_haeger_mcu2\Debug\Setup_Stroke_Vacuum_Detection_Function.cpp.o
                0x20000564                VacResultWithoutFast
 .bss.Vacuum_Without_Fastener
                0x20000568        0x4 C:\Users\Haris\AppData\Local\Temp\VMBuilds\Main_Siemens_Automation_824MSPe\haeger_haeger_samd_haeger_mcu2\Debug\Setup_Stroke_Vacuum_Detection_Function.cpp.o
                0x20000568                Vacuum_Without_Fastener
 .bss.Vacuum_With_Fastener
                0x2000056c        0x4 C:\Users\Haris\AppData\Local\Temp\VMBuilds\Main_Siemens_Automation_824MSPe\haeger_haeger_samd_haeger_mcu2\Debug\Setup_Stroke_Vacuum_Detection_Function.cpp.o
                0x2000056c                Vacuum_With_Fastener
 .bss.VacResultWithFast
                0x20000570        0x4 C:\Users\Haris\AppData\Local\Temp\VMBuilds\Main_Siemens_Automation_824MSPe\haeger_haeger_samd_haeger_mcu2\Debug\Setup_Stroke_Vacuum_Detection_Function.cpp.o
                0x20000570                VacResultWithFast
 .bss.VacValue_Setup_Stroke_Function
                0x20000574        0x4 C:\Users\Haris\AppData\Local\Temp\VMBuilds\Main_Siemens_Automation_824MSPe\haeger_haeger_samd_haeger_mcu2\Debug\Setup_Stroke_Vacuum_Detection_Function.cpp.o
                0x20000574                VacValue_Setup_Stroke_Function
 .bss.Vacuum_Measurment_Done
                0x20000578        0x1 C:\Users\Haris\AppData\Local\Temp\VMBuilds\Main_Siemens_Automation_824MSPe\haeger_haeger_samd_haeger_mcu2\Debug\Setup_Stroke_Vacuum_Detection_Function.cpp.o
                0x20000578                Vacuum_Measurment_Done
 *fill*         0x20000579        0x3 
 .bss.CetValue_Setup_Stroke_Function
                0x2000057c        0x4 C:\Users\Haris\AppData\Local\Temp\VMBuilds\Main_Siemens_Automation_824MSPe\haeger_haeger_samd_haeger_mcu2\Debug\Setup_Stroke_Vacuum_Detection_Function.cpp.o
                0x2000057c                CetValue_Setup_Stroke_Function
 .bss.Vacuum_Without_Fastener_Set
                0x20000580        0x1 C:\Users\Haris\AppData\Local\Temp\VMBuilds\Main_Siemens_Automation_824MSPe\haeger_haeger_samd_haeger_mcu2\Debug\Setup_Stroke_Vacuum_Detection_Function.cpp.o
                0x20000580                Vacuum_Without_Fastener_Set
 *fill*         0x20000581        0x3 
 .bss.VacCountWithoutFast
                0x20000584        0x4 C:\Users\Haris\AppData\Local\Temp\VMBuilds\Main_Siemens_Automation_824MSPe\haeger_haeger_samd_haeger_mcu2\Debug\Setup_Stroke_Vacuum_Detection_Function.cpp.o
                0x20000584                VacCountWithoutFast
 .bss.Vacuum_With_Fastener_Set
                0x20000588        0x1 C:\Users\Haris\AppData\Local\Temp\VMBuilds\Main_Siemens_Automation_824MSPe\haeger_haeger_samd_haeger_mcu2\Debug\Setup_Stroke_Vacuum_Detection_Function.cpp.o
                0x20000588                Vacuum_With_Fastener_Set
 *fill*         0x20000589        0x3 
 .bss.INTERVAL_5
                0x2000058c        0x4 C:\Users\Haris\AppData\Local\Temp\VMBuilds\Main_Siemens_Automation_824MSPe\haeger_haeger_samd_haeger_mcu2\Debug\Shuttle_Function.cpp.o
                0x2000058c                INTERVAL_5
 .bss.INTERVAL_6
                0x20000590        0x4 C:\Users\Haris\AppData\Local\Temp\VMBuilds\Main_Siemens_Automation_824MSPe\haeger_haeger_samd_haeger_mcu2\Debug\Shuttle_Function.cpp.o
                0x20000590                INTERVAL_6
 .bss.CetValue_Shuttle_Function
                0x20000594        0x4 C:\Users\Haris\AppData\Local\Temp\VMBuilds\Main_Siemens_Automation_824MSPe\haeger_haeger_samd_haeger_mcu2\Debug\Shuttle_Function.cpp.o
                0x20000594                CetValue_Shuttle_Function
 .bss.Read_Shuttle_Coil_Active
                0x20000598        0x1 C:\Users\Haris\AppData\Local\Temp\VMBuilds\Main_Siemens_Automation_824MSPe\haeger_haeger_samd_haeger_mcu2\Debug\Shuttle_Function.cpp.o
                0x20000598                Read_Shuttle_Coil_Active
 *fill*         0x20000599        0x3 
 .bss.Timer_5   0x2000059c        0x4 C:\Users\Haris\AppData\Local\Temp\VMBuilds\Main_Siemens_Automation_824MSPe\haeger_haeger_samd_haeger_mcu2\Debug\Shuttle_Function.cpp.o
                0x2000059c                Timer_5
 .bss.Timer_6   0x200005a0        0x4 C:\Users\Haris\AppData\Local\Temp\VMBuilds\Main_Siemens_Automation_824MSPe\haeger_haeger_samd_haeger_mcu2\Debug\Shuttle_Function.cpp.o
                0x200005a0                Timer_6
 .bss.Up_Movement_Detection
                0x200005a4        0x1 C:\Users\Haris\AppData\Local\Temp\VMBuilds\Main_Siemens_Automation_824MSPe\haeger_haeger_samd_haeger_mcu2\Debug\Shuttle_Function.cpp.o
                0x200005a4                Up_Movement_Detection
 .bss.TimedOut_5
                0x200005a5        0x1 C:\Users\Haris\AppData\Local\Temp\VMBuilds\Main_Siemens_Automation_824MSPe\haeger_haeger_samd_haeger_mcu2\Debug\Shuttle_Function.cpp.o
                0x200005a5                TimedOut_5
 .bss.TimedOut_6
                0x200005a6        0x1 C:\Users\Haris\AppData\Local\Temp\VMBuilds\Main_Siemens_Automation_824MSPe\haeger_haeger_samd_haeger_mcu2\Debug\Shuttle_Function.cpp.o
                0x200005a6                TimedOut_6
 *fill*         0x200005a7        0x1 
 .bss.Shuttle_Retraction_Zone
                0x200005a8        0x4 C:\Users\Haris\AppData\Local\Temp\VMBuilds\Main_Siemens_Automation_824MSPe\haeger_haeger_samd_haeger_mcu2\Debug\Shuttle_Function.cpp.o
                0x200005a8                Shuttle_Retraction_Zone
 .bss.Timer1state
                0x200005ac        0x1 C:\Users\Haris\AppData\Local\Temp\VMBuilds\Main_Siemens_Automation_824MSPe\haeger_haeger_samd_haeger_mcu2\Debug\Timer_Function.cpp.o
                0x200005ac                Timer1state
 .bss.Timer1_Set
                0x200005ad        0x1 C:\Users\Haris\AppData\Local\Temp\VMBuilds\Main_Siemens_Automation_824MSPe\haeger_haeger_samd_haeger_mcu2\Debug\Timer_Function.cpp.o
                0x200005ad                Timer1_Set
 *fill*         0x200005ae        0x2 
 .bss.previousMillisTimer1
                0x200005b0        0x4 C:\Users\Haris\AppData\Local\Temp\VMBuilds\Main_Siemens_Automation_824MSPe\haeger_haeger_samd_haeger_mcu2\Debug\Timer_Function.cpp.o
                0x200005b0                previousMillisTimer1
 .bss.Read_TPS_Coil_Active
                0x200005b4        0x1 C:\Users\Haris\AppData\Local\Temp\VMBuilds\Main_Siemens_Automation_824MSPe\haeger_haeger_samd_haeger_mcu2\Debug\Tooling_Protection_Sytem_Function.cpp.o
                0x200005b4                Read_TPS_Coil_Active
 *fill*         0x200005b5        0x3 
 .bss.CetValue_TPS_Function
                0x200005b8        0x4 C:\Users\Haris\AppData\Local\Temp\VMBuilds\Main_Siemens_Automation_824MSPe\haeger_haeger_samd_haeger_mcu2\Debug\Tooling_Protection_Sytem_Function.cpp.o
                0x200005b8                CetValue_TPS_Function
 .bss.Up_Travel_Local
                0x200005bc        0x4 C:\Users\Haris\AppData\Local\Temp\VMBuilds\Main_Siemens_Automation_824MSPe\haeger_haeger_samd_haeger_mcu2\Debug\Up_Travel_Function.cpp.o
                0x200005bc                Up_Travel_Local
 .bss.CetValue_Up_Travel_Function
                0x200005c0        0x4 C:\Users\Haris\AppData\Local\Temp\VMBuilds\Main_Siemens_Automation_824MSPe\haeger_haeger_samd_haeger_mcu2\Debug\Up_Travel_Function.cpp.o
                0x200005c0                CetValue_Up_Travel_Function
 .bss.Press_Complete_Position_Local
                0x200005c4        0x4 C:\Users\Haris\AppData\Local\Temp\VMBuilds\Main_Siemens_Automation_824MSPe\haeger_haeger_samd_haeger_mcu2\Debug\Up_Travel_Function.cpp.o
                0x200005c4                Press_Complete_Position_Local
 .bss.Vacuum_Active
                0x200005c8        0x1 C:\Users\Haris\AppData\Local\Temp\VMBuilds\Main_Siemens_Automation_824MSPe\haeger_haeger_samd_haeger_mcu2\Debug\Vacuum_Generator_Function.cpp.o
                0x200005c8                Vacuum_Active
 *fill*         0x200005c9        0x3 
 .bss.CetValue_Vacuum_Generator_Function
                0x200005cc        0x4 C:\Users\Haris\AppData\Local\Temp\VMBuilds\Main_Siemens_Automation_824MSPe\haeger_haeger_samd_haeger_mcu2\Debug\Vacuum_Generator_Function.cpp.o
                0x200005cc                CetValue_Vacuum_Generator_Function
 .bss.Serial1   0x200005d0       0xc4 C:\Users\Haris\AppData\Local\Temp\VMBCore\visualmicro\ed00c25992609daaa7a7b547b702356d\variant\variant.cpp.o
                0x200005d0                Serial1
 .bss.sercom3   0x20000694        0x4 C:\Users\Haris\AppData\Local\Temp\VMBCore\visualmicro\ed00c25992609daaa7a7b547b702356d\variant\variant.cpp.o
                0x20000694                sercom3
 .bss.sercom0   0x20000698        0x4 C:\Users\Haris\AppData\Local\Temp\VMBCore\visualmicro\ed00c25992609daaa7a7b547b702356d\variant\variant.cpp.o
                0x20000698                sercom0
 .bss.sercom1   0x2000069c        0x4 C:\Users\Haris\AppData\Local\Temp\VMBCore\visualmicro\ed00c25992609daaa7a7b547b702356d\variant\variant.cpp.o
                0x2000069c                sercom1
 .bss.sercom2   0x200006a0        0x4 C:\Users\Haris\AppData\Local\Temp\VMBCore\visualmicro\ed00c25992609daaa7a7b547b702356d\variant\variant.cpp.o
                0x200006a0                sercom2
 .bss.sercom4   0x200006a4        0x4 C:\Users\Haris\AppData\Local\Temp\VMBCore\visualmicro\ed00c25992609daaa7a7b547b702356d\variant\variant.cpp.o
                0x200006a4                sercom4
 .bss.sercom5   0x200006a8        0x4 C:\Users\Haris\AppData\Local\Temp\VMBCore\visualmicro\ed00c25992609daaa7a7b547b702356d\variant\variant.cpp.o
                0x200006a8                sercom5
 .bss.usb_isr   0x200006ac        0x4 C:\Users\Haris\AppData\Local\Temp\VMBuilds\Main_Siemens_Automation_824MSPe\haeger_haeger_samd_haeger_mcu2\Debug/core.a(cortex_handlers.c.o)
 .bss._ulTickCount
                0x200006b0        0x4 C:\Users\Haris\AppData\Local\Temp\VMBuilds\Main_Siemens_Automation_824MSPe\haeger_haeger_samd_haeger_mcu2\Debug/core.a(delay.c.o)
 .bss.tcEnabled.19844
                0x200006b4        0xd C:\Users\Haris\AppData\Local\Temp\VMBuilds\Main_Siemens_Automation_824MSPe\haeger_haeger_samd_haeger_mcu2\Debug/core.a(wiring_analog.c.o)
 .bss.dacEnabled
                0x200006c1        0x2 C:\Users\Haris\AppData\Local\Temp\VMBuilds\Main_Siemens_Automation_824MSPe\haeger_haeger_samd_haeger_mcu2\Debug/core.a(wiring_analog.c.o)
 *fill*         0x200006c3        0x1 
 .bss.Serial    0x200006c4       0x1c C:\Users\Haris\AppData\Local\Temp\VMBuilds\Main_Siemens_Automation_824MSPe\haeger_haeger_samd_haeger_mcu2\Debug/core.a(CDC.cpp.o)
                0x200006c4                Serial
 .bss._ZL14isEndpointHalt
                0x200006e0        0x1 C:\Users\Haris\AppData\Local\Temp\VMBuilds\Main_Siemens_Automation_824MSPe\haeger_haeger_samd_haeger_mcu2\Debug/core.a(USBCore.cpp.o)
 .bss._pack_buffer
                0x200006e1      0x100 C:\Users\Haris\AppData\Local\Temp\VMBuilds\Main_Siemens_Automation_824MSPe\haeger_haeger_samd_haeger_mcu2\Debug/core.a(USBCore.cpp.o)
                0x200006e1                _pack_buffer
 *fill*         0x200007e1        0x1 
 .bss._pack_size
                0x200007e2        0x2 C:\Users\Haris\AppData\Local\Temp\VMBuilds\Main_Siemens_Automation_824MSPe\haeger_haeger_samd_haeger_mcu2\Debug/core.a(USBCore.cpp.o)
                0x200007e2                _pack_size
 .bss._ZL20LastTransmitTimedOut
                0x200007e4        0x7 C:\Users\Haris\AppData\Local\Temp\VMBuilds\Main_Siemens_Automation_824MSPe\haeger_haeger_samd_haeger_mcu2\Debug/core.a(USBCore.cpp.o)
 *fill*         0x200007eb        0x1 
 .bss._ZL22udd_ep_in_cache_buffer
                0x200007ec      0x1c0 C:\Users\Haris\AppData\Local\Temp\VMBuilds\Main_Siemens_Automation_824MSPe\haeger_haeger_samd_haeger_mcu2\Debug/core.a(USBCore.cpp.o)
 .bss._ZL10txLEDPulse
                0x200009ac        0x1 C:\Users\Haris\AppData\Local\Temp\VMBuilds\Main_Siemens_Automation_824MSPe\haeger_haeger_samd_haeger_mcu2\Debug/core.a(USBCore.cpp.o)
 *fill*         0x200009ad        0x3 
 .bss._ZL23udd_ep_out_cache_buffer
                0x200009b0      0x1c0 C:\Users\Haris\AppData\Local\Temp\VMBuilds\Main_Siemens_Automation_824MSPe\haeger_haeger_samd_haeger_mcu2\Debug/core.a(USBCore.cpp.o)
 .bss._ZL10epHandlers
                0x20000b70       0x1c C:\Users\Haris\AppData\Local\Temp\VMBuilds\Main_Siemens_Automation_824MSPe\haeger_haeger_samd_haeger_mcu2\Debug/core.a(USBCore.cpp.o)
 .bss._pack_message
                0x20000b8c        0x1 C:\Users\Haris\AppData\Local\Temp\VMBuilds\Main_Siemens_Automation_824MSPe\haeger_haeger_samd_haeger_mcu2\Debug/core.a(USBCore.cpp.o)
                0x20000b8c                _pack_message
 .bss._ZL21isRemoteWakeUpEnabled
                0x20000b8d        0x1 C:\Users\Haris\AppData\Local\Temp\VMBuilds\Main_Siemens_Automation_824MSPe\haeger_haeger_samd_haeger_mcu2\Debug/core.a(USBCore.cpp.o)
 .bss._dry_run  0x20000b8e        0x1 C:\Users\Haris\AppData\Local\Temp\VMBuilds\Main_Siemens_Automation_824MSPe\haeger_haeger_samd_haeger_mcu2\Debug/core.a(USBCore.cpp.o)
                0x20000b8e                _dry_run
 .bss.USBDevice
                0x20000b8f        0x1 C:\Users\Haris\AppData\Local\Temp\VMBuilds\Main_Siemens_Automation_824MSPe\haeger_haeger_samd_haeger_mcu2\Debug/core.a(USBCore.cpp.o)
                0x20000b8f                USBDevice
 .bss._usbSetInterface
                0x20000b90        0x4 C:\Users\Haris\AppData\Local\Temp\VMBuilds\Main_Siemens_Automation_824MSPe\haeger_haeger_samd_haeger_mcu2\Debug/core.a(USBCore.cpp.o)
                0x20000b90                _usbSetInterface
 .bss._ZL10rxLEDPulse
                0x20000b94        0x1 C:\Users\Haris\AppData\Local\Temp\VMBuilds\Main_Siemens_Automation_824MSPe\haeger_haeger_samd_haeger_mcu2\Debug/core.a(USBCore.cpp.o)
 *fill*         0x20000b95        0x3 
 .bss.usbd      0x20000b98      0x104 C:\Users\Haris\AppData\Local\Temp\VMBuilds\Main_Siemens_Automation_824MSPe\haeger_haeger_samd_haeger_mcu2\Debug/core.a(USBCore.cpp.o)
                0x20000b98                usbd
 .bss._usbConfiguration
                0x20000c9c        0x4 C:\Users\Haris\AppData\Local\Temp\VMBuilds\Main_Siemens_Automation_824MSPe\haeger_haeger_samd_haeger_mcu2\Debug/core.a(USBCore.cpp.o)
                0x20000c9c                _usbConfiguration
 .bss._ZZ12PluggableUSBvE3obj
                0x20000ca0        0x8 C:\Users\Haris\AppData\Local\Temp\VMBuilds\Main_Siemens_Automation_824MSPe\haeger_haeger_samd_haeger_mcu2\Debug/core.a(PluggableUSB.cpp.o)
 .bss._ZGVZ12PluggableUSBvE3obj
                0x20000ca8        0x4 C:\Users\Haris\AppData\Local\Temp\VMBuilds\Main_Siemens_Automation_824MSPe\haeger_haeger_samd_haeger_mcu2\Debug/core.a(PluggableUSB.cpp.o)
 .bss.__malloc_sbrk_start
                0x20000cac        0x4 c:/users/haris/appdata/local/arduino15/packages/arduino/tools/arm-none-eabi-gcc/4.8.3-2014q1/bin/../lib/gcc/arm-none-eabi/4.8.3/../../../../arm-none-eabi/lib/armv7e-m/fpu\libc_s.a(lib_a-nano-mallocr.o)
                0x20000cac                __malloc_sbrk_start
 .bss.__malloc_free_list
                0x20000cb0        0x4 c:/users/haris/appdata/local/arduino15/packages/arduino/tools/arm-none-eabi-gcc/4.8.3-2014q1/bin/../lib/gcc/arm-none-eabi/4.8.3/../../../../arm-none-eabi/lib/armv7e-m/fpu\libc_s.a(lib_a-nano-mallocr.o)
                0x20000cb0                __malloc_free_list
 .bss.heap_end.4243
                0x20000cb4        0x4 c:/users/haris/appdata/local/arduino15/packages/arduino/tools/arm-none-eabi-gcc/4.8.3-2014q1/bin/../lib/gcc/arm-none-eabi/4.8.3/../../../../arm-none-eabi/lib/armv7e-m/fpu\libnosys.a(sbrk.o)
 *(COMMON)
 COMMON         0x20000cb8        0x4 c:/users/haris/appdata/local/arduino15/packages/arduino/tools/arm-none-eabi-gcc/4.8.3-2014q1/bin/../lib/gcc/arm-none-eabi/4.8.3/../../../../arm-none-eabi/lib/armv7e-m/fpu\libc_s.a(lib_a-reent.o)
                0x20000cb8                errno
                0x20000cbc                . = ALIGN (0x4)
                0x20000cbc                __bss_end__ = .

.heap           0x20000cbc        0x0
                0x20000cbc                __end__ = .
                0x20000cbc                PROVIDE (end, .)
 *(.heap*)
                0x20000cbc                __HeapLimit = .

.stack_dummy    0x20000cbc        0x0
 *(.stack*)
                0x20030000                __StackTop = (ORIGIN (RAM) + 0x30000)
                0x20030000                __StackLimit = (__StackTop - SIZEOF (.stack_dummy))
                0x20030000                PROVIDE (__stack, __StackTop)
                0x2002ffff                __ram_end__ = ((ORIGIN (RAM) + 0x30000) - 0x1)
                0x00000001                ASSERT ((__StackLimit >= __HeapLimit), region RAM overflowed with stack)
OUTPUT(C:\Users\Haris\AppData\Local\Temp\VMBuilds\Main_Siemens_Automation_824MSPe\haeger_haeger_samd_haeger_mcu2\Debug/Main_Siemens_Automation_824MSPe.ino.elf elf32-littlearm)

.ARM.attributes
                0x00000000       0x30
 .ARM.attributes
                0x00000000       0x22 c:/users/haris/appdata/local/arduino15/packages/arduino/tools/arm-none-eabi-gcc/4.8.3-2014q1/bin/../lib/gcc/arm-none-eabi/4.8.3/armv7e-m/fpu/crti.o
 .ARM.attributes
                0x00000022       0x34 c:/users/haris/appdata/local/arduino15/packages/arduino/tools/arm-none-eabi-gcc/4.8.3-2014q1/bin/../lib/gcc/arm-none-eabi/4.8.3/armv7e-m/fpu/crtbegin.o
 .ARM.attributes
                0x00000056       0x39 C:\Users\Haris\AppData\Local\Temp\VMBuilds\Main_Siemens_Automation_824MSPe\haeger_haeger_samd_haeger_mcu2\Debug\Main_Siemens_Automation_824MSPe.cpp.o
 .ARM.attributes
                0x0000008f       0x39 C:\Users\Haris\AppData\Local\Temp\VMBuilds\Main_Siemens_Automation_824MSPe\haeger_haeger_samd_haeger_mcu2\Debug\Alarm_Function.cpp.o
 .ARM.attributes
                0x000000c8       0x39 C:\Users\Haris\AppData\Local\Temp\VMBuilds\Main_Siemens_Automation_824MSPe\haeger_haeger_samd_haeger_mcu2\Debug\All_At_Position_Function.cpp.o
 .ARM.attributes
                0x00000101       0x39 C:\Users\Haris\AppData\Local\Temp\VMBuilds\Main_Siemens_Automation_824MSPe\haeger_haeger_samd_haeger_mcu2\Debug\Conductive_Mode_Function.cpp.o
 .ARM.attributes
                0x0000013a       0x39 C:\Users\Haris\AppData\Local\Temp\VMBuilds\Main_Siemens_Automation_824MSPe\haeger_haeger_samd_haeger_mcu2\Debug\Dwell_Time_Function.cpp.o
 .ARM.attributes
                0x00000173       0x39 C:\Users\Haris\AppData\Local\Temp\VMBuilds\Main_Siemens_Automation_824MSPe\haeger_haeger_samd_haeger_mcu2\Debug\Fastener_Detection_Function.cpp.o
 .ARM.attributes
                0x000001ac       0x39 C:\Users\Haris\AppData\Local\Temp\VMBuilds\Main_Siemens_Automation_824MSPe\haeger_haeger_samd_haeger_mcu2\Debug\Fastener_Length_Function.cpp.o
 .ARM.attributes
                0x000001e5       0x39 C:\Users\Haris\AppData\Local\Temp\VMBuilds\Main_Siemens_Automation_824MSPe\haeger_haeger_samd_haeger_mcu2\Debug\Feed_Fastener_Function.cpp.o
 .ARM.attributes
                0x0000021e       0x39 C:\Users\Haris\AppData\Local\Temp\VMBuilds\Main_Siemens_Automation_824MSPe\haeger_haeger_samd_haeger_mcu2\Debug\Footpedal_Function.cpp.o
 .ARM.attributes
                0x00000257       0x39 C:\Users\Haris\AppData\Local\Temp\VMBuilds\Main_Siemens_Automation_824MSPe\haeger_haeger_samd_haeger_mcu2\Debug\Hydraulic_Cylinder_Function.cpp.o
 .ARM.attributes
                0x00000290       0x39 C:\Users\Haris\AppData\Local\Temp\VMBuilds\Main_Siemens_Automation_824MSPe\haeger_haeger_samd_haeger_mcu2\Debug\Initialization_Function.cpp.o
 .ARM.attributes
                0x000002c9       0x39 C:\Users\Haris\AppData\Local\Temp\VMBuilds\Main_Siemens_Automation_824MSPe\haeger_haeger_samd_haeger_mcu2\Debug\Machine_State_Function.cpp.o
 .ARM.attributes
                0x00000302       0x39 C:\Users\Haris\AppData\Local\Temp\VMBuilds\Main_Siemens_Automation_824MSPe\haeger_haeger_samd_haeger_mcu2\Debug\MAS_Blow_Off_Function.cpp.o
 .ARM.attributes
                0x0000033b       0x39 C:\Users\Haris\AppData\Local\Temp\VMBuilds\Main_Siemens_Automation_824MSPe\haeger_haeger_samd_haeger_mcu2\Debug\MAS_Function.cpp.o
 .ARM.attributes
                0x00000374       0x39 C:\Users\Haris\AppData\Local\Temp\VMBuilds\Main_Siemens_Automation_824MSPe\haeger_haeger_samd_haeger_mcu2\Debug\MCU_Version_Function.cpp.o
 .ARM.attributes
                0x000003ad       0x39 C:\Users\Haris\AppData\Local\Temp\VMBuilds\Main_Siemens_Automation_824MSPe\haeger_haeger_samd_haeger_mcu2\Debug\Modbus_Communication_Function.cpp.o
 .ARM.attributes
                0x000003e6       0x39 C:\Users\Haris\AppData\Local\Temp\VMBuilds\Main_Siemens_Automation_824MSPe\haeger_haeger_samd_haeger_mcu2\Debug\Non_Conductive_Mode_Function.cpp.o
 .ARM.attributes
                0x0000041f       0x39 C:\Users\Haris\AppData\Local\Temp\VMBuilds\Main_Siemens_Automation_824MSPe\haeger_haeger_samd_haeger_mcu2\Debug\Press_Complete_Function.cpp.o
 .ARM.attributes
                0x00000458       0x39 C:\Users\Haris\AppData\Local\Temp\VMBuilds\Main_Siemens_Automation_824MSPe\haeger_haeger_samd_haeger_mcu2\Debug\Robot_Communication_Function.cpp.o
 .ARM.attributes
                0x00000491       0x39 C:\Users\Haris\AppData\Local\Temp\VMBuilds\Main_Siemens_Automation_824MSPe\haeger_haeger_samd_haeger_mcu2\Debug\Safety_Sensor_State_Function.cpp.o
 .ARM.attributes
                0x000004ca       0x39 C:\Users\Haris\AppData\Local\Temp\VMBuilds\Main_Siemens_Automation_824MSPe\haeger_haeger_samd_haeger_mcu2\Debug\Setup_Stroke_Fastener_Length_Function.cpp.o
 .ARM.attributes
                0x00000503       0x39 C:\Users\Haris\AppData\Local\Temp\VMBuilds\Main_Siemens_Automation_824MSPe\haeger_haeger_samd_haeger_mcu2\Debug\Setup_Stroke_TPS_Function.cpp.o
 .ARM.attributes
                0x0000053c       0x39 C:\Users\Haris\AppData\Local\Temp\VMBuilds\Main_Siemens_Automation_824MSPe\haeger_haeger_samd_haeger_mcu2\Debug\Setup_Stroke_Vacuum_Detection_Function.cpp.o
 .ARM.attributes
                0x00000575       0x39 C:\Users\Haris\AppData\Local\Temp\VMBuilds\Main_Siemens_Automation_824MSPe\haeger_haeger_samd_haeger_mcu2\Debug\Shuttle_Function.cpp.o
 .ARM.attributes
                0x000005ae       0x39 C:\Users\Haris\AppData\Local\Temp\VMBuilds\Main_Siemens_Automation_824MSPe\haeger_haeger_samd_haeger_mcu2\Debug\Timer_Function.cpp.o
 .ARM.attributes
                0x000005e7       0x39 C:\Users\Haris\AppData\Local\Temp\VMBuilds\Main_Siemens_Automation_824MSPe\haeger_haeger_samd_haeger_mcu2\Debug\Tooling_Protection_Sytem_Function.cpp.o
 .ARM.attributes
                0x00000620       0x39 C:\Users\Haris\AppData\Local\Temp\VMBuilds\Main_Siemens_Automation_824MSPe\haeger_haeger_samd_haeger_mcu2\Debug\Toolingcontact_Function.cpp.o
 .ARM.attributes
                0x00000659       0x39 C:\Users\Haris\AppData\Local\Temp\VMBuilds\Main_Siemens_Automation_824MSPe\haeger_haeger_samd_haeger_mcu2\Debug\Top_Of Stroke_Function.cpp.o
 .ARM.attributes
                0x00000692       0x39 C:\Users\Haris\AppData\Local\Temp\VMBuilds\Main_Siemens_Automation_824MSPe\haeger_haeger_samd_haeger_mcu2\Debug\Up_Travel_Function.cpp.o
 .ARM.attributes
                0x000006cb       0x39 C:\Users\Haris\AppData\Local\Temp\VMBuilds\Main_Siemens_Automation_824MSPe\haeger_haeger_samd_haeger_mcu2\Debug\Vacuum_Generator_Function.cpp.o
 .ARM.attributes
                0x00000704       0x39 C:\Users\Haris\AppData\Local\Temp\VMBuilds\Main_Siemens_Automation_824MSPe\haeger_haeger_samd_haeger_mcu2\Debug\ResponsiveAnalogRead\ResponsiveAnalogRead.cpp.o
 .ARM.attributes
                0x0000073d       0x39 C:\Users\Haris\AppData\Local\Temp\VMBCore\visualmicro\ed00c25992609daaa7a7b547b702356d\variant\variant.cpp.o
 .ARM.attributes
                0x00000776       0x39 C:\Users\Haris\AppData\Local\Temp\VMBuilds\Main_Siemens_Automation_824MSPe\haeger_haeger_samd_haeger_mcu2\Debug/core.a(cortex_handlers.c.o)
 .ARM.attributes
                0x000007af       0x39 C:\Users\Haris\AppData\Local\Temp\VMBuilds\Main_Siemens_Automation_824MSPe\haeger_haeger_samd_haeger_mcu2\Debug/core.a(delay.c.o)
 .ARM.attributes
                0x000007e8       0x39 C:\Users\Haris\AppData\Local\Temp\VMBuilds\Main_Siemens_Automation_824MSPe\haeger_haeger_samd_haeger_mcu2\Debug/core.a(hooks.c.o)
 .ARM.attributes
                0x00000821       0x39 C:\Users\Haris\AppData\Local\Temp\VMBuilds\Main_Siemens_Automation_824MSPe\haeger_haeger_samd_haeger_mcu2\Debug/core.a(startup.c.o)
 .ARM.attributes
                0x0000085a       0x39 C:\Users\Haris\AppData\Local\Temp\VMBuilds\Main_Siemens_Automation_824MSPe\haeger_haeger_samd_haeger_mcu2\Debug/core.a(wiring_analog.c.o)
 .ARM.attributes
                0x00000893       0x39 C:\Users\Haris\AppData\Local\Temp\VMBuilds\Main_Siemens_Automation_824MSPe\haeger_haeger_samd_haeger_mcu2\Debug/core.a(wiring_digital.c.o)
 .ARM.attributes
                0x000008cc       0x39 C:\Users\Haris\AppData\Local\Temp\VMBuilds\Main_Siemens_Automation_824MSPe\haeger_haeger_samd_haeger_mcu2\Debug/core.a(wiring_private.c.o)
 .ARM.attributes
                0x00000905       0x39 C:\Users\Haris\AppData\Local\Temp\VMBuilds\Main_Siemens_Automation_824MSPe\haeger_haeger_samd_haeger_mcu2\Debug/core.a(main.cpp.o)
 .ARM.attributes
                0x0000093e       0x39 C:\Users\Haris\AppData\Local\Temp\VMBuilds\Main_Siemens_Automation_824MSPe\haeger_haeger_samd_haeger_mcu2\Debug/core.a(Reset.cpp.o)
 .ARM.attributes
                0x00000977       0x39 C:\Users\Haris\AppData\Local\Temp\VMBuilds\Main_Siemens_Automation_824MSPe\haeger_haeger_samd_haeger_mcu2\Debug/core.a(SERCOM.cpp.o)
 .ARM.attributes
                0x000009b0       0x39 C:\Users\Haris\AppData\Local\Temp\VMBuilds\Main_Siemens_Automation_824MSPe\haeger_haeger_samd_haeger_mcu2\Debug/core.a(Uart.cpp.o)
 .ARM.attributes
                0x000009e9       0x39 C:\Users\Haris\AppData\Local\Temp\VMBuilds\Main_Siemens_Automation_824MSPe\haeger_haeger_samd_haeger_mcu2\Debug/core.a(WMath.cpp.o)
 .ARM.attributes
                0x00000a22       0x39 C:\Users\Haris\AppData\Local\Temp\VMBuilds\Main_Siemens_Automation_824MSPe\haeger_haeger_samd_haeger_mcu2\Debug/core.a(CDC.cpp.o)
 .ARM.attributes
                0x00000a5b       0x39 C:\Users\Haris\AppData\Local\Temp\VMBuilds\Main_Siemens_Automation_824MSPe\haeger_haeger_samd_haeger_mcu2\Debug/core.a(USBCore.cpp.o)
 .ARM.attributes
                0x00000a94       0x39 C:\Users\Haris\AppData\Local\Temp\VMBuilds\Main_Siemens_Automation_824MSPe\haeger_haeger_samd_haeger_mcu2\Debug/core.a(wiring.c.o)
 .ARM.attributes
                0x00000acd       0x39 C:\Users\Haris\AppData\Local\Temp\VMBuilds\Main_Siemens_Automation_824MSPe\haeger_haeger_samd_haeger_mcu2\Debug/core.a(new.cpp.o)
 .ARM.attributes
                0x00000b06       0x39 C:\Users\Haris\AppData\Local\Temp\VMBuilds\Main_Siemens_Automation_824MSPe\haeger_haeger_samd_haeger_mcu2\Debug/core.a(Print.cpp.o)
 .ARM.attributes
                0x00000b3f       0x39 C:\Users\Haris\AppData\Local\Temp\VMBuilds\Main_Siemens_Automation_824MSPe\haeger_haeger_samd_haeger_mcu2\Debug/core.a(RingBuffer.cpp.o)
 .ARM.attributes
                0x00000b78       0x39 C:\Users\Haris\AppData\Local\Temp\VMBuilds\Main_Siemens_Automation_824MSPe\haeger_haeger_samd_haeger_mcu2\Debug/core.a(PluggableUSB.cpp.o)
 .ARM.attributes
                0x00000bb1       0x39 C:\Users\Haris\AppData\Local\Temp\VMBuilds\Main_Siemens_Automation_824MSPe\haeger_haeger_samd_haeger_mcu2\Debug/core.a(SAMD21_USBDevice.cpp.o)
 .ARM.attributes
                0x00000bea       0x22 c:/users/haris/appdata/local/arduino15/packages/arduino/tools/arm-none-eabi-gcc/4.8.3-2014q1/bin/../lib/gcc/arm-none-eabi/4.8.3/armv7e-m/fpu\libgcc.a(_arm_addsubdf3.o)
 .ARM.attributes
                0x00000c0c       0x22 c:/users/haris/appdata/local/arduino15/packages/arduino/tools/arm-none-eabi-gcc/4.8.3-2014q1/bin/../lib/gcc/arm-none-eabi/4.8.3/armv7e-m/fpu\libgcc.a(_arm_muldivdf3.o)
 .ARM.attributes
                0x00000c2e       0x22 c:/users/haris/appdata/local/arduino15/packages/arduino/tools/arm-none-eabi-gcc/4.8.3-2014q1/bin/../lib/gcc/arm-none-eabi/4.8.3/armv7e-m/fpu\libgcc.a(_arm_truncdfsf2.o)
 .ARM.attributes
                0x00000c50       0x34 c:/users/haris/appdata/local/arduino15/packages/arduino/tools/arm-none-eabi-gcc/4.8.3-2014q1/bin/../lib/gcc/arm-none-eabi/4.8.3/../../../../arm-none-eabi/lib/armv7e-m/fpu\libc_s.a(lib_a-impure.o)
 .ARM.attributes
                0x00000c84       0x34 c:/users/haris/appdata/local/arduino15/packages/arduino/tools/arm-none-eabi-gcc/4.8.3-2014q1/bin/../lib/gcc/arm-none-eabi/4.8.3/../../../../arm-none-eabi/lib/armv7e-m/fpu\libc_s.a(lib_a-init.o)
 .ARM.attributes
                0x00000cb8       0x34 c:/users/haris/appdata/local/arduino15/packages/arduino/tools/arm-none-eabi-gcc/4.8.3-2014q1/bin/../lib/gcc/arm-none-eabi/4.8.3/../../../../arm-none-eabi/lib/armv7e-m/fpu\libc_s.a(lib_a-malloc.o)
 .ARM.attributes
                0x00000cec       0x34 c:/users/haris/appdata/local/arduino15/packages/arduino/tools/arm-none-eabi-gcc/4.8.3-2014q1/bin/../lib/gcc/arm-none-eabi/4.8.3/../../../../arm-none-eabi/lib/armv7e-m/fpu\libc_s.a(lib_a-memcpy-stub.o)
 .ARM.attributes
                0x00000d20       0x34 c:/users/haris/appdata/local/arduino15/packages/arduino/tools/arm-none-eabi-gcc/4.8.3-2014q1/bin/../lib/gcc/arm-none-eabi/4.8.3/../../../../arm-none-eabi/lib/armv7e-m/fpu\libc_s.a(lib_a-memset.o)
 .ARM.attributes
                0x00000d54       0x34 c:/users/haris/appdata/local/arduino15/packages/arduino/tools/arm-none-eabi-gcc/4.8.3-2014q1/bin/../lib/gcc/arm-none-eabi/4.8.3/../../../../arm-none-eabi/lib/armv7e-m/fpu\libc_s.a(lib_a-nano-mallocr.o)
 .ARM.attributes
                0x00000d88       0x34 c:/users/haris/appdata/local/arduino15/packages/arduino/tools/arm-none-eabi-gcc/4.8.3-2014q1/bin/../lib/gcc/arm-none-eabi/4.8.3/../../../../arm-none-eabi/lib/armv7e-m/fpu\libc_s.a(lib_a-sbrkr.o)
 .ARM.attributes
                0x00000dbc       0x34 c:/users/haris/appdata/local/arduino15/packages/arduino/tools/arm-none-eabi-gcc/4.8.3-2014q1/bin/../lib/gcc/arm-none-eabi/4.8.3/../../../../arm-none-eabi/lib/armv7e-m/fpu\libc_s.a(lib_a-strlen.o)
 .ARM.attributes
                0x00000df0       0x34 c:/users/haris/appdata/local/arduino15/packages/arduino/tools/arm-none-eabi-gcc/4.8.3-2014q1/bin/../lib/gcc/arm-none-eabi/4.8.3/../../../../arm-none-eabi/lib/armv7e-m/fpu\libc_s.a(lib_a-reent.o)
 .ARM.attributes
                0x00000e24       0x34 c:/users/haris/appdata/local/arduino15/packages/arduino/tools/arm-none-eabi-gcc/4.8.3-2014q1/bin/../lib/gcc/arm-none-eabi/4.8.3/../../../../arm-none-eabi/lib/armv7e-m/fpu\libnosys.a(sbrk.o)
 .ARM.attributes
                0x00000e58       0x34 c:/users/haris/appdata/local/arduino15/packages/arduino/tools/arm-none-eabi-gcc/4.8.3-2014q1/bin/../lib/gcc/arm-none-eabi/4.8.3/armv7e-m/fpu/crtend.o
 .ARM.attributes
                0x00000e8c       0x22 c:/users/haris/appdata/local/arduino15/packages/arduino/tools/arm-none-eabi-gcc/4.8.3-2014q1/bin/../lib/gcc/arm-none-eabi/4.8.3/armv7e-m/fpu/crtn.o

.comment        0x00000000       0x70
 .comment       0x00000000       0x70 C:\Users\Haris\AppData\Local\Temp\VMBuilds\Main_Siemens_Automation_824MSPe\haeger_haeger_samd_haeger_mcu2\Debug\Main_Siemens_Automation_824MSPe.cpp.o
                                 0x71 (size before relaxing)
 .comment       0x00000000       0x71 C:\Users\Haris\AppData\Local\Temp\VMBuilds\Main_Siemens_Automation_824MSPe\haeger_haeger_samd_haeger_mcu2\Debug\Alarm_Function.cpp.o
 .comment       0x00000000       0x71 C:\Users\Haris\AppData\Local\Temp\VMBuilds\Main_Siemens_Automation_824MSPe\haeger_haeger_samd_haeger_mcu2\Debug\All_At_Position_Function.cpp.o
 .comment       0x00000000       0x71 C:\Users\Haris\AppData\Local\Temp\VMBuilds\Main_Siemens_Automation_824MSPe\haeger_haeger_samd_haeger_mcu2\Debug\Conductive_Mode_Function.cpp.o
 .comment       0x00000000       0x71 C:\Users\Haris\AppData\Local\Temp\VMBuilds\Main_Siemens_Automation_824MSPe\haeger_haeger_samd_haeger_mcu2\Debug\Dwell_Time_Function.cpp.o
 .comment       0x00000000       0x71 C:\Users\Haris\AppData\Local\Temp\VMBuilds\Main_Siemens_Automation_824MSPe\haeger_haeger_samd_haeger_mcu2\Debug\Fastener_Detection_Function.cpp.o
 .comment       0x00000000       0x71 C:\Users\Haris\AppData\Local\Temp\VMBuilds\Main_Siemens_Automation_824MSPe\haeger_haeger_samd_haeger_mcu2\Debug\Fastener_Length_Function.cpp.o
 .comment       0x00000000       0x71 C:\Users\Haris\AppData\Local\Temp\VMBuilds\Main_Siemens_Automation_824MSPe\haeger_haeger_samd_haeger_mcu2\Debug\Feed_Fastener_Function.cpp.o
 .comment       0x00000000       0x71 C:\Users\Haris\AppData\Local\Temp\VMBuilds\Main_Siemens_Automation_824MSPe\haeger_haeger_samd_haeger_mcu2\Debug\Footpedal_Function.cpp.o
 .comment       0x00000000       0x71 C:\Users\Haris\AppData\Local\Temp\VMBuilds\Main_Siemens_Automation_824MSPe\haeger_haeger_samd_haeger_mcu2\Debug\Hydraulic_Cylinder_Function.cpp.o
 .comment       0x00000000       0x71 C:\Users\Haris\AppData\Local\Temp\VMBuilds\Main_Siemens_Automation_824MSPe\haeger_haeger_samd_haeger_mcu2\Debug\Initialization_Function.cpp.o
 .comment       0x00000000       0x71 C:\Users\Haris\AppData\Local\Temp\VMBuilds\Main_Siemens_Automation_824MSPe\haeger_haeger_samd_haeger_mcu2\Debug\Machine_State_Function.cpp.o
 .comment       0x00000000       0x71 C:\Users\Haris\AppData\Local\Temp\VMBuilds\Main_Siemens_Automation_824MSPe\haeger_haeger_samd_haeger_mcu2\Debug\MAS_Blow_Off_Function.cpp.o
 .comment       0x00000000       0x71 C:\Users\Haris\AppData\Local\Temp\VMBuilds\Main_Siemens_Automation_824MSPe\haeger_haeger_samd_haeger_mcu2\Debug\MAS_Function.cpp.o
 .comment       0x00000000       0x71 C:\Users\Haris\AppData\Local\Temp\VMBuilds\Main_Siemens_Automation_824MSPe\haeger_haeger_samd_haeger_mcu2\Debug\MCU_Version_Function.cpp.o
 .comment       0x00000000       0x71 C:\Users\Haris\AppData\Local\Temp\VMBuilds\Main_Siemens_Automation_824MSPe\haeger_haeger_samd_haeger_mcu2\Debug\Modbus_Communication_Function.cpp.o
 .comment       0x00000000       0x71 C:\Users\Haris\AppData\Local\Temp\VMBuilds\Main_Siemens_Automation_824MSPe\haeger_haeger_samd_haeger_mcu2\Debug\Non_Conductive_Mode_Function.cpp.o
 .comment       0x00000000       0x71 C:\Users\Haris\AppData\Local\Temp\VMBuilds\Main_Siemens_Automation_824MSPe\haeger_haeger_samd_haeger_mcu2\Debug\Press_Complete_Function.cpp.o
 .comment       0x00000000       0x71 C:\Users\Haris\AppData\Local\Temp\VMBuilds\Main_Siemens_Automation_824MSPe\haeger_haeger_samd_haeger_mcu2\Debug\Robot_Communication_Function.cpp.o
 .comment       0x00000000       0x71 C:\Users\Haris\AppData\Local\Temp\VMBuilds\Main_Siemens_Automation_824MSPe\haeger_haeger_samd_haeger_mcu2\Debug\Safety_Sensor_State_Function.cpp.o
 .comment       0x00000000       0x71 C:\Users\Haris\AppData\Local\Temp\VMBuilds\Main_Siemens_Automation_824MSPe\haeger_haeger_samd_haeger_mcu2\Debug\Setup_Stroke_Fastener_Length_Function.cpp.o
 .comment       0x00000000       0x71 C:\Users\Haris\AppData\Local\Temp\VMBuilds\Main_Siemens_Automation_824MSPe\haeger_haeger_samd_haeger_mcu2\Debug\Setup_Stroke_TPS_Function.cpp.o
 .comment       0x00000000       0x71 C:\Users\Haris\AppData\Local\Temp\VMBuilds\Main_Siemens_Automation_824MSPe\haeger_haeger_samd_haeger_mcu2\Debug\Setup_Stroke_Vacuum_Detection_Function.cpp.o
 .comment       0x00000000       0x71 C:\Users\Haris\AppData\Local\Temp\VMBuilds\Main_Siemens_Automation_824MSPe\haeger_haeger_samd_haeger_mcu2\Debug\Shuttle_Function.cpp.o
 .comment       0x00000000       0x71 C:\Users\Haris\AppData\Local\Temp\VMBuilds\Main_Siemens_Automation_824MSPe\haeger_haeger_samd_haeger_mcu2\Debug\Timer_Function.cpp.o
 .comment       0x00000000       0x71 C:\Users\Haris\AppData\Local\Temp\VMBuilds\Main_Siemens_Automation_824MSPe\haeger_haeger_samd_haeger_mcu2\Debug\Tooling_Protection_Sytem_Function.cpp.o
 .comment       0x00000000       0x71 C:\Users\Haris\AppData\Local\Temp\VMBuilds\Main_Siemens_Automation_824MSPe\haeger_haeger_samd_haeger_mcu2\Debug\Toolingcontact_Function.cpp.o
 .comment       0x00000000       0x71 C:\Users\Haris\AppData\Local\Temp\VMBuilds\Main_Siemens_Automation_824MSPe\haeger_haeger_samd_haeger_mcu2\Debug\Top_Of Stroke_Function.cpp.o
 .comment       0x00000000       0x71 C:\Users\Haris\AppData\Local\Temp\VMBuilds\Main_Siemens_Automation_824MSPe\haeger_haeger_samd_haeger_mcu2\Debug\Up_Travel_Function.cpp.o
 .comment       0x00000000       0x71 C:\Users\Haris\AppData\Local\Temp\VMBuilds\Main_Siemens_Automation_824MSPe\haeger_haeger_samd_haeger_mcu2\Debug\Vacuum_Generator_Function.cpp.o
 .comment       0x00000000       0x71 C:\Users\Haris\AppData\Local\Temp\VMBuilds\Main_Siemens_Automation_824MSPe\haeger_haeger_samd_haeger_mcu2\Debug\ResponsiveAnalogRead\ResponsiveAnalogRead.cpp.o
 .comment       0x00000000       0x71 C:\Users\Haris\AppData\Local\Temp\VMBCore\visualmicro\ed00c25992609daaa7a7b547b702356d\variant\variant.cpp.o
 .comment       0x00000000       0x71 C:\Users\Haris\AppData\Local\Temp\VMBuilds\Main_Siemens_Automation_824MSPe\haeger_haeger_samd_haeger_mcu2\Debug/core.a(cortex_handlers.c.o)
 .comment       0x00000000       0x71 C:\Users\Haris\AppData\Local\Temp\VMBuilds\Main_Siemens_Automation_824MSPe\haeger_haeger_samd_haeger_mcu2\Debug/core.a(delay.c.o)
 .comment       0x00000000       0x71 C:\Users\Haris\AppData\Local\Temp\VMBuilds\Main_Siemens_Automation_824MSPe\haeger_haeger_samd_haeger_mcu2\Debug/core.a(hooks.c.o)
 .comment       0x00000000       0x71 C:\Users\Haris\AppData\Local\Temp\VMBuilds\Main_Siemens_Automation_824MSPe\haeger_haeger_samd_haeger_mcu2\Debug/core.a(startup.c.o)
 .comment       0x00000000       0x71 C:\Users\Haris\AppData\Local\Temp\VMBuilds\Main_Siemens_Automation_824MSPe\haeger_haeger_samd_haeger_mcu2\Debug/core.a(wiring_analog.c.o)
 .comment       0x00000000       0x71 C:\Users\Haris\AppData\Local\Temp\VMBuilds\Main_Siemens_Automation_824MSPe\haeger_haeger_samd_haeger_mcu2\Debug/core.a(wiring_digital.c.o)
 .comment       0x00000000       0x71 C:\Users\Haris\AppData\Local\Temp\VMBuilds\Main_Siemens_Automation_824MSPe\haeger_haeger_samd_haeger_mcu2\Debug/core.a(wiring_private.c.o)
 .comment       0x00000000       0x71 C:\Users\Haris\AppData\Local\Temp\VMBuilds\Main_Siemens_Automation_824MSPe\haeger_haeger_samd_haeger_mcu2\Debug/core.a(main.cpp.o)
 .comment       0x00000000       0x71 C:\Users\Haris\AppData\Local\Temp\VMBuilds\Main_Siemens_Automation_824MSPe\haeger_haeger_samd_haeger_mcu2\Debug/core.a(Reset.cpp.o)
 .comment       0x00000000       0x71 C:\Users\Haris\AppData\Local\Temp\VMBuilds\Main_Siemens_Automation_824MSPe\haeger_haeger_samd_haeger_mcu2\Debug/core.a(SERCOM.cpp.o)
 .comment       0x00000000       0x71 C:\Users\Haris\AppData\Local\Temp\VMBuilds\Main_Siemens_Automation_824MSPe\haeger_haeger_samd_haeger_mcu2\Debug/core.a(Uart.cpp.o)
 .comment       0x00000000       0x71 C:\Users\Haris\AppData\Local\Temp\VMBuilds\Main_Siemens_Automation_824MSPe\haeger_haeger_samd_haeger_mcu2\Debug/core.a(WMath.cpp.o)
 .comment       0x00000000       0x71 C:\Users\Haris\AppData\Local\Temp\VMBuilds\Main_Siemens_Automation_824MSPe\haeger_haeger_samd_haeger_mcu2\Debug/core.a(CDC.cpp.o)
 .comment       0x00000000       0x71 C:\Users\Haris\AppData\Local\Temp\VMBuilds\Main_Siemens_Automation_824MSPe\haeger_haeger_samd_haeger_mcu2\Debug/core.a(USBCore.cpp.o)
 .comment       0x00000000       0x71 C:\Users\Haris\AppData\Local\Temp\VMBuilds\Main_Siemens_Automation_824MSPe\haeger_haeger_samd_haeger_mcu2\Debug/core.a(wiring.c.o)
 .comment       0x00000000       0x71 C:\Users\Haris\AppData\Local\Temp\VMBuilds\Main_Siemens_Automation_824MSPe\haeger_haeger_samd_haeger_mcu2\Debug/core.a(new.cpp.o)
 .comment       0x00000000       0x71 C:\Users\Haris\AppData\Local\Temp\VMBuilds\Main_Siemens_Automation_824MSPe\haeger_haeger_samd_haeger_mcu2\Debug/core.a(Print.cpp.o)
 .comment       0x00000000       0x71 C:\Users\Haris\AppData\Local\Temp\VMBuilds\Main_Siemens_Automation_824MSPe\haeger_haeger_samd_haeger_mcu2\Debug/core.a(RingBuffer.cpp.o)
 .comment       0x00000000       0x71 C:\Users\Haris\AppData\Local\Temp\VMBuilds\Main_Siemens_Automation_824MSPe\haeger_haeger_samd_haeger_mcu2\Debug/core.a(PluggableUSB.cpp.o)
 .comment       0x00000000       0x71 C:\Users\Haris\AppData\Local\Temp\VMBuilds\Main_Siemens_Automation_824MSPe\haeger_haeger_samd_haeger_mcu2\Debug/core.a(SAMD21_USBDevice.cpp.o)

.debug_info     0x00000000    0x7e13f
 .debug_info    0x00000000     0x527f C:\Users\Haris\AppData\Local\Temp\VMBuilds\Main_Siemens_Automation_824MSPe\haeger_haeger_samd_haeger_mcu2\Debug\Main_Siemens_Automation_824MSPe.cpp.o
 .debug_info    0x0000527f     0x1fd5 C:\Users\Haris\AppData\Local\Temp\VMBuilds\Main_Siemens_Automation_824MSPe\haeger_haeger_samd_haeger_mcu2\Debug\Alarm_Function.cpp.o
 .debug_info    0x00007254     0x20d7 C:\Users\Haris\AppData\Local\Temp\VMBuilds\Main_Siemens_Automation_824MSPe\haeger_haeger_samd_haeger_mcu2\Debug\All_At_Position_Function.cpp.o
 .debug_info    0x0000932b     0x20d0 C:\Users\Haris\AppData\Local\Temp\VMBuilds\Main_Siemens_Automation_824MSPe\haeger_haeger_samd_haeger_mcu2\Debug\Conductive_Mode_Function.cpp.o
 .debug_info    0x0000b3fb     0x2063 C:\Users\Haris\AppData\Local\Temp\VMBuilds\Main_Siemens_Automation_824MSPe\haeger_haeger_samd_haeger_mcu2\Debug\Dwell_Time_Function.cpp.o
 .debug_info    0x0000d45e     0x21fc C:\Users\Haris\AppData\Local\Temp\VMBuilds\Main_Siemens_Automation_824MSPe\haeger_haeger_samd_haeger_mcu2\Debug\Fastener_Detection_Function.cpp.o
 .debug_info    0x0000f65a     0x21ac C:\Users\Haris\AppData\Local\Temp\VMBuilds\Main_Siemens_Automation_824MSPe\haeger_haeger_samd_haeger_mcu2\Debug\Fastener_Length_Function.cpp.o
 .debug_info    0x00011806     0x20d2 C:\Users\Haris\AppData\Local\Temp\VMBuilds\Main_Siemens_Automation_824MSPe\haeger_haeger_samd_haeger_mcu2\Debug\Feed_Fastener_Function.cpp.o
 .debug_info    0x000138d8     0x21d5 C:\Users\Haris\AppData\Local\Temp\VMBuilds\Main_Siemens_Automation_824MSPe\haeger_haeger_samd_haeger_mcu2\Debug\Footpedal_Function.cpp.o
 .debug_info    0x00015aad     0x2238 C:\Users\Haris\AppData\Local\Temp\VMBuilds\Main_Siemens_Automation_824MSPe\haeger_haeger_samd_haeger_mcu2\Debug\Hydraulic_Cylinder_Function.cpp.o
 .debug_info    0x00017ce5     0x1fe6 C:\Users\Haris\AppData\Local\Temp\VMBuilds\Main_Siemens_Automation_824MSPe\haeger_haeger_samd_haeger_mcu2\Debug\Initialization_Function.cpp.o
 .debug_info    0x00019ccb     0x20c1 C:\Users\Haris\AppData\Local\Temp\VMBuilds\Main_Siemens_Automation_824MSPe\haeger_haeger_samd_haeger_mcu2\Debug\Machine_State_Function.cpp.o
 .debug_info    0x0001bd8c     0x20bb C:\Users\Haris\AppData\Local\Temp\VMBuilds\Main_Siemens_Automation_824MSPe\haeger_haeger_samd_haeger_mcu2\Debug\MAS_Blow_Off_Function.cpp.o
 .debug_info    0x0001de47     0x20ec C:\Users\Haris\AppData\Local\Temp\VMBuilds\Main_Siemens_Automation_824MSPe\haeger_haeger_samd_haeger_mcu2\Debug\MAS_Function.cpp.o
 .debug_info    0x0001ff33     0x1fd5 C:\Users\Haris\AppData\Local\Temp\VMBuilds\Main_Siemens_Automation_824MSPe\haeger_haeger_samd_haeger_mcu2\Debug\MCU_Version_Function.cpp.o
 .debug_info    0x00021f08     0x2085 C:\Users\Haris\AppData\Local\Temp\VMBuilds\Main_Siemens_Automation_824MSPe\haeger_haeger_samd_haeger_mcu2\Debug\Modbus_Communication_Function.cpp.o
 .debug_info    0x00023f8d     0x2068 C:\Users\Haris\AppData\Local\Temp\VMBuilds\Main_Siemens_Automation_824MSPe\haeger_haeger_samd_haeger_mcu2\Debug\Non_Conductive_Mode_Function.cpp.o
 .debug_info    0x00025ff5     0x20ac C:\Users\Haris\AppData\Local\Temp\VMBuilds\Main_Siemens_Automation_824MSPe\haeger_haeger_samd_haeger_mcu2\Debug\Press_Complete_Function.cpp.o
 .debug_info    0x000280a1     0x2090 C:\Users\Haris\AppData\Local\Temp\VMBuilds\Main_Siemens_Automation_824MSPe\haeger_haeger_samd_haeger_mcu2\Debug\Robot_Communication_Function.cpp.o
 .debug_info    0x0002a131     0x20fc C:\Users\Haris\AppData\Local\Temp\VMBuilds\Main_Siemens_Automation_824MSPe\haeger_haeger_samd_haeger_mcu2\Debug\Safety_Sensor_State_Function.cpp.o
 .debug_info    0x0002c22d     0x2039 C:\Users\Haris\AppData\Local\Temp\VMBuilds\Main_Siemens_Automation_824MSPe\haeger_haeger_samd_haeger_mcu2\Debug\Setup_Stroke_Fastener_Length_Function.cpp.o
 .debug_info    0x0002e266     0x207b C:\Users\Haris\AppData\Local\Temp\VMBuilds\Main_Siemens_Automation_824MSPe\haeger_haeger_samd_haeger_mcu2\Debug\Setup_Stroke_TPS_Function.cpp.o
 .debug_info    0x000302e1     0x212e C:\Users\Haris\AppData\Local\Temp\VMBuilds\Main_Siemens_Automation_824MSPe\haeger_haeger_samd_haeger_mcu2\Debug\Setup_Stroke_Vacuum_Detection_Function.cpp.o
 .debug_info    0x0003240f     0x22ca C:\Users\Haris\AppData\Local\Temp\VMBuilds\Main_Siemens_Automation_824MSPe\haeger_haeger_samd_haeger_mcu2\Debug\Shuttle_Function.cpp.o
 .debug_info    0x000346d9     0x2056 C:\Users\Haris\AppData\Local\Temp\VMBuilds\Main_Siemens_Automation_824MSPe\haeger_haeger_samd_haeger_mcu2\Debug\Timer_Function.cpp.o
 .debug_info    0x0003672f     0x20d3 C:\Users\Haris\AppData\Local\Temp\VMBuilds\Main_Siemens_Automation_824MSPe\haeger_haeger_samd_haeger_mcu2\Debug\Tooling_Protection_Sytem_Function.cpp.o
 .debug_info    0x00038802     0x1ffb C:\Users\Haris\AppData\Local\Temp\VMBuilds\Main_Siemens_Automation_824MSPe\haeger_haeger_samd_haeger_mcu2\Debug\Toolingcontact_Function.cpp.o
 .debug_info    0x0003a7fd     0x1fe0 C:\Users\Haris\AppData\Local\Temp\VMBuilds\Main_Siemens_Automation_824MSPe\haeger_haeger_samd_haeger_mcu2\Debug\Top_Of Stroke_Function.cpp.o
 .debug_info    0x0003c7dd     0x203f C:\Users\Haris\AppData\Local\Temp\VMBuilds\Main_Siemens_Automation_824MSPe\haeger_haeger_samd_haeger_mcu2\Debug\Up_Travel_Function.cpp.o
 .debug_info    0x0003e81c     0x206b C:\Users\Haris\AppData\Local\Temp\VMBuilds\Main_Siemens_Automation_824MSPe\haeger_haeger_samd_haeger_mcu2\Debug\Vacuum_Generator_Function.cpp.o
 .debug_info    0x00040887     0x24ec C:\Users\Haris\AppData\Local\Temp\VMBuilds\Main_Siemens_Automation_824MSPe\haeger_haeger_samd_haeger_mcu2\Debug\ResponsiveAnalogRead\ResponsiveAnalogRead.cpp.o
 .debug_info    0x00042d73     0x5c15 C:\Users\Haris\AppData\Local\Temp\VMBCore\visualmicro\ed00c25992609daaa7a7b547b702356d\variant\variant.cpp.o
 .debug_info    0x00048988      0xd22 C:\Users\Haris\AppData\Local\Temp\VMBuilds\Main_Siemens_Automation_824MSPe\haeger_haeger_samd_haeger_mcu2\Debug/core.a(cortex_handlers.c.o)
 .debug_info    0x000496aa      0x490 C:\Users\Haris\AppData\Local\Temp\VMBuilds\Main_Siemens_Automation_824MSPe\haeger_haeger_samd_haeger_mcu2\Debug/core.a(delay.c.o)
 .debug_info    0x00049b3a       0x64 C:\Users\Haris\AppData\Local\Temp\VMBuilds\Main_Siemens_Automation_824MSPe\haeger_haeger_samd_haeger_mcu2\Debug/core.a(hooks.c.o)
 .debug_info    0x00049b9e     0x2ff9 C:\Users\Haris\AppData\Local\Temp\VMBuilds\Main_Siemens_Automation_824MSPe\haeger_haeger_samd_haeger_mcu2\Debug/core.a(startup.c.o)
 .debug_info    0x0004cb97     0x4e84 C:\Users\Haris\AppData\Local\Temp\VMBuilds\Main_Siemens_Automation_824MSPe\haeger_haeger_samd_haeger_mcu2\Debug/core.a(wiring_analog.c.o)
 .debug_info    0x00051a1b      0xcb9 C:\Users\Haris\AppData\Local\Temp\VMBuilds\Main_Siemens_Automation_824MSPe\haeger_haeger_samd_haeger_mcu2\Debug/core.a(wiring_digital.c.o)
